:020000040800F2
:10000000B027002029020008B7180008F9170008D7
:10001000B518000807050008D123000800000000FB
:10002000000000000000000000000000272300087E
:100030000905000800000000B9180008292300087D
:10004000430200084302000843020008430200087C
:10005000430200084302000843020008430200086C
:10006000430200084302000843020008430200085C
:10007000430200084302000843020008430200084C
:10008000430200084302000843020008430200083C
:10009000430200084302000843020008430200082C
:1000A000430200084302000843020008430200081C
:1000B000430200084302000843020008430200080C
:1000C00043020008430200084302000843020008FC
:1000D00043020008430200084302000843020008EC
:1000E00043020008430200084302000843020008DC
:1000F00043020008430200084302000843020008CC
:1001000043020008ED1800084302000843020008FB
:1001100043020008430200084302000843020008AB
:10012000430200084302000843020008430200089B
:10013000430200084302000843020008430200088B
:10014000430200084302000843020008430200087B
:10015000430200084302000843020008430200086B
:10016000430200084302000843020008430200085B
:100170004302000843020008430200080000000098
:10018000430200084302000800F002F800F03CF8C7
:100190000AA090E8000C82448344AAF10107DA45E2
:1001A00001D100F031F8AFF2090EBAE80F0013F0F8
:1001B000010F18BFFB1A43F001031847383600003F
:1001C00058360000103A24BF78C878C1FAD85207D0
:1001D00024BF30C830C144BF04680C6070470000C1
:1001E0000023002400250026103A28BF78C1FBD840
:1001F000520728BF30C148BF0B6070471FB503F0DE
:1002000094FA1FBD10B510BD00F0EEF81146FFF7CF
:10021000F5FF03F0AFF800F00CF903B4FFF7F2FFBD
:1002200003BC00F013F90000094880470948004763
:10023000FEE7FEE7FEE7FEE7FEE7FEE7FEE7FEE796
:10024000FEE7FEE704480549054A064B70470000F3
:10025000C123000889010008B0210020B027002038
:10026000B0230020B023002053EA020C00F0698084
:100270002DE9F04B4FF00006002B1FBFB3FA83F5BA
:1002800003FA05F424FA05F65E4012BF1643B2FAEB
:1002900082F502FA05F4C5F120051EBF22FA05FC1D
:1002A00044EA0C04203556EA044C4FEA144418BFC3
:1002B000641C4FF000084FF00009904271EB030CF2
:1002C00039D3002919BFB1FA81F701FA07F6B0FA5C
:1002D00080F700FA07F6C7F120071EBF20FA07FCD7
:1002E00046EA0C062037B6FBF4FCA7EB0507103FE7
:1002F00007F01F0BCBF120060CFA0BFB2CFA06F6CD
:1003000044BFB3460026202FA4BF5E464FF0000B2B
:100310005BEA060C08BF4FF0010B19EB0B09ABFBB6
:10032000027C48EB0608C01B06FB02CC0BFB03CC8F
:1003300071EB0C01C1E70B46024641464846BDE859
:10034000F08B13B54FF000004FF00001AFF30080C9
:10035000BDE81C40704710B5431C02E010F8011BBB
:1003600071B18107FAD14FF0013202C88C1A8C4367
:1003700014EAC211F9D0C01A0A0603D0C01E10BD7B
:10038000C01A10BD0A0401D0801E10BD0902FCD0A5
:10039000401E10BD4FF0000200B51346944696462D
:1003A000203922BFA0E80C50A0E80C50B1F1200188
:1003B000BFF4F7AF090728BFA0E80C5048BF0CC036
:1003C0005DF804EB890028BF40F8042B08BF704794
:1003D00048BF20F8022B11F0804F18BF00F8012B06
:1003E0007047704770477047754600F02BF8AE466F
:1003F00005006946534620F00700854618B020B531
:10040000FFF720FFBDE820404FF000064FF0000747
:100410004FF000084FF0000B21F00701AC46ACE8AC
:10042000C009ACE8C009ACE8C009ACE8C0098D4619
:10043000704710B50446AFF300802046BDE8104079
:10044000FFF7EBBE004870474C21002001491820FF
:10045000ABBEFEE726000200704770470146014828
:1004600000F018BE3800002010B5044800F024FE4B
:10047000042801D0012010BD002010BD380000204C
:1004800010B500F015F8012801D0012010BD074873
:1004900000F02CFF040006D14FF40061034800F087
:1004A0009FFC00B10124204610BD00003800002050
:1004B00008B501208DF800009DF8000008BD00007F
:1004C00038B50024009313460A460146034800F05D
:1004D000B5FF00B10124204638BD000038000020DF
:1004E0007047000038B50024009313460A460146C1
:1004F000034801F097F800B10124204638BD000000
:10050000380000207047FEE770470022AFF30080FC
:1005100030B50E4B054601205C7A002C14D1587A78
:100520001C54587A03EB800045605D7A03F10800A3
:100530002A54587A421C5A72303008703A20487057
:100540002F208870CC70002030BD0000402100209A
:1005500090F83510022903D08021416501207047B1
:10056000052180F835100068016821F00101016063
:100570000020704770B5044600F00CF90546601C79
:1005800002D004480078044400F004F9401BA04263
:10059000FAD370BD200000202DE9F84FDFF8BCA190
:1005A000002201250AF1040B03264FF00F090BF17D
:1005B000040E00BF0B6805FA02F42340A34270D179
:1005C0000F7907F00307012F01D0022F16D187689A
:1005D0004FEA420806FA08FC27EA0C07D1F80CC0DB
:1005E0000CFA08FC4CEA070CC0F808C04768A7439F
:1005F0000C79C4F3001494403C4344600C79E44308
:10060000A4070AD0C4684FEA420C06FA0CF7BC43B0
:100610008F6807FA0CF72743C7600C7904F00304CE
:10062000022C12D1D40800EB840CDCF820405707D0
:10063000FF0E09FA07F824EA0804D1F8108008FA36
:1006400007F848EA0408CCF8208004684FEA420C16
:1006500006FA0CF7BC430F7907F0030707FA0CF70B
:10066000274307604C6814F4403F70D03C4C276827
:1006700047F480472760246822F0030704F480448D
:100680000094384C07EB040CDCF8084897074FEA55
:10069000177809FA08F7BC43334FB84202D1002754
:1006A00024E054E0314FB84201D101271EE0304F21
:1006B000B84201D1022719E02E4FB84201D10327D9
:1006C00014E02D4FB84201D104270FE02B4FB84260
:1006D00001D105270AE02A4FB84201D1062705E0DB
:1006E000284FB84201D1072700E0082707FA08F78A
:1006F0002743CCF80878DAF800405746D1F804C010
:100700009C435FEACC3C00D51C433C60DBF80040D6
:100710005F46D1F804C09C435FEA8C3C00D51C4383
:100720003C60DEF800407746D1F804C09C435FEAA5
:10073000CC2C00D51C433C60084F0C373C68D1F8EA
:1007400004C09C435FEA8C2C00D51C433C60521CC7
:10075000102AFFF42FAFBDE8F88F0000003C0140E5
:1007600044380240003001400000024000040240D2
:1007700000080240000C0240001002400014024039
:1007800000180240001C02400AB181617047090450
:10079000FBE700000148806870470000200000204F
:1007A000024881680278114481607047200000206F
:1007B0000B4810B5016841F400710160016841F413
:1007C00080610160016841F480710160032000F0E4
:1007D0006FF80F2000F006F800F024F8002010BD9C
:1007E000003C024070B50D4D04464FF47A712878F4
:1007F000B1FBF0F00A490968B1FBF0F000F0E8FF46
:1008000048B9102C07D200222146501E00F030F8C3
:1008100000206C6070BD012070BD00002000002031
:100820002C0000200A4808B5016841F480410160AD
:10083000006800F4804000900548001F016841F006
:1008400080510160006800F08050009008BD0000F9
:1008500044380240002809DB00F01F0201219140CA
:100860004009800000F1E020C0F80011704700004E
:10087000F0B40E4B1B680C46C3F30223C3F107050B
:10088000042D00D90425191D072901D2002300E0F9
:10089000DB1E012606FA05F1491E214099409E40C3
:1008A000761E16403143F0BC01F093BD0CED00E024
:1008B000064900F0070208684FF6FF03184040EAB7
:1008C0000220034A10430860704700000CED00E06E
:1008D0000000FA052DE9F0470E46050065D0DFF867
:1008E0001481D8F80000F7B200F00700B04207D238
:1008F00088F80070D8F8000000F00700B04254D12A
:1009000028683D4C810712D5400703D5206840F484
:10091000E05020602878000703D5206840F460404C
:1009200020602068A96820F0F00008432060287843
:10093000C0072DD0304968680839012812D0022834
:1009400013D0032811D00968890700292DDA2168FE
:1009500021F0030101432160FFF71CFF814641F2B2
:10096000883A0EE009688903EFE709688901ECE736
:10097000FFF710FFA0EB0901514502D90320BDE8A4
:10098000F0872068696800F00C00B0EB810FEFD1B0
:10099000D8F80010404601F00701B14207D90770AE
:1009A000006800F00700B04201D00120E7E7287896
:1009B000400705D52068E96820F4E050084320602E
:1009C0002878000706D52068296920F4604040EAAD
:1009D000C100206000F018F82168084AC1F3031133
:1009E000515CC8400649086006480068FFF7FAFEF7
:1009F0000020C4E7003C02400838024048370008A5
:100A00002C00002024000020154810B5006810F0CC
:100A10000C02144813D01449042A0FD0082A0ED10E
:100A20000F4C241F2268236802F03F025B0207D5A7
:100A30002068C0F38810A0FB010106E0084610BD45
:100A40002168C1F38811A1FB00010023FFF70CFC12
:100A50002168C1F30141491C4900B0FBF1F010BD10
:100A6000083802400024F40040787D012DE9F84F59
:100A700004006ED02078DFF84C93C007A9F104057C
:100A80004AD009F104000168C1F38101012908D0AD
:100A90000068C0F3810002280AD1D9F800004002A2
:100AA00006D52868800337D560680028E1D033E098
:100AB0006068B0F5803F10D0B0F5A02F286810D046
:100AC00020F480302860286820F480202860606846
:100AD000A8B1FFF75FFE06460DE0286840F48030BD
:100AE000F4E740F480202860F7E700BFFFF752FEEC
:100AF000801B642873D828688003F7D50CE0FFF7C3
:100B000049FE064605E000BFFFF744FE801B64284F
:100B1000F0D828688003F7D42078DFF8AC8280070B
:100B20004FF0000A3ED5A748001D016811F00C0FD8
:100B300008D00068C0F3810002280BD1D9F800006A
:100B4000400207D42868800716D5E068012800D144
:100B500012E033E1E068B8B10120C8F80000FFF707
:100B600019FE064605E000BFFFF714FE801B0228B1
:100B7000C0D828688007F7D52868216920F0F800D8
:100B800040EAC10028600DE0C8F800A0FFF702FEAF
:100B9000064604E0FFF7FEFD801B02281FD82868E8
:100BA0008007F7D42078000722D5864F87486169EF
:100BB000703771B101210160FFF7ECFD064604E0DA
:100BC000FFF7E8FD801B022809D838688007F7D5B1
:100BD0000EE0C0F800A0FFF7DDFD064605E082E06C
:100BE000FFF7D8FD801B02287DD838688007F7D42E
:100BF0002078400768D5DFF8CCB100270BF13C0B1B
:100C0000DBF80000C0000BD4DBF8001041F080518D
:100C1000CBF80010DBF80000012700F080500090B6
:100C20006B4E3068C00510D4306840F4807030607E
:100C3000FFF7B0FD009005E0FFF7ACFD0099401A0A
:100C4000022850D83068C005F6D55E4EA0686C36D4
:100C500001280FD00528306810D020F00100306046
:100C6000306820F004003060A068B8B1FFF792FD52
:100C700000900FE0306840F00100F4E740F004001D
:100C80003060F7E7FFF786FD0099411A41F288309E
:100C9000814266D830688007F4D50EE0FFF77AFD10
:100CA000009007E0FFF776FD0099411A41F2883085
:100CB000814256D830688007F4D42FB1DBF8001099
:100CC00021F08051CBF80010A069C8B33D49091D3F
:100CD0000968C1F3810102294AD00228504607D091
:100CE000C8F8600000E03CE0FFF754FD04463BE03C
:100CF0004746C8F86000FFF74DFD064605E000BF17
:100D0000FFF748FD801B02282BD828688001F7D404
:100D1000D4E907010843A16A2E4A490802EB0141C0
:100D2000626A41EA8211084394F82C1040EA01619A
:100D3000C9F8001001203866FFF72CFD044606E0D4
:100D40003EE000BFFFF726FD001B022809D82868F7
:100D50008001F7D534E000BFFFF71CFD001B02281F
:100D600002D90320BDE8F88F28688001F4D427E079
:100D70000128F7D0D9F80000E26900F4800191421F
:100D80001CD1226A00F03F01914217D147F6C07191
:100D9000626A0140B1EB821F10D1A26A4FF0FF33AB
:100DA00000F4403103EB5202B1EB024F06D194F84C
:100DB0002C1000F07060B0EB016F01D00120D1E782
:100DC0000020CFE70438024000004742800E47422F
:100DD000007000400000FFFF10B5FFF73EFB10BDA4
:100DE0002DE9FE430446002603200D4684F8340016
:100DF000606C03285ED0B5F5805F5BD04FF4006770
:100E000000204FF08068BD421FD1814600900190C4
:100E10000021206800F067FD800113D46946204658
:100E200001F0E2F807000DD10198400334D5B4F881
:100E300050000104206800F091FD070002D102215A
:100E4000206823E0A06B384328E01DB1A06B40F080
:100E5000006023E08146009001900021206800F0AE
:100E600042FD8001EED46946204601F0BDF807003E
:100E7000E8D10198C0030FD5B4F8500001042068F0
:100E800000F06CFD0700DDD10021206800F0B3FD0B
:100E90000700D7D14F46D5E74746D3E7A063A06BFD
:100EA000144F4FF0010848B12068876384F83480FC
:100EB00001260EE0A06B40F08050EFE7211DD4E941
:100EC000050C0EC9CDE90050CDF808C0206800F02F
:100ED00013FD4FF40071206800F074FD28B1216803
:100EE0008F63A16B0143A163012684F834803046EF
:100EF000BDE8FE83FF05400070470000F0B5426E7C
:100F0000920F0A70426EC2F383624A70426EC2F35D
:100F100001628A70426E120CCA70B0F86420120A24
:100F20000A7190F864204A71826E120DCA80826E36
:100F3000C2F303420A72B0F86820C2F3C0324A72A8
:100F4000B0F86820C2F380328A72B0F86820C2F329
:100F50004032CA72B0F86820C2F300320A73002629
:100F60004E73426C4FF40075012462B1012A3AD0ED
:100F7000026847499163816B41F08051816380F839
:100F800034400120F0BDB0F86820C36E9205120D08
:100F900042EA93720A61C26EC2F3C2620A75C26EFD
:100FA000C2F302624A75C26EC2F342528A75C26EC1
:100FB000C2F38242CA75C26EC2F3C2320A760A69AD
:100FC000521C42650B7E03F007039B1C9A4042654E
:100FD0000B7A03F00F0704FA07F383655B0A5A43A1
:100FE000C0E917250EE090F86820C36E9206920AB9
:100FF00042EA13420A610A69521C92024265C0E940
:101000001652056630F86C2FC2F3803201F8192FA2
:101010000288C2F3C6124A70027802F07F028A7018
:101020004268D20FCA704268C2F341720A714268C4
:10103000C2F382624A714268C2F383528A71426883
:10104000C2F34052CA710E724268C2F300424A7241
:101050008288C2F3C0328A728288C2F38032CA7236
:101060008288C2F340320A738288C2F300324A7324
:101070008288C2F381228A738288C2F30122CA73F2
:101080000079C0F3460008744C740020F0BD0000E5
:10109000FF054000426C0A60826C4A60C26C8A6044
:1010A000026DCA60426D0A61826D4A61C26D8A61D9
:1010B000006EC8610020704770B50446B0F850005B
:1010C00000250104206800F0A0FD18B1A16B0143C8
:1010D000A16304E00021206800F005FC0546C5F38B
:1010E000432070BDF8B5056B04460068416B0904E8
:1010F0001BD5290719D5D4E90A56002E14D000278C
:10110000206800F013FC05F8010B010A05F8011B2B
:10111000010C05F8021B000E361F7F1C05F8010CA0
:10112000082FEDD3C4E90A56F8BD416B4FF0000615
:10113000C9054FF0010744D5390281632068C16BAE
:101140004CF23A329143C1632068C16A21F0010137
:10115000C16228071DD515F0220F09D0206800F0C4
:1011600085FD28B1A16B0143A1632046FFF7C4FEB2
:10117000216840F23A50886384F834702663A807E7
:1011800003D0204600F046FAF8BD204600F046FAAB
:10119000F8BD2806FCD5A80609D5206800F066FD34
:1011A00028B1A16B0143A1632046FFF7A5FEA80764
:1011B000EED12068C16A21F00801C16284F8347060
:1011C000E3E7416B490424D5290722D5D4E9085621
:1011D000002EDDD05FF0000715F8010B009015F828
:1011E000011B361F40EA0120009015F8021B40EA5F
:1011F0000140009015F8011C40EA0160009069462A
:10120000206800F0A6FB7F1C082FE5D3C4E9085630
:10121000F8BD416B40F23A221142F9D0416B890787
:1012200003D5A16B41F00201A163416B090703D50E
:10123000A16B41F00801A163416B890603D5A16B45
:1012400041F02001A163416BC90603D5A16B41F0B8
:101250001001A163416B890503D5A16B41F0080121
:10126000A16340F23A7181632068C16B40F23A3267
:101270009143C163206800F0F9FCA16B0843A063AF
:10128000280706D584F8347026632046FFF734FE1D
:10129000F8BD2806FCD515F0300F0CD0E16B1148D5
:1012A0000865E06BFFF754F90028F1D0E06BBDE86A
:1012B000F84000F077BEA8070CD0216C0A480865FA
:1012C000206CFFF745F90028E2D0206CBDE8F8401B
:1012D00000F046BEA66384F8347026632046FFF70C
:1012E0007BFDF8BDA51F0008611F000870B5040054
:1012F0000ED094F83400002518B92577204600F068
:101300004BF8032084F83400204600F00BF808B1B5
:10131000012070BDA5632563012084F834000020FE
:1013200070BD0000FEB50025044676200095CDE98D
:10133000015029460B460A46206800F0DDFA28BB1A
:10134000134E46F8A05F206800F0E8FA01253560EA
:10135000204600F02DFF28B184F83450A16B0143E2
:10136000A16313E0204600F0ACFE0028F4D14FF456
:101370000071206800F026FB002808D0226805498B
:101380009163A16B0143A16384F834500120FEBD39
:1013900000802542FF054000F0B587B004461421C7
:1013A0006846FEF7F7FF2149206888423BD1204874
:1013B0000024016841F400610160006800F40060ED
:1013C00005901B481438016841F004010160016870
:1013D00001F004010591016841F008010160006815
:1013E000022500F0080005904FF4F850CDE9000503
:1013F00002AA03260C2782E8D00069460D48FFF7B1
:10140000CBF80420CDE9000502AA694682E8D000A5
:101410000948FFF7C1F8002211463120FFF728FAEA
:101420003120FFF717FA07B0F0BD0000002C014093
:101430004438024000080240000C02402DE9F04F01
:1014400087B09B4616460D460446FFF7A3F9009069
:101450003DB194F83400012807D0A06B40F0005053
:101460000DE0A06B40F0006009E00020A063E26D99
:1014700006EB0B01914204D9A06B40F00070A06311
:1014800086E0032184F834102168C862616C012968
:1014900000D076024FF0FF3101914FEA4B210291CB
:1014A0004FF0010803AA902102278146CDF8188049
:1014B00082E8820201A9206800F0FFF9BBF1010F68
:1014C00005D927633146206800F010FB05E0C4F819
:1014D00030803146206800F022FBDFF834A130B1C3
:1014E0002268C2F838A0A16B0143A1634CE0029EC0
:1014F0001EE0406B000413D596B10027206800F071
:1015000015FA05F8010B010A05F8011B010C05F895
:10151000021B000E361F7F1C05F8010C082FEDD3AF
:10152000FFF738F90099411A109881421DD2E0B1B5
:101530002068426B40F22A310A42DAD0416BC90579
:1015400009D5BBF1010F06D9616C032903D000F066
:101550008DFB0028C4D12068416B09071AD5C0F85B
:1015600038A0A06B40F0080050E02168C1F838A016
:10157000A06B40F00040A06384F83480C4F8309041
:10158000032007B0BDE8F08F84F83480C4F83090B1
:101590000120F6E7416B890705D5C0F838A0A06B9C
:1015A00040F0020032E0416B89061BD5C0F838A03C
:1015B000A06B40F0200029E000F0B8F905F8010B1D
:1015C000010A05F8011B010C05F8021B000E05F8C5
:1015D000010C361FFFF7DEF80099411A109881427E
:1015E0000ED268B12068416B890201D5002EE3D18B
:1015F000216840F23A50886384F834800020C0E7C4
:101600002168C1F838A0A06B40F00040A063BBE7A0
:10161000FF05400010B5FEF763FF10BD10B5FEF7E3
:1016200071FF10BD2DE9F04F8DB09B4616460D465B
:101630000446FFF7AFF80A903DB194F83400012852
:1016400007D0A06B40F000500DE0A06B40F00060B0
:1016500009E00020A063E26D06EB0B01914204D982
:10166000A06B40F00070A0637AE0032184F834108E
:101670002168C862616C012900D076024FF0FF3109
:1016800003914FEA4B2104919021CDE905104FF0D1
:101690000109CDE90709824603A9206800F00DF988
:1016A000BBF1010F06D9202020633146206800F0ED
:1016B000F7FA05E0102020633146206800F009FBAE
:1016C0005FEA000806D0216840488863A06B40EAC2
:1016D000080071E0049E27E0406B40041CD5DEB199
:1016E0005FF0000715F8010B009015F8011B361F7D
:1016F00040EA0120009015F8021B40EA01400090EA
:1017000015F8011C40EA016000906946206800F06D
:1017100020F97F1C082FE5D3FFF73CF80A99411AFE
:101720001698814220D2F8B12068416B40F21A32FB
:101730001142D1D0416BC90523D5BBF1010F20D98E
:10174000616C03291DD000F091FAD0B122681F49C5
:101750009163A16B0143A16384F83490C4F830A075
:1017600001200DB0BDE8F08F216818488863A06B98
:1017700040EA0800A06384F83490C4F830A0032045
:10178000EFE72068416B090705D510498163A06B1D
:1017900040F0080010E0416B890705D50B498163D3
:1017A000A06B40F0020007E0416BC90606D507496F
:1017B0008163A06B40F01000A063CDE740F23A5186
:1017C000816384F834900020CBE70000FF054000DF
:1017D00010B5401EB0F1807F01D3012010BD4FF045
:1017E000E02460610F21601700F0F3FD0020A0618C
:1017F00007202061002010BDFEE7000010B504495D
:101800000448FEF782FE0249491E087010BD000020
:101810001B0000203437000830B587B0142168461B
:10182000FEF7B8FD19480024016841F0800101600D
:10183000016801F080010591016841F0010101603A
:10184000016801F001010591016841F004010160A6
:10185000016801F004010591016841F0080101608F
:1018600000680B4D00F00800059000220221284678
:10187000FEF78AFF022000900120CDE901046946AD
:1018800028460394FEF788FE07B030BD303802408A
:101890000000024006480549016000214160816066
:1018A000C16001614161032181617047002C0140E9
:1018B00038000020FEE7FEE770470A6842624A6887
:1018C0008262D1E902231A43D1E904310B43C16A90
:1018D0001A4321F0F7011143C162002070470068EC
:1018E00000F0030070470844406970470148FFF763
:1018F000F9BB00003800002070B50DF1100C114349
:101900009CE870002343194329434268314347F65A
:10191000FF639A430A434260002070BD10B5032163
:1019200001600220FEF726FE002010BDD0F88000E6
:1019300070470A688260D1E901231A43D1E9033173
:101940000B43C1681A436FF30B011143C1600020C0
:1019500070470968C0F880100020704710B586B045
:1019600004463720CDE9001040200290002003906B
:101970004FF48060049069462046FFF7DAFF41F299
:1019800088323721204600F0BDF906B010BD0000B6
:1019900010B504460A4886B001432920CDE900105D
:1019A00040200290002003904FF48060049069462C
:1019B0002046FFF7BEFF204600F05CFA06B010BDDF
:1019C0000000108010B586B004461020CDE900104C
:1019D00040200290002003904FF4806004906946FC
:1019E0002046FFF7A6FF41F288321021204600F082
:1019F00089F906B010BD10B586B004460620CDE9C1
:101A0000001040200290002003904FF4806004906A
:101A100069462046FFF78DFF41F2883206212046B5
:101A200000F070F906B010BD30B585B00024054651
:101A3000009401944FF480600294CDE9034069461C
:101A40002846FFF776FF0B484FF4FA510068B0FBC9
:101A5000F1F041F288314843401E03D24FF000407C
:101A600005B030BD696B0906F6D5C520A8632046D0
:101A7000F6E700002C00002070B585B004464FF456
:101A8000D570009001A908204025002681E861005A
:101A9000C001049069462046FFF74BFF12484FF4FF
:101AA000FA510068B0FBF1F041F288314843401E22
:101AB00003D24FF0004005B070BD616B11F0450FCF
:101AC000F5D00905F3D4606B400701D5042003E08D
:101AD000606BC00702D00120A063ECE7606B40069A
:101AE00000D5A5633046E6E72C00002010B586B08F
:101AF00004461220CDE900104020029000200390FF
:101B00004FF48060049069462046FFF712FF41F2CF
:101B100088321221204600F0F5F806B010BD10B54D
:101B200086B004461120CDE900104020029000202C
:101B300003904FF48060049069462046FFF7F9FE59
:101B400041F288321121204600F0DCF806B010BDC9
:101B500010B586B004460720CDE900204020029051
:101B6000002003904FF48060049069462046FFF700
:101B7000E0FE41F288320721204600F0C3F806B0AB
:101B800010BD10B586B0044600210220CDE900103A
:101B9000C020CDE902014FF48060049069462046E0
:101BA000FFF7C7FE204600F03DF906B010BD10B5A6
:101BB00086B004460920CDE90010C0200290002024
:101BC00003904FF48060049069462046FFF7B1FE11
:101BD000204600F027F906B010BD10B586B00446C7
:101BE00000213320CDE900104020CDE902010001A1
:101BF000049069462046FFF79CFE41F2883233216B
:101C0000204600F07FF806B010BD10B586B004463F
:101C10000D20CDE9001040200290002003904FF4E9
:101C20008060049069462046FFF783FE41F28832C7
:101C30000D21204600F066F806B010BD30B585B025
:101C40000C46054600210320CDE900104020CDE9D7
:101C500002010001049069462846FFF76AFE224609
:101C60000321284600F028F905B030BD10B586B034
:101C7000044600210C20CDE900104020CDE90201EE
:101C80000001049069462046FFF753FE034A0C21E9
:101C9000204600F037F806B010BD000000E1F50561
:101CA00010B586B004461920CDE9001040200290FE
:101CB000002003904FF48060049069462046FFF7AF
:101CC00038FE41F288321921204600F01BF806B098
:101CD00010BD10B586B004461820CDE90010402094
:101CE0000290002003904FF48060049069462046E3
:101CF000FFF71FFE41F288321821204600F002F85B
:101D000006B010BD454B10B51B684FF4FA54B3FB39
:101D1000F4F353435B1E02D24FF0004010BD426B00
:101D200012F0450FF6D01205F4D4426B520703D5DA
:101D300004218163084610BD426BD20702D0012105
:101D4000816305E0C52282630269D2B28A4201D072
:101D5000012010BD0021FFF7C6FD3149084201D125
:101D6000002010BD002802DA4FF0007010BD4100C5
:101D700001D5402010BD810001D5802010BDC100DB
:101D800002D54FF4807010BD010102D54FF40070F0
:101D900010BD410102D54FF4806010BDC10102D5D4
:101DA0004FF4006010BD010202D54FF4805010BD09
:101DB000410202D54FF4005010BD810202D54FF40C
:101DC000804010BDC10202D54FF4004010BD410358
:101DD00002D54FF4003010BD810302D54FF48020AE
:101DE00010BDC10302D54FF4002010BD010402D57F
:101DF0004FF4801010BD410402D54FF4001010BD07
:101E0000810402D54FF4800010BD000702D54FF4C5
:101E1000000010BD4FF4803010BD00002C000020E9
:101E200008E0FFFD12494FF4FA520968B1FBF2F1E4
:101E300041F288325143491E02D24FF000407047B0
:101E4000426B12F0450FF6D01205F4D4416B4907EE
:101E500003D50421816308467047416BC90703D04D
:101E60000121816308467047C521816300207047C6
:101E70002C0000200F494FF4FA520968B1FBF2F12F
:101E800041F288325143491E02D24FF00040704760
:101E9000426B12F0450FF6D01205F4D4416B49079E
:101EA00003D50421816308467047C5218163002062
:101EB000704700002C00002030B5204B4FF4FA543E
:101EC0001B68B3FBF4F341F2883463435B1E02D218
:101ED0004FF0004030BD446B14F0450FF6D02405A0
:101EE000F4D4436B5B0703D504218163084630BDFE
:101EF000436BDB0702D00121816303E00369DBB29E
:101F00008B4201D0012030BDC52181630021FFF744
:101F1000EAFC10F4604F04D0410406D54FF40050A1
:101F200030BD000C1080002030BD000402D54FF4FD
:101F3000805030BD4FF4803030BD00002C000020B8
:101F400010B5064C01202070FEF78EFA18B92078E3
:101F500020F001002070207810BD00001900002042
:101F600010B5846B40F23A50216888632046FFF731
:101F7000A3F8012184F8341000212163062801D040
:101F8000052805D12068FFF771FEA16B0843A06307
:101F9000A06B0028204602D0FEF7AEFF10BDFEF772
:101FA0001BFF10BD10B5846B40F23A502168886366
:101FB0002046FFF781F8012184F8341000212163C5
:101FC000062801D0052805D12068FFF74FFEA16B38
:101FD0000843A063A06B0028204602D0FEF78CFFC8
:101FE00010BDFEF7F9FE10BD2DE9F04788B00D4693
:101FF0000446FEF7CFFB0026824600960196374640
:1020000008212068FFF7DEFC002829D1B4F8500031
:1020100001042068FFF7A2FC002821D1401E4FF0E8
:102020000808CDE9020830204FF00209CDE9040983
:102030000120CDE9067002A92068FFF73EFC206868
:10204000FFF7CBFD00280BD16F462068416B11F0E4
:102050002A0F08D0416B09071AD5C0F8388008202C
:1020600008B0BDE8F087416B890205D5FFF75EFC3B
:1020700047F82600761C02E0416B8904EAD5FEF79A
:1020800089FBA0EB0A00401CDFD14FF00040E7E7DE
:10209000416B890703D5C0F838900220E0E7416B17
:1020A000890603D5202181630846D9E740F23A51D9
:1020B0008163019800BA2860009800BA6860002027
:1020C000CEE710B590B004460120ADF83800206886
:1020D000FFF705FC002854D0606C032842D020682C
:1020E000FFF74FFD00284AD100212068FFF7FBFBD6
:1020F000606704212068FFF7F6FBA06708212068CD
:10210000FFF7F1FBE0670C212068FFF7ECFBC4F858
:102110008000606C032825D00EA92068FFF78EFD93
:1021200000282CD1606C03281CD0BDF83800206535
:1021300001042068FFF73BFD002820D10021206822
:10214000FFF7D1FB606604212068FFF7CCFBA06697
:1021500008212068FFF7C7FBE0660C212068FFF725
:10216000C2FB206704212068FFF7BDFB000DE0647F
:1021700003A92046FEF7C2FE30B14FF0805010B0E8
:1021800010BD4FF08060FAE7B4F85000002302045D
:102190002068FFF7DDFC0028F1D104F1100007C82A
:1021A0008DE8070094E80F00FFF7A6FB0020E6E7A4
:1021B0002DE9F84F0026044600963546B0460068E3
:1021C000FFF732FC002827D12068FFF755FC4FF0BD
:1021D000805B4FF001094FF6FF7748B1A664206895
:1021E000FFF722FC002817D1A06C012802D020E0C4
:1021F000C4F8489000212068FFF7B0FB58B918E0F8
:1022000000212068FFF7AAFB002805D1514620686D
:10221000FFF7BEFB10B15846BDE8F88F00212068DB
:10222000FFF761FB05464FEAD0780098401C00900C
:1022300002E0DFF82CA00098B84202D2B8F1000FFB
:10224000DED00098B84202D34FF08070E4E7680017
:1022500002D5C4F8449000E066640020DCE700008A
:10226000000010C170B5064C054601202070FEF735
:1022700007F918B92846FFF763FE2070207870BD73
:102280001900002010B5124888B014460078C00725
:1022900002D0032008B010BDC1B1012905D0022928
:1022A00008D003290CD00420F4E76846FEF7D6F8DE
:1022B00006980AE06846FEF7D1F80798208005E006
:1022C0006846FEF7CBF80798400A20600020E1E757
:1022D0001900002070B51D46164608460124A31EAD
:1022E0002A463146FEF7ECF828B900BFFEF7BCF8E5
:1022F0000028FBD10024204670BDFFF721BE00005E
:1023000070B51D46164608460124A31E2A463146CE
:10231000FEF7E8F828B900BFFEF7A6F80028FBD1C1
:102320000024204670BD7047FEF73ABA30B593B02E
:1023300030216846FEF72EF814210CA8FEF72AF883
:102340001D480025016841F080510160006800F0DF
:10235000805011901948016841F480410160006883
:10236000022400F48040119001200390102004907A
:10237000009406940820CDE90750A820CDE909046F
:1023800007200B906846FEF771FB08B172B6FEE7B6
:102390000CA90F2081E831004FF4A0500F904FF4AA
:1023A0008050109005210CA8FEF794FA002801D067
:1023B00072B6FEE713B030BD4038024000700040F6
:1023C0000248016841F470010160704788ED00E047
:1023D000FEE70907090E002804DB00F1E02080F881
:1023E0000014704700F00F0000F1E02080F8141D89
:1023F0007047000010B504460020E070401E2063C6
:10240000204601F006F808B1042010BD04F2322085
:1024100000F0AAFFA0F52A41553901D0032010BDD4
:1024200094F83400E92805D0EB2814D194F836004C
:10243000902810D104F16A0000F08BFF0749B1EB3E
:10244000002F06D004F1860000F083FF0449884283
:1024500001D1002010BD022010BD000000464154F3
:1024600046415433F0B50022144D134605EB0214D7
:1024700026685EB10768BE4209D166688768BE42B9
:1024800005D1A4684669B44204D000E00123521C7F
:10249000022AEBD3022A01D069B904E04BB9022920
:1024A00007D01220F0BD05EB02108089B0F5807FC7
:1024B00001D00020F0BD1020F0BD00002021002040
:1024C00030B50021054B0C4603EB0112156885421F
:1024D00000D11460491C0229F6D330BD2021002010
:1024E0000268C06A938952895343B1FBF3F1001D1E
:1024F00004C81AB1914203D3891AF8E70020704743
:102500000068084470478269891E921E8A4201D879
:1025100000207047C26A408901FB002070472DE906
:10252000F04105680F00804606D000F02AFE022820
:1025300009D20120BDE8F0812E6916B1A869B04228
:1025400007D8012605E0411CF4D0A9698142F1D8E1
:102550003E463446A869641CA04202D80224022EDA
:102560000AD32146404600F00CFE38B10128E1D0E4
:10257000411CDFD0B442EDD10020DBE74FF0FF3645
:1025800032462146284600F05DFF30B957B1224659
:102590003946284600F056FF20B101280FD001240B
:1025A0002046C7E72C61D5E90501891E884201D87C
:1025B000401E6861287940F001002871F0E7344638
:1025C000EEE700002DE9F0410E4624300D68044688
:1025D0000B22202100F016FF0020014608272A5C6C
:1025E000401C202A12D92F2A0BD05C2A09D02E2A6F
:1025F00001D0B94214D30B2F22D02E2A20D10CE0C7
:10260000401C2B5C2F2BFBD05C2BF9D02844306076
:10261000B1B12078E5281FD020E008210B27DEE7A4
:10262000802A03D3114B1A4412F8802C10A300E027
:102630005B1C93F800C0BCF1000F04D09445F7D1A7
:102640000620BDE8F081A2F16103192B01D8203AE0
:10265000D2B26254491CC2E705202070202A01D85A
:10266000042000E00020E0720020EAE7583700086C
:10267000222A2B2C3A3B3C3D3E3F5B5D7C7F000099
:10268000401E022812D20A4901EB00118889B0F5D8
:10269000807F05D008B1401E80B2888110B103E070
:1026A0000020FAE7002008600020704702207047F1
:1026B000202100202DE9F04104460021056800F0AA
:1026C000DFF8002826D12846E16900F0A2FE0200CA
:1026D0001FD1206A017899B1C17A01F03F01A1713F
:1026E000C17A09070FD404F124010B2610F8013B2D
:1026F00011F8017BDB1B761E04D0002BF6D002E024
:10270000042206E02BB10021204600F005F802006B
:10271000D9D01046BDE8F0812DE9F047054647695C
:102720000468C0698946203710B1B7F5001F02D38D
:102730000420BDE8F087A189B7FBF1F201FB12711B
:1027400000295FD1401CE861A9694FF0000819B366
:10275000A0896289B7FBF0F0521E104252D1284680
:1027600000F00FFD064601281FD9701C36D0A06965
:10277000B04241D8B9F1000F12D02846A969FFF73D
:10278000CEFE06000FD0012E0FD0701C26D02046A2
:1027900000F088FF10BB0AE02089B0EB571F31D84A
:1027A000C5F81C80C4E70720C3E70220C1E7A2895F
:1027B000002104F1340000F025FE4FF000083146FE
:1027C0002046FFF7A0FE4FF0010920630DE000BF97
:1027D00084F80390204600F065FF08B10120A8E7C7
:1027E000206B08F10108401C206361894145EFD846
:1027F000216BA1EB0800206331462046AE61FFF754
:1028000082FEE8616F61A089B7FBF0F100FB1170F7
:1028100020443430286200208BE770B50446002144
:10282000066800F02DF80DE03046E16900F0F1FD9A
:1028300050B9206A0078E52809D040B1012120462E
:10284000FFF76AFF0028EFD0042807D007E03046E2
:10285000E16900F0DEFD050003D00FE0072005462A
:102860000CE020220021206A00F0CCFD0B2204F1B4
:102870002401206A00F0BCFD0120F070284670BDE4
:102880002DE9F04104680F460646B1F5001F3CD221
:10289000F8063AD17761B56825B92078032806D3C0
:1028A000A56A25B16089A18900FB01F812E02089A1
:1028B000B0EB571F29D9A06A12E0304600F061FC46
:1028C0000546401C1FD0022D1FD3A069A8421CD969
:1028D000A7EB080747452946EFD22046FFF713FE2E
:1028E000C6E9065088B1A189B7FBF1F10844F0614F
:1028F000A089B7FBF0F100FB117020443430306246
:102900000020BDE8F0810120FBE70220F9E700008C
:10291000084910B50B5C002253B901220A540A1869
:1029200001EB8000127A4068016810468847024631
:10293000104610BD4021002030B4054C231804EB94
:1029400080001B7A406804691846A44630BC604782
:102950004021002030B4054D2C1805EB8000247A6E
:10296000406885682046AC4630BC60474021002066
:10297000044A111802EB8000097A40684268084650
:10298000104700004021002030B4054D2C1805EB05
:102990008000247A4068C5682046AC4630BC604759
:1029A0004021002038B5044600F04AF900280CD137
:1029B0006946204600F09FFE002806D12069FFF7F7
:1029C0005FFE002801D10021216038BD2DE9F741CB
:1029D00081B0904602980090684600F048FC0400E0
:1029E00003D50B2004B0BDE8F0810D4E002756F84A
:1029F00024501DB12846FFF763FD2F700198002871
:102A000000D0077046F8240002D0B8F1010F01D0C1
:102A10000020E7E7002201A902A800F031FAE1E76F
:102A2000340000202DE9F74394B005000BD002F0EC
:102A30003F063246694615A800F022FA04004FF01E
:102A4000000804D0F3E0092017B0BDE8F083009837
:102A5000049004A8159900F057FB04000ED19DF8CE
:102A60003F00000601D5062408E0700801D00121CE
:102A700000E0002104A8FFF7F5FC044616F01C0F47
:102A80005DD04FF00109C4B1042C10D100206B4976
:102A900002E0401C022804D201EB00121268002A56
:102AA000F7D1022807D004A8FFF7B7FE044646F086
:102AB00008065CB1BBE01224B9E09DF8160010F0E6
:102AC000110F47D1700701D50824B0E0300747D572
:102AD00000F0CBFB07460C9839460E3000F092FD13
:102AE0000C983946163000F08DFD0C982021C172EB
:102AF0000C99009800F01AFC074600220C990098E7
:102B000000F06CFD0C9800211C3000F07BFD00995A
:102B100081F8039017B3D1F830900022394604A809
:102B200000F022FD040009D14946009800F071FC34
:102B300004000098A7F1010707610DD077E0ECBB16
:102B40009DF81600C10601D5042470E0B10703D535
:102B5000C00701D007246AE0300701D546F04006DF
:102B60000098006B68620C98A862700801D001217F
:102B700000E0002104A800F099FB2861C0B30C9983
:102B8000009800F0D3FBA8600C981C3000F0E1FB2B
:102B9000C5F82C80E86000992960009905F13000A3
:102BA0004FF48052C988A9802E7585F81580C5F824
:102BB000208000218146C5F8188000E037E000F051
:102BC00021FCB00635D5EE689EB3AE610098A968C9
:102BD0004789808947430FE0284600F0D2FA014632
:102BE000012800D80224481C03D0F61B24B105E0BC
:102BF00021E00124F61B01E0BE42EDD8E961B4B941
:102C000000988289B6FBF2F302FB13628AB1FFF7E8
:102C10007AFC80B1009901238A89B6FBF2F2024462
:102C20002A6248784946FFF795FE10B10124C5F89D
:102C30000080204608E70224F9E700002021002058
:102C4000F8B50446694600F056FD00280ED1217DF6
:102C50004A060BD508060ED50098226A0123407853
:102C600004F13001FFF790FE08B10120F8BD207D8E
:102C700000F07F00207500F0F8FA0646616A0098BF
:102C800000F0C7FB0028F1D1A56A2946E87A40F098
:102C90002000E872A268206800F0A0FC05F11C008A
:102CA000E16800F0AFFC314605F1160000F0AAFC27
:102CB000002105F1120000F0ADFC00980121C17067
:102CC00000F0ACFC217D01F0BF012175F8BD2DE9BC
:102CD000F04F884689B00021196099461546044690
:102CE00004A900F008FD002806D1607D002803D16A
:102CF000207D800703D4072009B0BDE8F08FA069CC
:102D0000012742194FF0020A04F1300B824200D22F
:102D1000C543ACE00498A1698289B1FBF2F302FBE0
:102D20001313002B79D1B1FBF2F64089401E064007
:102D300018D129B1E06A38B12046FFF7D1FB07E08E
:102D4000A06838B9002100E0E1692046FFF7E7FB01
:102D500000287ED001282FD0411C58D0E061A16806
:102D600001B9A060207D00060BD50498226A0123DA
:102D700040785946FFF708FEC0BB207D00F07F0079
:102D80002075E1690498FFF7BEFBA8B130440090BC
:102D900004988189B5FBF1F1029141B37218418920
:102DA0008A4201D9891B029140784146029B009AD0
:102DB000FFF7EAFDD0B903E084F815A002209BE7F5
:102DC000216A0098081A029988420AD204998A89CD
:102DD00000FB0281584600F00BFB207D00F07F00D5
:102DE000207504988689029846432FE00FE0FFE79C
:102DF000226A00998A420ED0E268A16991420AD201
:102E0000407801235946009AFFF7A4FD18B1677571
:102E1000012071E701E0009820620498A16980898F
:102E2000B1FBF0F200FB1212861AAE4200D92E4618
:102E3000B1FBF0F200FB1210204432464146303024
:102E400000F0D6FA207D40F080002075B044A069E3
:102E500000E00FE03044A061E168884200D80846F5
:102E6000E060D9F800008119AD1BC9F80010002DF1
:102E70007FF450AF207D40F04000207500203BE7FC
:102E80002DE9FF41002790460E460F6000F0EFF954
:102E9000050003D50B2004B0BDE8F081974850F839
:102EA00025409CB13460207808F0FE0620B160789F
:102EB000FFF75EFDC1070BD02770E8B2B84660701F
:102EC000FFF726FDC10708D00320E4E70C20E2E766
:102ED0000EB1400704D40020DDE71EB1400701D544
:102EE0000A20D8E7607804F10C020221FFF724FDE4
:102EF000F0BBA089A0F50071B1F5606F3FD8411E0D
:102F000008423CD1002631462046FFF773FA0228DA
:102F100022D100254FEA0D0704EB051090F8F611B9
:102F200000F5F97019B1083000F013FA00E0002044
:102F300047F825006D1C042DEED3002557F82560B9
:102F400036B131462046FFF755FA022801D203E098
:102F500003206D1C042DF1D3042810D0022878D250
:102F600004F13F0000F000FAA189884271D100E02D
:102F700005E004F14A0000F0F7F910B105E0012086
:102F800089E704F1580000F0E4F9E06194F8445056
:102F9000A570012D01D0022D5BD1454394F841006D
:102FA0006081E8B3411E084253D104F1450000F0AE
:102FB000DBF92081A1894909B0FBF1F201FB120084
:102FC00070BB04F1470000F0CFF9070004D104F111
:102FD000540000F0BEF9074604F1420000F0C4F9C5
:102FE000010036D0A08923894009B3FBF0F04A19CB
:102FF000024497422DD3B81A6789B0FBF7F078B135
:1030000003274FF6F57C604500D8022740F6F57C93
:10301000604500D801273244801C3144E26200E060
:1030200017E0A061C4E90861032F14D08BB12944D3
:10303000A162022F20D000F0010100EB400001EB63
:103040005000A189401E0844B0FBF1F0E1698842BC
:1030500014D90D201FE704F15E0000F085F9002867
:10306000F7D120890028F4D104F1600000F071F953
:10307000A062A0698000E4E74000E2E74FF0FF3083
:103080006061206180202071032F2CD104F1640045
:1030900000F06AF9012826D1711C204600F0B9F928
:1030A00008BB84F8048004F2322000F05DF9A0F53A
:1030B0002A41553917D104F1340000F04AF910497A
:1030C000884210D104F5067000F043F90D4988429A
:1030D00009D104F5077000F03CF9606104F508704F
:1030E00000F037F9206105482770001F0188491C4E
:1030F0000180E1802046FFF7E3F9ECE63400002090
:10310000525261417272416173B50446056801987B
:1031100001E0401C019001782F29FAD05C29F8D0F9
:103120000021A16001980078202806D2802084F830
:103130002F002046FFF7A4FB7CBD01A92046FFF726
:1031400041FA0028F8D12046FFF7B4FA94F82F107E
:1031500028B10428F0D14907EED405207CBD4907E9
:10316000FCD4A079C006F8D5A9896069B0FBF1F25A
:1031700001FB120041192846343100F0D7F8A06055
:10318000DBE72DE9F04104680D4602290BD3A06965
:10319000A84208D920784FF0FF36012807D002282E
:1031A00034D0032849D001263046BDE8F081A089FB
:1031B00005EB5507B7FBF0F0616A0144204600F0CB
:1031C00028F90028F0D1A089B7FBF0F100FB1171BC
:1031D0007F1CB7FBF0F0214491F83480616A014410
:1031E000204600F016F90028DED1A089B7FBF0F1E7
:1031F00000FB1170204490F8341048EA0120E907E0
:1032000001D00609D0E7C0F30B06CDE7A089616ABB
:103210004008B5FBF0F00144204600F0FAF8002821
:10322000C2D1A1896800B0FBF1F201FB1200204479
:10323000343000F099F80646B6E7A089616A800844
:10324000B5FBF0F00144204600F0E3F80028ABD1D4
:10325000A189A800B0FBF1F201FB12002044343038
:1032600000F077F820F070469EE70020704710B518
:1032700004464FF0FF302268002A13D0114600E0C8
:10328000491C0B78212B0ED33A2BF9D112F8013BB4
:10329000303B0A2B06D28A4204D1002B02D1491CB2
:1032A0001846216010BD002010BD0000F0B5024698
:1032B0001D4BD2F80050002003EB00142668AE42EC
:1032C00007D166689768BE4203D1A4685669B442C4
:1032D00002D0401C0228EFD3022814D1002002E0C3
:1032E000401C022804D203EB00142468002CF7D100
:1032F00002280ED003EB00142560956865605269C2
:10330000A2600022A281002903EB0011898902D06A
:1033100019B10020F0BD491C01E04FF4807103EBAE
:103320000012401C9181F0BD2021002070B506469E
:103330000D4601F11A0000F017F804463078032812
:1033400005D105F1140000F00FF844EA00442046CE
:1033500070BDC178827842EA01214278007842EA61
:10336000012140EA012070474178007840EA0120BD
:1033700070470000FDF71CFAFEF7D8FFFEF74CFA85
:10338000FEF788FAFEF73AFA002215491548FFF7CA
:103390001DFB154C0B2204F10D0120701348FFF7A3
:1033A00041FB20701148FFF7FDFA0F4933220D3120
:1033B0000E48FFF737FB20700B480830FCF7CBFFB7
:1033C000094B02461B1D191D0848FFF780FC2070A1
:1033D0000648FFF7E7FA6420FDF7CCF8E5E70000C0
:1033E0001B000020BC00002000000020F010002086
:1033F000002A05D011F8013B00F8013B521EF9D11B
:10340000704700005FFA81F100F8011B521EFBD1EA
:10341000704770B50446006B0D460026A8420FD0D9
:10342000204600F03FF906000AD1607801232A46C1
:1034300004F13401FFF78EFA08B1751E01262563E9
:10344000304670BD2DE9F047022617460D4604466A
:1034500002297DD3A069A8427AD920784FF00109CA
:10346000012804D0022840D003287AD154E0A18951
:1034700005EB5508B8FBF1F0616A01442046FFF7FF
:10348000C8FF06006DD1A189B8FBF1F201FB1280E3
:103490002044343008F10108E90704D00178FAB279
:1034A00062F31F1100E03946017084F80390A1898E
:1034B000B8FBF1F0616A01442046FFF7AAFF06005D
:1034C0004FD1A189B8FBF1F201FB128020443430C6
:1034D000E90702D0C7F3071105E00178C7F303221B
:1034E00001F0F0011143017039E0A089616A4008E0
:1034F000B5FBF0F001442046FFF78BFF060030D10A
:10350000A1896800B0FBF1F201FB12002044B9B2BE
:10351000343000F07FF822E0A089616A8008B5FBB2
:10352000F0F001442046FFF774FF060019D1A0898E
:10353000AD00B5FBF0F100FB115020443430FFF733
:1035400008FF67F31B000146A089B5FBF0F200E01D
:1035500007E000FB12502044343000F053F884F8A8
:1035600003903046BDE8F0872DE9F0410568134629
:103570000E46074602292DD3A869B0422AD93BB18D
:103580004FF0FF3219462846FFF75CFF00281FD195
:1035900031463846FFF7F5FD040018D0012C19D04C
:1035A000601C19D0002231462846FFF74BFF002847
:1035B0000ED1D5E90510821E914205D2491C6961E0
:1035C000297941F0010129712646B042E0D8002056
:1035D000BDE8F0810220FBE70120F9E770B50C4659
:1035E0000646154691B204F11A0000F013F830783F
:1035F000032806D1290C04F11400BDE8704000F046
:1036000009B870BD0170090A4170090A8170090A80
:10361000C17070470170090A4170704770B5044667
:1036200000F040F8050036D1207803282CD120790D
:10363000012829D104F13400A28900210646FFF7B0
:10364000E1FE4AF6552104F23220FFF7E3FF134969
:103650003046FFF7D7FF124904F50670FFF7D2FF97
:1036600004F507706169FFF7CDFF04F50870216963
:10367000FFF7C8FF226A0123521C2263607831469B
:10368000FFF782F900202071002260781146FFF7D1
:1036900053F900B10125284670BD00005252614126
:1036A000727241612DE9F0410446C0780027F8B1FB
:1036B000256B04F13401607801232A468846FFF720
:1036C00063F908B1012713E00020E070606AE16946
:1036D000281A88420CD2A67808E0E0690123054444
:1036E00060782A464146FFF74FF9761E022EF4D243
:1036F0003846BDE8F08170B50E4604004FF009056C
:103700000CD0206850B1017841B1A188C2889142A3
:1037100004D14078FFF72CF9C00703D000203060B7
:10372000284670BD00252068F9E74FF04070E1EEB3
:10373000100A704765220008FB220008D522000805
:10374000012300088522000800000000000000009E
:10375000010203040607080943554541414141431D
:1037600045454549494941414592924F4F4F55552D
:10377000594F554F9C4F9E9F41494F55A5A5A6A710
:10378000A8A9AAABACADAEAFB0B1B2B3B4414141A0
:10379000B8B9BABBBCBDBEBFC0C1C2C3C4C541413C
:1037A000C8C9CACBCCCDCECFD1D145454549494971
:1037B00049D9DADBDCDD49DF4FE14F4F4F4FE6E817
:1037C000E85555555959EEEFF0F1F2F3F4F5F6F7E7
:1037D000F8F9FAFBFCFDFEFF0100040010004000B8
:1037E00000010002000001000200040008001000B7
:1037F00020000000143800080000002038000000FD
:10380000C40100084C380008380000207827000068
:10381000E0010008000000000000000068656C0086
:1038200000444154413435362E7478740001000050
:103830000000000001000000100000000000000077
:0C3840000024F400000000000000000064
:040000050800018965
:00000001FF
