:020000040800F2
:10000000302A002031020008673800082335000834
:100010006538000827080008B54700080000000000
:10002000000000000000000000000000374300084E
:10003000C9080008000000006938000839430008BA
:100040004B0200084B0200084B0200084B0200085C
:100050004B0200084B020008CB0800084B020008C6
:10006000D10800084B0200084B0200084B020008B0
:100070004B0200084B0200084B0200084B0200082C
:100080004B0200084B0200084B0200084B0200081C
:10009000290800084B0200084B0200084B02000828
:1000A0004B0200084B0200084B0200084B020008FC
:1000B000F54300084B0200084B0200084B02000801
:1000C0004B0200084B0200084B0200084B020008DC
:1000D0004B020008954700084B0200084B0200083D
:1000E0004B0200086D3800084B0200084B02000864
:1000F0004B0200084B0200084B0200084B020008AC
:100100004B020008FD3800084B0200084B020008B3
:100110004B0200084B0200084B0200084B0200088B
:100120004B0200084B0200084B020008350800088B
:100130004B0200084B0200084B0200084B0200086B
:100140004B0200084B0200084B0200084B0200085B
:100150004B020008410800084B0200084B0200084F
:100160004B0200084B0200084B0200084B0200083B
:100170004B0200084B0200084B0200080000000080
:100180004B0200084B02000800F002F800F041F8B2
:100190000AA090E8000C82448344AAF10107DA45E2
:1001A00001D100F036F8AFF2090EBAE80F0013F0F3
:1001B000010F18BFFB1A43F001031847845A0000CF
:1001C000A45A0000103A24BF78C878C1FAD8520760
:1001D00024BF30C830C144BF04680C6070470000C1
:1001E0000023002400250026103A28BF78C1FBD840
:1001F000520728BF30C148BF0B607047642900F028
:10020000EB80002070471FB505F0A3FC1FBD10B5A3
:1002100010BD00F078FA1146FFF7F5FF05F0A2FADD
:1002200000F096FA03B4FFF7F2FF03BC00F09EFA69
:100230000948804709480047FEE7FEE7FEE7FEE77A
:10024000FEE7FEE7FEE7FEE7FEE7FEE704480549B6
:10025000054A064B70470000D94300088901000891
:1002600030240020302A00203026002030260020B4
:1002700053EA020C00F069802DE9F04B4FF00006C4
:10028000002B1FBFB3FA83F503FA05F424FA05F631
:100290005E4012BF1643B2FA82F502FA05F4C5F1C8
:1002A00020051EBF22FA05FC44EA0C04203556EA5C
:1002B000044C4FEA144418BF641C4FF000084FF080
:1002C0000009904271EB030C39D3002919BFB1FA30
:1002D00081F701FA07F6B0FA80F700FA07F6C7F1DE
:1002E00020071EBF20FA07FC46EA0C062037B6FBA3
:1002F000F4FCA7EB0507103F07F01F0BCBF120061E
:100300000CFA0BFB2CFA06F644BFB3460026202F4E
:10031000A4BF5E464FF0000B5BEA060C08BF4FF02F
:10032000010B19EB0B09ABFB027C48EB0608C01B69
:1003300006FB02CC0BFB03CC71EB0C01C1E70B46B7
:10034000024641464846BDE8F08B13B54FF0000029
:100350004FF00001AFF30080BDE81C407047000083
:100360000FB41CB5074B06AA7B446946009005985C
:1003700000F0B1F90020694600F0C0F91CBC5DF83E
:1003800014FB00009103000070B504468569006805
:10039000C10601D5302600E02026C00707D070BD79
:1003A000D4E9012130469047206A401C20626D1E2E
:1003B000F6D570BD70B5044685690078C00707D1D1
:1003C00070BDD4E9012120209047206A401C2062A2
:1003D0006D1EF6D570BD00002DE9F04106460024E3
:1003E00010687529314616A510D0AFF3008000289B
:1003F00002DA404213A507E031688A0701D512A549
:1004000002E0490704D511A5012401E0AFF3008003
:1004100000210A2206F1240709E0B0FBF2FCB0FB40
:10042000F2F302FB1C00303078541846491C0028B7
:10043000F3D123462A463046BDE8F04100F0EDB83E
:10044000000000002D0000002B0000002000000034
:100450002DE9F05F894604464FF0000ADFF824B129
:10046000FB44C0F820A02046E168884700287DD0E2
:10047000252806D0D4E901219047206A401C20623B
:10048000F1E700255F462046E168884720280646B8
:1004900007DB312E05D2B81910F8200C08B105433E
:1004A000F1E7A80701D525F00405C4F81CA0002732
:1004B000C4F818A02A2E09D0304604F08CF938B3BD
:1004C00004EB8708303EC8F8186019E059F8041B9F
:1004D000204604EB87029161E1688847012F0646B8
:1004E00018D1E069002820DA25F020051DE0D8F8B1
:1004F000180000EB800006EB40003038C8F8180008
:100500002046E1688847064604F065F90028EED1E8
:10051000012F0AD02E2E08D12046E16888477F1C83
:100520000646022F45F02005C4DBA069002803DA47
:10053000404245F00105A061E80701D025F0100513
:10054000A6B1A6F14100192802D8203645F400656D
:100550004A463146204625604D46FFF74FFE60B1C2
:10056000012807D0ED1D25F0070000E007E000F1AD
:10057000080978E705F1040975E730467AE7206A4B
:10058000BDE8F09FC857000010B5431C02E010F80A
:10059000011B71B18107FAD14FF0013202C88C1AE8
:1005A0008C4314EAC211F9D0C01A0A0603D0C01E47
:1005B00010BDC01A10BD0A0401D0801E10BD090272
:1005C000FCD0401E10BD4FF0000200B5134694460B
:1005D0009646203922BFA0E80C50A0E80C50B1F19B
:1005E0002001BFF4F7AF090728BFA0E80C5048BFAF
:1005F0000CC05DF804EB890028BF40F8042B08BF4D
:10060000704748BF20F8022B11F0804F18BF00F848
:10061000012B70477047704770472DE9F0470D4632
:1006200099469246044600F124080168880604D5DC
:10063000E06921F01001216000E00120A84201DD05
:10064000471B00E00027A1697A1902EB0900081A8C
:10065000A0612078C00602D42046FFF795FE002650
:1006600008E0D4E901211AF806009047206A401CEE
:10067000761C20624E45F4DB2078C0060AD5204661
:10068000FFF782FE06E0D4E9012130209047206A7E
:10069000401C2062381EA7F10107F4DC07E0D4E912
:1006A000012118F805009047206A401C2062281E8E
:1006B000A5F10105F3DC2046FFF77CFE207800065B
:1006C00002D50220BDE8F0870120FBE701694A1C42
:1006D00002610878704700B58FB0CDE90131002183
:1006E000059105497944CDE9031011466846FFF7A5
:1006F000AFFE0FB000BD0000E5FFFFFF0A6802F883
:10070000010B0A607047754600F02CF8AE460500F4
:100710006946534620F00700854618B020B5FFF71C
:1007200095FDBDE820404FF000064FF000074FF068
:1007300000084FF0000B21F00701AC46ACE8C009FF
:10074000ACE8C009ACE8C009ACE8C0098D46704708
:1007500010B50446AFF300802046BDE81040FFF717
:1007600061BD000000487047D023002001491820D7
:10077000ABBEFEE726000200704770470146014805
:1007800001F0D2BE7001002010B5044801F0DEFE79
:10079000042801D0012010BD002010BD70010020F0
:1007A00010B500F015F8012801D0012010BD074850
:1007B00001F0E6FF040006D14FF40061034801F0A8
:1007C00059FD00B10124204610BD00007001002039
:1007D00008B501208DF800009DF8000008BD00005C
:1007E00038B50024009313460A460146034802F038
:1007F000CFF800B10124204638BD00007001002070
:100800007047000038B50024009313460A4601469D
:10081000034802F0B1F900B10124204638BD0000C0
:10082000700100207047FEE7014800F0EEB80000BC
:10083000D4000020014800F033BB0000F401002088
:10084000014800F02DBB000054020020016818236D
:10085000CAB2103AB2FBF3F2054B6FF30901032A57
:100860009B5CC36500D9091D81650846704700007F
:10087000705B000810B5014600208B698A6A4FF052
:10088000C07453B1B3F5005F15D072B1012A0CD01A
:10089000022A0AD0032A09D104E01AB1012A06D09B
:1008A000022A03D1C96AC90100D5012010BDC96A55
:1008B000A142FAD010BD002AF7D0012AF2D0022AB4
:1008C000F3D0032AF3D010BD7047012000F084BCA0
:1008D000042000F081BC72B6FEE70022AFF3008076
:1008E00030B50E4B054601205C7A002C14D1587AA5
:1008F0001C54587A03EB800045605D7A03F10800D0
:100900002A54587A421C5A72303008703A20487083
:100910002F208870CC70002030BD0000C423002040
:10092000704730B590F82040012C05D0022C03D040
:10093000416A41F480215DE00468002955D02469B2
:10094000A40754D04FF4D874056804EB01142D5952
:1009500015F00405956005682D594ED0ED085560D9
:1009600005682C5904F00204D4604FF4DA74056869
:1009700004EB01142D5905F00F05156105682D597B
:10098000C5F30725956105682C59240C54614FF473
:10099000DC72046802EB0112A4581C700468A458AD
:1009A000240A5C700468A458240C9C700468A25843
:1009B000120EDA704FF4DE72046802EB0112A458D2
:1009C0001C710468A458240A5C710468A458240C9F
:1009D0009C710468A258120EDA71006881B1016935
:1009E00041F020010161002030BDE468A8E7416AC0
:1009F00041F400114162012030BD6D0D1560AFE77B
:100A0000C16841F02001C160EDE72DE9F05F0546C6
:100A1000006800244669D0F804908768D0F80CB0CC
:100A2000D0F810A0D0F81880F10748D0F90714D0FA
:100A300001218160B80703D5284600F0CFF90CE00A
:100A4000780702D54FF4006407E0380702D54FF469
:100A5000805402E0284600F0C0F9F80516D5296850
:100A60004FF480708860B80503D5284600F0B8F9C7
:100A70000CE0780502D544F4005407E0380502D5AF
:100A800044F4804402E0284600F0A9F9F80316D5A2
:100A900029684FF480308860B80303D5284600F0F9
:100AA000A1F90CE0780302D544F4004407E03803D0
:100AB00002D544F4803402E0284600F092F9300771
:100AC00007D55FEACB6004D52968102044F4007490
:100AD000C86070074FF0080707D55FEA0B7004D5B0
:100AE0002868C760284600F059F9B00706D528687D
:100AF000C068800702D0284600F052F9700607D57A
:100B00005FEACA6004D52968102044F48064086153
:100B1000B00607D55FEA0A7004D528680761284641
:100B200000F058F9F00606D528680069800702D061
:100B3000284600F050F9B00308D55FEAC96005D532
:100B4000296810204860284600F046F9F00307D5D0
:100B50005FEA097004D528684760284600F043F929
:100B6000300446D55FEA497040D5F00504D55FEA08
:100B7000C87001D044F00104B00504D55FEA887064
:100B800001D544F00204700504D55FEA487001D530
:100B900044F00404300529D518F0700F26D008F071
:100BA0007000402815D006DC102809D020280AD073
:100BB000302816D10AE050280ED0602811D10EE05E
:100BC00044F008040DE044F010040AE044F020046E
:100BD00007E044F0400404E044F0800401E044F401
:100BE00080742868816921F070018161296804207E
:100BF0004860002C05D0686A204368622846FFF7E9
:100C00008FFEBDE8F09F70B5040003D094F820007B
:100C100010B104E0012070BD204600F081F820688A
:100C2000016841F00101016000F0ECFB054605267A
:100C300004E000F0E7FB401B0A2811D82068406858
:100C4000C007F6D02068016821F00201016000F0C1
:100C5000D9FB05460BE000F0D5FB401B0A2806D95E
:100C6000606A40F40030606284F82060D2E7206857
:100C700040688007EFD4207E0128206801683DD0BD
:100C800021F080010160607E01282068016838D071
:100C900021F040010160A07E01282068016833D066
:100CA00021F020010160E07E0128206801682ED03B
:100CB00041F010010160207F01282068016829D0DF
:100CC00021F008010160607F01282068016824D0BC
:100CD00021F004010160D4E902010843D4E90412BF
:100CE000114308436168491E08432168C861002018
:100CF0006062012084F82000002070BD41F0800176
:100D0000C0E741F04001C5E741F02001CAE721F00A
:100D10001001CFE741F00801D4E741F00401D9E721
:100D200010B586B0044614216846FFF74CFC1849FC
:100D30002068884229D117480021026842F00072D9
:100D40000260006800F000700590124810380268D8
:100D500042F001020260006800F0010005904FF4CB
:100D6000C05000900220CDE901010320039009202A
:100D700004906946084800F03BFA0022114614200E
:100D800000F0A8FC142000F097FC06B010BD000095
:100D900000640040403802400000024070470000FC
:100DA00010B5094B094A0021FFF7BBFD08B172B627
:100DB000FEE70648044938390088C880BDE810407D
:100DC0000221034800F011BB38000020B8000020C9
:100DD0000000024070477047704770477047704787
:100DE00070477047704770472DE9F0410446876DA2
:100DF00000F008FB064694F835000025022806D0CE
:100E00008020606584F834500120BDE8F0812068BE
:100E1000016821F0160101602068416921F080011C
:100E20004161206C08B9A06C20B12068016821F0F4
:100E3000080101602068016821F0010101600CE0F7
:100E400000F0E0FA801B052807D920206065032008
:100E500084F8350084F83450D7E720680068C0076C
:100E6000EED194F85C103F208840B860012084F8EF
:100E7000350084F834500020C7E790F83510022977
:100E800003D08021416501207047052180F835108D
:100E90000068016821F00101016000207047000036
:100EA0002DE9F84304464FF00009CDF8009063485F
:100EB0004FF41651A56D0068B0FBF1F72E6894F859
:100EC0005C10082000FA01F131420FD021680A6855
:100ED00052070BD50A6822F004020A6094F85C10ED
:100EE0008840A860606D40F00100606594F85C1077
:100EF0004FF0010808FA01F0304208D02168496932
:100F0000090604D5A860606D40F00200606594F8A1
:100F10005C1004208840304208D0216809688907A5
:100F200004D5A860606D40F00400606594F85C1022
:100F300010208840304218D021680968090714D56C
:100F4000A86020680168490304D50068000308D53B
:100F5000A16C07E00168C90503D4016821F008010C
:100F60000160216C09B12046884794F85C1020206C
:100F70008840304231D021680968C9062DD5A86063
:100F800094F8350005282068016806D0490347D544
:100F9000006800031DD4616C1CE021F016010160A3
:100FA0002068416921F080014161206C08B9A06C82
:100FB00020B12068016821F00801016094F85C10FC
:100FC0003F208840A86084F8358084F83490216DF3
:100FD0001FE0E16B09B120468847606D00282BD0E7
:100FE000606DC00714D0052084F8350020680168C2
:100FF00021F0010101600098401C0090B84203D824
:1010000020680068C007F6D184F8358084F83490F1
:10101000E16C002910D001B02046BDE8F04308473C
:101020000168C905D5D4016821F01001016084F878
:10103000358084F83490CCE7BDE8F8836000002068
:101040002DE9F041044600F0DDF906465CB10220CE
:1010500084F83500002584F834502068016821F0B8
:10106000010101600DE00120BDE8F08100F0CAF946
:10107000801B052805D920206065032084F83500F1
:10108000F2E720680068C007F0D1226811682048A4
:101090000140D4E901031843D4E90336334318432C
:1010A00063691843A3691843E3691843236A184323
:1010B0000843616A042903D1D4E90B131943084397
:1010C000106020684069666A20F0070130460E43D0
:1010D000012704280CD1A06A0643E06A40B12046EB
:1010E000FFF7C8FB20B14020606584F83570BAE78F
:1010F000206846612046FFF7A9FB94F85C203F2159
:1011000091408160656584F835700020ACE700008F
:101110003F8010F070B5044600F074F90546601C7D
:1011200002D004480078044400F06CF9401BA0424F
:10113000FAD370BD5400002070B5042836D10421C4
:101140001B4800F04DF91B4C1B4D40B10020A07016
:1011500002462846BDE87040202100F04EB901202B
:10116000A070227815A11A48FFF7FAF81149332226
:101170004031184803F04EFEE0701548FFF704FABE
:101180000C4B02460C331249124803F098FFE070F2
:10119000104803F0FFFD1420FFF7BCFF01222021BF
:1011A000284600F02AF92078401C207070BD00000D
:1011B00000100240000000200000024025642D2D98
:1011C0002D2D2D2D2D2D2D2D2D2D2D2D2D0A0000CC
:1011D0008000002074130020044910B50A68024200
:1011E00002D00860FFF7A8FF10BD0000143C0140CA
:1011F0002DE9F84FDFF8BCA1002201250AF1040B0C
:1012000003264FF00F090BF1040E00BF0B6805FA1F
:1012100002F42340A34270D10F7907F00307012F96
:1012200001D0022F16D187684FEA420806FA08FC5F
:1012300027EA0C07D1F80CC00CFA08FC4CEA070CA2
:10124000C0F808C04768A7430C79C4F30014944061
:101250003C4344600C79E443A4070AD0C4684FEAD5
:10126000420C06FA0CF7BC438F6807FA0CF72743C9
:10127000C7600C7904F00304022C12D1D40800EBEF
:10128000840CDCF820405707FF0E09FA07F824EA1F
:101290000804D1F8108008FA07F848EA0408CCF8E6
:1012A000208004684FEA420C06FA0CF7BC430F7921
:1012B00007F0030707FA0CF7274307604C6814F49C
:1012C000403F70D03C4C276847F480472760246833
:1012D00022F0030704F480440094384C07EB040C1C
:1012E000DCF8084897074FEA177809FA08F7BC4373
:1012F000334FB84202D1002724E054E0314FB842C6
:1013000001D101271EE0304FB84201D1022719E078
:101310002E4FB84201D1032714E02D4FB84201D11E
:1013200004270FE02B4FB84201D105270AE02A4FCE
:10133000B84201D1062705E0284FB84201D107275E
:1013400000E0082707FA08F72743CCF80878DAF80E
:1013500000405746D1F804C09C435FEACC3C00D51E
:101360001C433C60DBF800405F46D1F804C09C435E
:101370005FEA8C3C00D51C433C60DEF800407746B9
:10138000D1F804C09C435FEACC2C00D51C433C60E0
:10139000084F0C373C68D1F804C09C435FEA8C2CA2
:1013A00000D51C433C60521C102AFFF42FAFBDE84F
:1013B000F88F0000003C01404438024000300140FA
:1013C000000002400004024000080240000C0240FD
:1013D000001002400014024000180240001C0240AD
:1013E0000069084000D001207047426921EA0203E9
:1013F0000A4043EA0241816170470AB18161704746
:101400000904FBE701488068704700005400002091
:1014100070B5040025D094F83D00002520B984F86B
:101420003C50204600F0B8F8242084F83D002068A5
:10143000016821F0010101602068016841F4004168
:1014400001602068016821F40041016000F0ACFAFD
:101450004D4A6168914201D84C4900E04C498842AC
:1014600001D2012070BD4B492368B0FBF1F15E68E9
:1014700026F03F060E435E606368934206D94FF440
:10148000967359434FF47A73B1FBF3F12368491C07
:101490001E6A26F03F06314319626168914210D8F6
:1014A0004900401EB0FBF1F2521CC2F30B02042AA9
:1014B00001D2042022E0B0FBF1F0401CC0F30B008D
:1014C0001CE0A268F2B301EBC10303EB0116431E5B
:1014D000B3FBF6F35B1C43F480431B0549D092B386
:1014E00001EBC10202EB0111401EB0FBF1F0401C08
:1014F000C0F30B0040F4804040F400402168CA690A
:101500004CF6FF739A431043C861D4E907100143B6
:101510002068026822F0C00211430160D4E903018F
:1015200001432068826848F2FF339A431143816087
:10153000D4E9050108432168CA6822F0FF0210437C
:10154000C86001E00EE016E02068016841F001018A
:1015500001602564202084F83D00256384F83E5016
:10156000002070BD01EB4106431EB3FBF6F35B1C8C
:10157000B3E70120C2E701EB4101401EB0FBF1F0EF
:10158000401CC0F30B00B7E7A086010080841E005A
:1015900000093D0040420F0010B586B004461421FA
:1015A0006846FFF710F814492068884221D1134893
:1015B000016841F0020101600068694600F0020024
:1015C00005904FF44070009012200190012002908D
:1015D00003200390042004900948FFF709FE074800
:1015E0001030016841F400110160006800F400103F
:1015F000059006B010BD0000005400403038024095
:1016000000040240024881680278114481607047FA
:10161000540000200B4810B5016841F400710160CE
:10162000016841F480610160016841F480710160EA
:10163000032000F06FF8002000F006F800F024F816
:10164000002010BD003C024070B50D4D04464FF423
:101650007A712878B1FBF0F00A490968B1FBF0F023
:1016600001F060FB48B9102C07D200222146501E21
:1016700000F030F800206C6070BD012070BD0000EB
:1016800054000020600000200A4808B5016841F4B9
:1016900080410160006800F4804000900548001F10
:1016A000016841F080510160006800F080500090B6
:1016B00008BD000044380240002809DB00F01F028A
:1016C000012191404009800000F1E020C0F80011A4
:1016D00070470000F0B40E4B1B680C46C3F30223A6
:1016E000C3F10705042D00D90425191D072901D2CE
:1016F000002300E0DB1E012606FA05F1491E214009
:1017000099409E40761E16403143F0BC03F053B81A
:101710000CED00E0064900F0070208684FF6FF03F1
:10172000184040EA0220034A104308607047000056
:101730000CED00E00000FA052DE9F84305460068CD
:101740004FF00109C1074FF0000601D1400727D52E
:10175000DFF80C81C8F86860FFF754FE0746414C7B
:1017600005E000BFFFF74EFEC01B022857D82068D7
:101770000001F7D468688101287A41EA007039498C
:1017800084310860C8F86890FFF73CFE074604E023
:10179000FFF738FEC01B022841D820680001F7D5AA
:1017A0002878800752D52F484030016841F0805199
:1017B000016000682C4C00F080500090206840F4DC
:1017C00080702060FFF71EFE074604E0FFF71AFE58
:1017D000C01B022823D82068C005F7D5214C7034DF
:1017E000206810F4407020D0A98901F44071814232
:1017F0001BD020681D4920F44070C1F800900E6095
:1018000020602068C00710D0FFF7FCFD064641F2BB
:10181000883707E0FFF7F6FD801BB84202D90320A6
:10182000BDE8F88320688007F4D5E9680D48C1F366
:1018300001220830032A0BD0016821F4F81101605D
:101840002068A989C1F30B01084320600020E7E765
:101850000268074B22F4F81219400A430260EFE7CE
:10186000000047420038024000700040400E4742EE
:10187000FFFCFF0F2DE9F0470E46050065D0DFF8AD
:101880001481D8F80000F7B200F00700B04207D288
:1018900088F80070D8F8000000F00700B04254D17A
:1018A00028683D4C810712D5400703D5206840F4D5
:1018B000E05020602878000703D5206840F460409D
:1018C00020602068A96820F0F00008432060287894
:1018D000C0072DD0304968680839012812D0022885
:1018E00013D0032811D00968890700292DDA21684F
:1018F00021F0030101432160FFF784FD814641F29D
:10190000883A0EE009688903EFE709688901ECE786
:10191000FFF778FDA0EB0901514502D90320BDE88E
:10192000F0872068696800F00C00B0EB810FEFD100
:10193000D8F80010404601F00701B14207D90770FE
:10194000006800F00700B04201D00120E7E72878E6
:10195000400705D52068E96820F4E050084320607E
:101960002878000706D52068296920F4604040EAFD
:10197000C100206000F038F82168084AC1F3031163
:10198000515CC8400649086006480068FFF75CFEE5
:101990000020C4E7003C024008380240785B0008A1
:1019A00060000020580000200448054900680968CC
:1019B000044AC1F38221515CC84070476000002096
:1019C00008380240885B0008044805490068096837
:1019D000044AC1F34231515CC840704760000020A6
:1019E00008380240885B0008154810B5006810F000
:1019F0000C02144813D04110042A0FD0082A0ED12B
:101A00000F4C241F2268236802F03F025B0207D5B7
:101A10002068C0F38810A0FB010106E0084610BD55
:101A20002168C1F38811A1FB00010023FEF720FC0F
:101A30002168C1F30141491C4900B0FBF1F010BD20
:101A4000083802400024F4002DE9F84F04006ED05D
:101A50002078DFF84C93C007A9F104054AD009F1BA
:101A600004000168C1F38101012908D00068C0F3B6
:101A7000810002280AD1D9F80000400206D5286862
:101A8000800337D560680028E1D033E06068B0F5A6
:101A9000803F10D0B0F5A02F286810D020F48030FF
:101AA0002860286820F4802028606068A8B1FFF7CB
:101AB000A9FC06460DE0286840F48030F4E740F4C5
:101AC00080202860F7E700BFFFF79CFC801B64289C
:101AD00073D828688003F7D50CE0FFF793FC06461F
:101AE00005E000BFFFF78EFC801B6428F0D8286853
:101AF0008003F7D42078DFF8AC8280074FF0000A2B
:101B00003ED5A748001D016811F00C0F08D00068F1
:101B1000C0F3810002280BD1D9F80000400207D49D
:101B20002868800716D5E068012800D112E033E16B
:101B3000E068B8B10120C8F80000FFF763FC064672
:101B400005E000BFFFF75EFC801B0228C0D82868B4
:101B50008007F7D52868216920F0F80040EAC10025
:101B600028600DE0C8F800A0FFF74CFC064604E032
:101B7000FFF748FC801B02281FD828688007F7D48D
:101B80002078000722D5864F87486169703771B188
:101B900001210160FFF736FC064604E0FFF732FC46
:101BA000801B022809D838688007F7D50EE0C0F8F6
:101BB00000A0FFF727FC064605E082E0FFF722FCC5
:101BC000801B02287DD838688007F7D4207840072A
:101BD00068D5DFF8CCB100270BF13C0BDBF8000037
:101BE000C0000BD4DBF8001041F08051CBF800109E
:101BF000DBF80000012700F0805000906B4E306849
:101C0000C00510D4306840F480703060FFF7FAFBF4
:101C1000009005E0FFF7F6FB0099401A022850D823
:101C20003068C005F6D55E4EA0686C3601280FD02E
:101C30000528306810D020F001003060306820F0B6
:101C400004003060A068B8B1FFF7DCFB00900FE043
:101C5000306840F00100F4E740F004003060F7E73E
:101C6000FFF7D0FB0099411A41F28830814266D8D3
:101C700030688007F4D50EE0FFF7C4FB009007E062
:101C8000FFF7C0FB0099411A41F28830814256D8D3
:101C900030688007F4D42FB1DBF8001021F08051B8
:101CA000CBF80010A069C8B33D49091D0968C1F30C
:101CB000810102294AD00228504607D0C8F86000A6
:101CC00000E03CE0FFF79EFB04463BE04746C8F8D7
:101CD0006000FFF797FB064605E000BFFFF792FBA9
:101CE000801B02282BD828688001F7D4D4E907018B
:101CF0000843A16A2E4A490802EB0141626A41EA9F
:101D00008211084394F82C1040EA0161C9F80010D0
:101D100001203866FFF776FB044606E03EE000BF90
:101D2000FFF770FB001B022809D828688001F7D54F
:101D300034E000BFFFF766FB001B022802D9032036
:101D4000BDE8F88F28688001F4D427E00128F7D097
:101D5000D9F80000E26900F4800191421CD1226AA6
:101D600000F03F01914217D147F6C071626A01400D
:101D7000B1EB821F10D1A26A4FF0FF3300F4403163
:101D800003EB5202B1EB024F06D194F82C1000F095
:101D90007060B0EB016F01D00120D1E70020CFE7E8
:101DA0000438024000004742800E47420070004065
:101DB0000000FFFF7047704710B504460068816857
:101DC000C9040CD5C068C00509D52046FFF7F3FF4C
:101DD0002068C16801F0800161F4C071C1602068B1
:101DE000816889040CD5C068800509D52046FFF7B5
:101DF000E1FF2068C16801F0800161F42071C160D9
:101E000003494FF4003008600120607710BD0000E6
:101E1000143C014070B5040002D0607F10B106E0B0
:101E2000012070BD00202077204600F049F80220F4
:101E300060772168CA2048622168532048622046A2
:101E400001F026FDFF25042618BB206881681B4A87
:101E5000114081602168886862681043D4E90423D6
:101E60001A43104388602168E068086120680169AE
:101E7000228941EA024101612068C16821F08001A4
:101E8000C16020688068800607D4204600F0D2F93F
:101E900018B1206845626677C2E72068016C21F4BA
:101EA000802101642068016CA269114301642068EB
:101EB000456201206077002070BD0000BFFF8FFFEA
:101EC0001FB50021009101910291039100680C4916
:101ED000884214D102200090000203906846FFF768
:101EE0002BFC08B1FEF7F7FC064901200860002230
:101EF00011462920FFF7EEFB2920FFF7DDFB1FBD70
:101F0000002800403C0E4742F8B503465A480C46AC
:101F10004FF4FA410068B0FBF1F0491148430090DA
:101F2000187F012863D001261E7702205877186891
:101F30000025002A80684FEA40605AD0002800DB64
:101F4000E570A0782278E77840EA02406278E1699B
:101F5000120242EA0742104394F8202040EA02604D
:101F600008436169A269084361681F681143CA2276
:101F70007A621F6853227A62626AFF27B2F5807F15
:101F80001A684FF0030C94684ED024F400749460E7
:101F90001A68D46804F0800464F42074D4601A6869
:101FA000009CB4F1010ECDF800E05ED3D468A40724
:101FB000F6D51062186881641868816841F4007170
:101FC00081601868816841F4005181602B48016884
:101FD00041F40031016029480830016841F40031C2
:101FE0000160186847625E771D770020F8BD022007
:101FF000F8BD002800DBE570207801F03DFC02040C
:10200000607801F039FC42EA0022A07801F034FC4B
:102010000243E07842EA004294F8200001F02CFCF0
:1020200042EA0060E1699BE724F4807494601A68D6
:10203000D46804F0800464F4C074D4601A68009C0E
:10204000B4F1010ECDF800E00FD3D468E407F6D068
:10205000D061186841641868816841F480718160BA
:102060001868816841F48051AFE7576283F81DC05A
:102070001D770320F8BD000060000020003C0140F7
:102080002DE9F0470446007F0B4601281FD04FF092
:10209000010984F81C9002206077DAB19878D97829
:1020A00040EA014558781978000240EA413005437A
:1020B0002168CA204862216853204862204601F006
:1020C000E7FB0026FF274FF0040860BB1AE0022060
:1020D000BDE8F0875878C10603D500F0EF000A305C
:1020E0005870D87801F0C8FB0204587801F0C4FB9E
:1020F00042EA0022987801F0BFFB0243187842EAD6
:102100004035D5E70F480540206845602068C16824
:1021100021F08001C1602068806880060AD42046D2
:1021200000F088F830B12068476284F81D80267777
:102130000120CDE72068476284F81D9026770020B3
:10214000C6E700003FFFFF002DE9F0470446007F8F
:102150000D46012827D04FF0010A84F81CA0022068
:1021600060772068002680684FEA4060F2B100285E
:1021700000DBEE70A878297840EA01476878E978B2
:10218000000240EA014007432168CA2048622168F2
:1021900053204862204601F07BFB4FF0FF084FF0D0
:1021A0000409A0BB16E00220BDE8F087002800DB90
:1021B000EE70287801F060FB0204687801F05CFBA7
:1021C00042EA0022A87801F057FB0243E87842EA8D
:1021D0000047D9E7164807402068076020688168F3
:1021E00021F480218160D5E90301084321688A68D0
:1021F000104388602068C16821F08001C1602068B8
:10220000806880060BD4204600F014F838B12168AD
:10221000C1F8248084F81D9026770120C4E7216846
:10222000C1F8248084F81DA026770020BCE70000B8
:102230007F7F7F0070B504460068C16821F0A0016F
:10224000C160FFF7DFF805464FF47A7607E000BF7C
:10225000FFF7D8F8401BB04201D9032070BD2068B9
:10226000C0688006F4D5002070BD10B5FEF785FA71
:1022700010BD00002DE9FE430446002603200D4654
:1022800084F83400606C03285ED0B5F5805F5BD0C5
:102290004FF4006700204FF08068BD421FD1814697
:1022A000009001900021206801F025FB800113D4EB
:1022B0006946204601F0A0FE07000DD101984003B9
:1022C00034D5B4F850000104206801F04FFB07003A
:1022D00002D10221206823E0A06B384328E01DB121
:1022E000A06B40F0006023E0814600900190002147
:1022F000206801F000FB8001EED46946204601F021
:102300007BFE0700E8D10198C0030FD5B4F8500058
:102310000104206801F02AFB0700DDD100212068BC
:1023200001F071FB0700D7D14F46D5E74746D3E709
:10233000A063A06B144F4FF0010848B12068876379
:1023400084F8348001260EE0A06B40F08050EFE767
:10235000211DD4E9050C0EC9CDE90050CDF808C007
:10236000206801F0D1FA4FF40071206801F032FBCF
:1023700028B121688F63A16B0143A163012684F812
:1023800034803046BDE8FE83FF0540007047000002
:10239000F0B5426E920F0A70426EC2F383624A70C9
:1023A000426EC2F301628A70426E120CCA70B0F8BB
:1023B0006420120A0A7190F864204A71826E120D2C
:1023C000CA80826EC2F303420A72B0F86820C2F378
:1023D000C0324A72B0F86820C2F380328A72B0F814
:1023E0006820C2F34032CA72B0F86820C2F30032EB
:1023F0000A7300264E73426C4FF40075012462B1DB
:10240000012A3AD0026847499163816B41F08051BB
:10241000816380F834400120F0BDB0F86820C36EBD
:102420009205120D42EA93720A61C26EC2F3C26251
:102430000A75C26EC2F302624A75C26EC2F342529C
:102440008A75C26EC2F38242CA75C26EC2F3C232CC
:102450000A760A69521C42650B7E03F007039B1C37
:102460009A4042650B7A03F00F0704FA07F383657D
:102470005B0A5A43C0E917250EE090F86820C36E46
:102480009206920A42EA13420A610A69521C9202B7
:102490004265C0E91652056630F86C2FC2F38032EF
:1024A00001F8192F0288C2F3C6124A70027802F0AE
:1024B0007F028A704268D20FCA704268C2F34172CA
:1024C0000A714268C2F382624A714268C2F383525F
:1024D0008A714268C2F34052CA710E724268C2F3F6
:1024E00000424A728288C2F3C0328A728288C2F382
:1024F0008032CA728288C2F340320A738288C2F381
:1025000000324A738288C2F381228A738288C2F3BE
:102510000122CA730079C0F3460008744C7400208D
:10252000F0BD0000FF054000426C0A60826C4A600A
:10253000C26C8A60026DCA60426D0A61826D4A6136
:10254000C26D8A61006EC8610020704770B5044694
:10255000B0F8500000250104206801F05EFB18B1BE
:10256000A16B0143A16304E00021206801F0C3F9DD
:102570000546C5F3432070BDF8B5056B04460068F9
:10258000416B09041BD5290719D5D4E90A56002E39
:1025900014D00027206801F0D1F905F8010B010AD9
:1025A00005F8011B010C05F8021B000E361F7F1CED
:1025B00005F8010C082FEDD3C4E90A56F8BD416BAC
:1025C0004FF00006C9054FF0010744D53902816379
:1025D0002068C16B4CF23A329143C1632068C16AF2
:1025E00021F00101C16228071DD515F0220F09D085
:1025F000206801F043FB28B1A16B0143A163204691
:10260000FFF7C4FE216840F23A50886384F83470C2
:102610002663A80703D0204600F0A6FAF8BD20469E
:1026200000F0A6FAF8BD2806FCD5A80609D5206852
:1026300001F024FB28B1A16B0143A1632046FFF701
:10264000A5FEA807EED12068C16A21F00801C16289
:1026500084F83470E3E7416B490424D5290722D577
:10266000D4E90856002EDDD05FF0000715F8010B05
:10267000009015F8011B361F40EA0120009015F864
:10268000021B40EA0140009015F8011C40EA01607D
:1026900000906946206801F064F97F1C082FE5D39B
:1026A000C4E90856F8BD416B40F23A221142F9D014
:1026B000416B890703D5A16B41F00201A163416B16
:1026C000090703D5A16B41F00801A163416B89069D
:1026D00003D5A16B41F02001A163416BC90603D56D
:1026E000A16B41F01001A163416B890503D5A16B7A
:1026F00041F00801A16340F23A7181632068C16B27
:1027000040F23A329143C163206801F0B7FAA16BFD
:102710000843A063280706D584F834702663204652
:10272000FFF734FEF8BD2806FCD515F0300F0CD0AD
:10273000E16B11480865E06BFEF79FFB0028F1D0C4
:10274000E06BBDE8F84001F035BCA8070CD0216C67
:102750000A480865206CFEF790FB0028E2D0206C48
:10276000BDE8F84001F004BCA66384F83470266329
:102770002046FFF77AFDF8BDB53F0008713F00081D
:1027800070B504000ED094F83400002518B92577F0
:10279000204600F04BF8032084F83400204600F077
:1027A0000BF808B1012070BDA5632563012084F8F2
:1027B0003400002070BD0000FEB5002504467620E0
:1027C0000095CDE9015029460B460A46206801F0E4
:1027D0009BF828BB134E46F8A05F206801F0A6F8CE
:1027E00001253560204601F0EBFC28B184F8345017
:1027F000A16B0143A16313E0204601F06AFC0028AD
:10280000F4D14FF40071206801F0E4F8002808D0FA
:10281000226805499163A16B0143A16384F8345098
:102820000120FEBD00802542FF0540002DE9F04F4C
:1028300087B0054614216846FDF7C5FE4E49286855
:1028400088427DD14D4800684C4940F400600860E2
:10285000086800F40060059048481438006847494B
:1028600040F0040014390860086800F00400059086
:10287000086840F0080008600868012400F00800BB
:1028800005904FF4706000900220CDE90104032010
:1028900003900C203A4F049069463846FEF7A8FC96
:1028A00026030220CDE9006000200290032003905F
:1028B0000C20049069463846FEF79AFC0427022053
:1028C0000097CDE90104032003900C200490694691
:1028D0002C48FEF78DFC2D4C2B484FF00068C4E9C6
:1028E000000800204FF4806AA060C4E9030AC4E92C
:1028F000080704F114014FF480494FF0200B81E8E0
:10290000400AF60214310320B71081E8C1002046C6
:10291000FEF796FB08B1FDF7DEFF2C641A48A563AD
:102920001A4C483060344FF48051C4E9000840200C
:10293000A0600020C4E9030AC4E907B0042000E055
:1029400017E0606204F12802032082E8C100C4E9B4
:1029500005192046FEF774FB08B1FDF7BCFFEC63D8
:10296000002211463120A563FEF7B4FE3120FEF7A8
:10297000A3FE07B0BDE8F08F002C014044380240B0
:1029800000080240000C024058640240F40100209C
:102990002DE9F04F87B09B4616460D460446FEF7DC
:1029A00031FD00903DB194F83400012807D0A06BB0
:1029B00040F000500DE0A06B40F0006009E0002006
:1029C000A063E26D06EB0B01914204D9A06B40F0CD
:1029D0000070A06386E0032184F834102168C86287
:1029E000616C012900D076024FF0FF3101914FEA6E
:1029F0004B2102914FF0010803AA90210227814642
:102A0000CDF8188082E8820201A9206800F05DFFFD
:102A1000BBF1010F05D927633146206801F06EF83C
:102A200005E0C4F830803146206801F080F8DFF816
:102A300034A130B12268C2F838A0A16B0143A16370
:102A40004CE0029E1EE0406B000413D596B10027B7
:102A5000206800F073FF05F8010B010A05F8011B5F
:102A6000010C05F8021B000E361F7F1C05F8010C37
:102A7000082FEDD3FEF7C6FC0099411A1098814249
:102A80001DD2E0B12068426B40F22A310A42DAD00E
:102A9000416BC90509D5BBF1010F06D9616C03294A
:102AA00003D001F0EBF80028C4D12068416B09077E
:102AB0001AD5C0F838A0A06B40F0080050E021689B
:102AC000C1F838A0A06B40F00040A06384F83480C7
:102AD000C4F83090032007B0BDE8F08F84F834804C
:102AE000C4F830900120F6E7416B890705D5C0F89E
:102AF00038A0A06B40F0020032E0416B89061BD584
:102B0000C0F838A0A06B40F0200029E000F016FFCC
:102B100005F8010B010A05F8011B010C05F8021B61
:102B2000000E05F8010C361FFEF76CFC0099411AE7
:102B3000109881420ED268B12068416B890201D59C
:102B4000002EE3D1216840F23A50886384F8348043
:102B50000020C0E72168C1F838A0A06B40F0004019
:102B6000A063BBE7FF05400010B5FDF749FE10BDAF
:102B700010B5FDF757FE10BD2DE9F04F8DB09B4607
:102B800016460D460446FEF73DFC0A903DB194F80A
:102B90003400012807D0A06B40F000500DE0A06B7E
:102BA00040F0006009E00020A063E26D06EB0B013D
:102BB000914204D9A06B40F00070A0637AE0032139
:102BC00084F834102168C862616C012900D0760253
:102BD0004FF0FF3103914FEA4B2104919021CDE951
:102BE00005104FF00109CDE90709824603A92068C5
:102BF00000F06BFEBBF1010F06D9202020633146A7
:102C0000206801F055F805E0102020633146206867
:102C100001F067F85FEA000806D021684048886341
:102C2000A06B40EA080071E0049E27E0406B40047E
:102C30001CD5DEB15FF0000715F8010B009015F808
:102C4000011B361F40EA0120009015F8021B40EAE4
:102C50000140009015F8011C40EA016000906946AF
:102C6000206800F07EFE7F1C082FE5D3FEF7CAFB2C
:102C70000A99411A1698814220D2F8B12068416B16
:102C800040F21A321142D1D0416BC90523D5BBF1B4
:102C9000010F20D9616C03291DD000F0EFFFD0B1E6
:102CA00022681F499163A16B0143A16384F83490AA
:102CB000C4F830A001200DB0BDE8F08F216818489D
:102CC0008863A06B40EA0800A06384F83490C4F8DD
:102CD00030A00320EFE72068416B090705D51049B4
:102CE0008163A06B40F0080010E0416B890705D5B7
:102CF0000B498163A06B40F0020007E0416BC906FD
:102D000006D507498163A06B40F01000A063CDE7B2
:102D100040F23A51816384F834900020CBE7000000
:102D2000FF05400010B5401EB0F1807F01D30120A7
:102D300010BD4FF0E02460610F21601701F03BFDF2
:102D40000020A06107202061002010BD704770475F
:102D500070B590F83C20012A32D0012480F83C4024
:102D6000022280F83D2003685A689D6822F07006B0
:102D70000A6832435A60134B02689A4214D0B2F187
:102D8000804F11D0104B9A420ED0104B9A420BD06C
:102D90000F4B9A4208D00F4B9A4205D00E4B9A42E5
:102DA00002D00E4B9A4204D1496825F080031943A2
:102DB000916080F83D40002180F83C10084670BDCD
:102DC000022070BD000001400004004000080040E7
:102DD000000C004000040140004001400018004089
:102DE00010B5040003D094F83D0010B107E00120B5
:102DF00010BD002084F83C00204600F01FF802209F
:102E000084F83D00211D206801F0FAFA012084F8C1
:102E1000460084F83E0084F83F0084F8400084F8BF
:102E2000410084F8420084F8430084F8440084F8A8
:102E3000450084F83D00002010BD000008B5006882
:102E4000B0F1804F12D10A48016841F001010160E0
:102E50000068002200F00100009011461C20FEF7DF
:102E600039FCBDE808401C20FEF726BC08BD000068
:102E70004038024090F83D10012901D001207047F0
:102E8000022180F83D100168CA6842F00102CA6060
:102E900000681149884214D0B0F1804F11D00F4919
:102EA00088420ED00E4988420BD00E49884208D085
:102EB0000D49884205D00D49884202D00C4988420C
:102EC00004D1816801F00701062903D0016841F0AF
:102ED0000101016000207047000001400004004033
:102EE00000080040000C0040000401400040014088
:102EF0000018004070B5044690F83C0000250128F9
:102F000017D0012684F83C60022084F83D00206838
:102F1000826822F0770222F47F428260086850289B
:102F200038D00DDC20284FD005DC90B3102811D10B
:102F30004AE0022070BD302846D040280AD13BE04C
:102F400060282FD070280DD0B0F5805F03D0B0F589
:102F5000005F12D0012584F83D60002084F83C0019
:102F6000284670BDCB68D1E90121206801F0ACFA98
:102F70002068816841F0770109E0CB68D1E901213F
:102F8000206801F0A1FA2068816841F480418160E5
:102F9000E1E719E0CA684968206801F0A7FA502102
:102FA000206806E0CA684968206801F0B0FA60212C
:102FB000206801F093FACEE7CA684968206801F0FA
:102FC00095FA40212068F4E7226801461046F0E7B0
:102FD000704770B50446006801694FF00005C943A9
:102FE000890715D4C168C943890711D4E91E016155
:102FF00001202077206880698007204602D0FFF7F3
:10300000E7FF04E000F098F8204600F096F82577F6
:1030100020680169C943490717D4C168C9434907F2
:1030200013D46FF0040101610220207720688069C9
:1030300010F4407F204602D0FFF7CAFF04E000F002
:103040007BF8204600F079F8257720680169C943AC
:10305000090716D4C168C943090712D46FF00801E3
:103060000161042020772068C0698007204602D0D3
:10307000FFF7AEFF04E000F05FF8204600F05DF8D7
:10308000257720680169C943C90617D4C168C943B7
:10309000C90613D46FF01001016108202077206861
:1030A000C06910F4407F204602D0FFF791FF04E092
:1030B00000F042F8204600F040F8257720680169CA
:1030C000C943C90708D1C168C943C90704D1891ECA
:1030D0000161204600F032F820680169C943090601
:1030E00009D4C168C943090605D46FF080010161A4
:1030F0002046FFF72BFE20680169C943490609D421
:10310000C168C943490605D46FF0400101612046FA
:1031100000F04AF820680169C94389060BD4C168E8
:10312000C943890607D46FF0200101612046BDE83C
:103130007040FFF70CBE70BD7047704738B5144C37
:10314000607880F00100607004F1240081780091C3
:10315000437802780FA10F38FDF702F9332204F10A
:103160004001104801F056FEE07004F11500FDF733
:103170000BFA024604F10C0303F10901094801F0BE
:103180009EFFE070BDE83840064801F003BE000035
:1031900000000020253032643A253032643A253070
:1031A00032640A00741300207047704770470000B3
:1031B000F8B5016804460868CA684B6910F00F0F3B
:1031C0004FF0000559D003F0010602F49077374321
:1031D00065D0C10705D0D10503D5216C41F00101AF
:1031E0002164410705D5D90703D0216C41F00201C4
:1031F0002164810705D5D90703D0216C41F0040172
:103200002164010707D502F02001314303D0216C6E
:1032100041F008012164216C00293AD0800604D5D0
:10322000900602D5204601F0B3F920684069216C70
:10323000C0F38010090700D460B3204601F081F983
:1032400020684069400621D52068143050E8001FEE
:1032500021F0400140E80012002AF5D1A06BA8B18E
:103260006C490165A06BFDF708FE002811D0A06B2A
:10327000016D01B0BDE8F040084783060FD5930605
:103280000DD52046BDE8F84001F082B92046FFF791
:103290008DFFF8BD2046FFF789FF2564F8BD266B3A
:1032A0002023012E79D1C60677D5D60675D50868B4
:1032B000486800904869400640D5A16B086840689E
:1032C0000004000CEAD0A28D8242E7D9E085C869EB
:1032D000B0F5807F2DD020680C3050E8001F21F41D
:1032E000807140E80012002AF5D12068143050E8BF
:1032F000001F21F0010140E80012002AF5D12068EA
:10330000143050E8001F21F0400140E80012002A6C
:10331000F5D184F83E30256320680C3050E8001F5A
:1033200021F0100140E80012002AF5D1A06BFDF752
:103330005BFDA08DE18D401A81B229E0A08DE18D69
:10334000401A81B2E08D0028A8D00029A6D02068BC
:103350000C3050E8002F22F4907240E80026002E36
:10336000F5D12068143050E8002F22F0010240E827
:103370000026002EF5D184F83E30256320680C30FD
:1033800050E8002F22F0100240E80023002BF5D176
:103390002046FFF70AFFF8BDFFE705062BD5150607
:1033A00029D594F83D002128F5D1A068B0F5805FBB
:1033B00001D12069B0B1206A411C216221680078E6
:1033C0004860E08C401E0004000CE084E3D12068DB
:1033D000C16821F08001C1602068C16841F04001EE
:1033E000C160D8E7206A0088C0F308004860206AFE
:1033F000801C2062E5E74006CDD55006CBD5CA68D3
:10340000204622F04002CA6084F83D3000F088F87F
:10341000C1E700003345000870B5040004D094F8FB
:103420003D00002510B106E0012070BD84F83C503D
:10343000204600F023F8242084F83D002068C1686D
:1034400021F40051C160204601F002F920680169B1
:1034500021F4904101612068416921F02A01416114
:103460002068C16841F40051C1602564202084F8BF
:103470003D0084F83E00002070BD000010B586B00D
:10348000044614216846FDF79EF8174920688842D3
:1034900028D116480021026842F01002026000683C
:1034A00000F01000059011481438026842F0020242
:1034B0000260006800F002000590C0200090022029
:1034C000CDE90101032003900720049069460848D4
:1034D000FDF78EFE002211462520FEF7FBF8252081
:1034E000FEF7EAF806B010BD001001404438024073
:1034F0000004024090F83E30202B0ED159B152B159
:1035000090F83C30012B08D0012380F83C30002398
:10351000036301F023B90120704702207047704710
:103520007047FEE70F4810B50D4901600721416063
:1035300000214FF480228160C0E903124FF4A00201
:103540004261017641768176C17601774177FDF758
:103550005AFB002803D0BDE81040FDF7BCB910BDF0
:1035600000640040D40000200D4808B5016841F413
:10357000800101600068002200F480000090114684
:103580003B20FEF7A7F83B20FEF796F800221146F5
:103590004520FEF79FF8BDE808404520FEF78CB8AF
:1035A0003038024010B504490448FDF796F9024945
:1035B000491E087010BD00004E0000205C5B000832
:1035C00070B586B014216846FCF7FDFF324800252F
:1035D000016841F010010160016801F010010591DE
:1035E000016841F004010160016801F004010591E6
:1035F000016841F080010160016801F080010591DE
:10360000016841F001010160016801F001010591CB
:10361000016841F008010160016801F008010591AD
:10362000016841F00201016000681C4E00F00200D8
:1036300005900022A2213046FDF7DFFE0420009015
:103640004FF444100124CDE9010469461448FDF704
:10365000CFFD4FF48810CDE9004069463046029412
:10366000FDF7C6FDA2208DE831006946304603957E
:10367000FDF7BEFD002202210620FEF72BF80620F2
:10368000FEF71AF8002202210820FEF723F808208E
:10369000FEF712F806B070BD30380240000002405C
:1036A000001002400D4810B50B4901600C49416003
:1036B00000214FF480428160C0E9031241618161C1
:1036C000C1610162FDF7A4FE002803D0BDE81040EF
:1036D000FDF701B910BD000000540040FC000020BF
:1036E000A086010010B590B014210AA8FCF76BFF6A
:1036F0000024282168460F94FCF765FF28482749D5
:10370000C0E900147F218160FF21C0E903144461F6
:103710008461FEF77FFB08B1FDF7DDF88DF82840E6
:103720008DF829408DF82A400D9401220AA91C48E1
:103730000E94FEF709FD08B1FDF7CDF804208DF8D1
:103740003C0005208DF83D0020208DF83E008DF8CE
:103750003F0001220FA91248FEF792FC08B1FDF7C5
:10376000BAF822208DF80000039401208DF8200083
:103770008DF80140049400028DF8024001940990F4
:10378000059406940794012269460548FEF7BCFBA0
:10379000002801D0FDF79FF810B010BD00280040B0
:1037A0005001002006480549016000214160816008
:1037B000C16001614161816170470000002C0140DE
:1037C0007001002010B586B00024174800940194C1
:1037D0000294039404944FF08041059401604AF2EE
:1037E0001041C0E901144FF47A71C0E903148461F7
:1037F000FFF7F6FA08B1FDF76EF84FF4805000902D
:1038000069460948FFF776FB08B1FDF764F8202008
:10381000CDE9040404A90448FFF79AFA002801D06E
:10382000FDF759F806B010BDB40200200C4810B5E1
:103830000A4901604FF416514160002181600C2259
:10384000C160C0E904128161C161FFF7E5FD002894
:1038500003D0BDE81040FDF73EB810BD0010014098
:10386000FC020020FEE7FEE7704700000148FEF77B
:10387000A3BA000050010020002102E00A38C0B2C3
:10388000491C0A28FAD2090740EA11607047000073
:1038900070B504460068C168490614D44FF0FF3182
:1038A000C160FDF7AFFD05464FF47A7607E000BF33
:1038B000FDF7A8FD401BB04201D9032070BD206870
:1038C000C0684006F4D5002070BD0A6842624A68AC
:1038D0008262D1E902231A43D1E904310B43C16A60
:1038E0001A4321F0F7011143C162002070470068BC
:1038F00000F0030070470844406970470148FEF734
:103900003BBE00007001002070B50DF1100C11439A
:103910009CE870002343194329434268314347F62A
:10392000FF639A430A434260002070BD10B5032133
:1039300001600220FDF7EEFB002010BDD0F88000F2
:1039400070470A688260D1E901231A43D1E9033143
:103950000B43C1681A436FF30B011143C160002090
:1039600070470968C0F880100020704710B586B015
:1039700004463720CDE9001040200290002003903B
:103980004FF48060049069462046FFF7DAFF41F269
:1039900088323721204600F0BDF906B010BD000086
:1039A00010B504460A4886B001432920CDE900102D
:1039B00040200290002003904FF4806004906946FC
:1039C0002046FFF7BEFF204600F05CFA06B010BDAF
:1039D0000000108010B586B004461020CDE900101C
:1039E00040200290002003904FF4806004906946CC
:1039F0002046FFF7A6FF41F288321021204600F052
:103A000089F906B010BD10B586B004460620CDE990
:103A1000001040200290002003904FF4806004903A
:103A200069462046FFF78DFF41F288320621204685
:103A300000F070F906B010BD30B585B00024054621
:103A4000009401944FF480600294CDE903406946EC
:103A50002846FFF776FF0B484FF4FA510068B0FB99
:103A6000F1F041F288314843401E03D24FF000404C
:103A700005B030BD696B0906F6D5C520A8632046A0
:103A8000F6E700006000002070B585B004464FF4F2
:103A9000D570009001A908204025002681E861002A
:103AA000C001049069462046FFF74BFF12484FF4CF
:103AB000FA510068B0FBF1F041F288314843401EF2
:103AC00003D24FF0004005B070BD616B11F0450F9F
:103AD000F5D00905F3D4606B400701D5042003E05D
:103AE000606BC00702D00120A063ECE7606B40066A
:103AF00000D5A5633046E6E76000002010B586B02B
:103B000004461220CDE900104020029000200390CE
:103B10004FF48060049069462046FFF712FF41F29F
:103B200088321221204600F0F5F806B010BD10B51D
:103B300086B004461120CDE90010402002900020FC
:103B400003904FF48060049069462046FFF7F9FE29
:103B500041F288321121204600F0DCF806B010BD99
:103B600010B586B004460720CDE900204020029021
:103B7000002003904FF48060049069462046FFF7D0
:103B8000E0FE41F288320721204600F0C3F806B07B
:103B900010BD10B586B0044600210220CDE900100A
:103BA000C020CDE902014FF48060049069462046B0
:103BB000FFF7C7FE204600F03DF906B010BD10B576
:103BC00086B004460920CDE90010C02002900020F4
:103BD00003904FF48060049069462046FFF7B1FEE1
:103BE000204600F027F906B010BD10B586B0044697
:103BF00000213320CDE900104020CDE90201000171
:103C0000049069462046FFF79CFE41F2883233213A
:103C1000204600F07FF806B010BD10B586B004460F
:103C20000D20CDE9001040200290002003904FF4B9
:103C30008060049069462046FFF783FE41F2883297
:103C40000D21204600F066F806B010BD30B585B0F5
:103C50000C46054600210320CDE900104020CDE9A7
:103C600002010001049069462846FFF76AFE2246D9
:103C70000321284600F028F905B030BD10B586B004
:103C8000044600210C20CDE900104020CDE90201BE
:103C90000001049069462046FFF753FE034A0C21B9
:103CA000204600F037F806B010BD000000E1F50531
:103CB00010B586B004461920CDE9001040200290CE
:103CC000002003904FF48060049069462046FFF77F
:103CD00038FE41F288321921204600F01BF806B068
:103CE00010BD10B586B004461820CDE90010402064
:103CF0000290002003904FF48060049069462046B3
:103D0000FFF71FFE41F288321821204600F002F82A
:103D100006B010BD454B10B51B684FF4FA54B3FB09
:103D2000F4F353435B1E02D24FF0004010BD426BD0
:103D300012F0450FF6D01205F4D4426B520703D5AA
:103D400004218163084610BD426BD20702D00121D5
:103D5000816305E0C52282630269D2B28A4201D042
:103D6000012010BD0021FFF7C6FD3149084201D1F5
:103D7000002010BD002802DA4FF0007010BD410095
:103D800001D5402010BD810001D5802010BDC100AB
:103D900002D54FF4807010BD010102D54FF40070C0
:103DA00010BD410102D54FF4806010BDC10102D5A4
:103DB0004FF4006010BD010202D54FF4805010BDD9
:103DC000410202D54FF4005010BD810202D54FF4DC
:103DD000804010BDC10202D54FF4004010BD410328
:103DE00002D54FF4003010BD810302D54FF480207E
:103DF00010BDC10302D54FF4002010BD010402D54F
:103E00004FF4801010BD410402D54FF4001010BDD6
:103E1000810402D54FF4800010BD000702D54FF495
:103E2000000010BD4FF4803010BD00006000002085
:103E300008E0FFFD12494FF4FA520968B1FBF2F1B4
:103E400041F288325143491E02D24FF00040704780
:103E5000426B12F0450FF6D01205F4D4416B4907BE
:103E600003D50421816308467047416BC90703D01D
:103E70000121816308467047C52181630020704796
:103E8000600000200F494FF4FA520968B1FBF2F1CB
:103E900041F288325143491E02D24FF00040704730
:103EA000426B12F0450FF6D01205F4D4416B49076E
:103EB00003D50421816308467047C5218163002032
:103EC000704700006000002030B5204B4FF4FA54DA
:103ED0001B68B3FBF4F341F2883463435B1E02D2E8
:103EE0004FF0004030BD446B14F0450FF6D0240570
:103EF000F4D4436B5B0703D504218163084630BDCE
:103F0000436BDB0702D00121816303E00369DBB26D
:103F10008B4201D0012030BDC52181630021FFF714
:103F2000EAFC10F4604F04D0410406D54FF4005071
:103F300030BD000C1080002030BD000402D54FF4CD
:103F4000805030BD4FF4803030BD00006000002054
:103F500010B5064C01202070FCF716FC18B920782B
:103F600020F001002070207810BD00004C000020DF
:103F700010B5846B40F23A50216888632046FEF702
:103F8000E5FA012184F8341000212163062801D0CC
:103F9000052805D12068FFF771FEA16B0843A063D7
:103FA000A06B0028204602D0FEF7F0F910BDFEF706
:103FB0005CF910BD10B5846B40F23A5021688863FB
:103FC0002046FEF7C3FA012184F834100021216352
:103FD000062801D0052805D12068FFF74FFEA16B08
:103FE0000843A063A06B0028204602D0FEF7CEF95C
:103FF00010BDFEF73AF910BD2DE9F04788B00D4627
:104000000446FDF7FFF900268246009601963746E2
:1040100008212068FFF7DEFC002829D1B4F8500001
:1040200001042068FFF7A2FC002821D1401E4FF0B8
:104030000808CDE9020830204FF00209CDE9040953
:104040000120CDE9067002A92068FFF73EFC206838
:10405000FFF7CBFD00280BD16F462068416B11F0B4
:104060002A0F08D0416B09071AD5C0F838800820FC
:1040700008B0BDE8F087416B890205D5FFF75EFC0B
:1040800047F82600761C02E0416B8904EAD5FDF76B
:10409000B9F9A0EB0A00401CDFD14FF00040E7E780
:1040A000416B890703D5C0F838900220E0E7416BE7
:1040B000890603D5202181630846D9E740F23A51A9
:1040C0008163019800BA2860009800BA68600020F7
:1040D000CEE710B590B004460120ADF83800206856
:1040E000FFF705FC002854D0606C032842D02068FC
:1040F000FFF74FFD00284AD100212068FFF7FBFBA6
:10410000606704212068FFF7F6FBA067082120689C
:10411000FFF7F1FBE0670C212068FFF7ECFBC4F828
:104120008000606C032825D00EA92068FFF78EFD63
:1041300000282CD1606C03281CD0BDF83800206505
:1041400001042068FFF73BFD002820D100212068F2
:10415000FFF7D1FB606604212068FFF7CCFBA06667
:1041600008212068FFF7C7FBE0660C212068FFF7F5
:10417000C2FB206704212068FFF7BDFB000DE0644F
:1041800003A92046FEF704F930B14FF0805010B07B
:1041900010BD4FF08060FAE7B4F85000002302042D
:1041A0002068FFF7DDFC0028F1D104F1100007C8FA
:1041B0008DE8070094E80F00FFF7A6FB0020E6E774
:1041C0002DE9F84F0026044600963546B0460068B3
:1041D000FFF732FC002827D12068FFF755FC4FF08D
:1041E000805B4FF001094FF6FF7748B1A664206865
:1041F000FFF722FC002817D1A06C012802D020E094
:10420000C4F8489000212068FFF7B0FB58B918E0C7
:1042100000212068FFF7AAFB002805D1514620683D
:10422000FFF7BEFB10B15846BDE8F88F00212068AB
:10423000FFF761FB05464FEAD0780098401C0090DC
:1042400002E0DFF82CA00098B84202D2B8F1000FCB
:10425000DED00098B84202D34FF08070E4E76800E7
:1042600002D5C4F8449000E066640020DCE700005A
:10427000000010C170B5064C054601202070FCF707
:104280008FFA18B92846FFF763FE2070207870BDBA
:104290004C00002010B5124888B014460078C007C2
:1042A00002D0032008B010BDC1B1012905D00229F8
:1042B00008D003290CD00420F4E76846FCF75EFA26
:1042C00006980AE06846FCF759FA0798208005E04E
:1042D0006846FCF753FA0798400A20600020E1E79F
:1042E0004C00002070B51D46164608460124A31E4A
:1042F0002A463146FCF774FA28B900BFFCF744FAA5
:104300000028FBD10024204670BDFFF721BE00002D
:1043100070B51D46164608460124A31E2A4631469E
:10432000FCF770FA28B900BFFCF72EFA0028FBD181
:104330000024204670BD7047FDF764B930B593B0D6
:1043400030216846FCF73FF914210CA8FCF73BF933
:104350001F480025016841F080510160006800F0AD
:10436000805011901B48016841F480410160006851
:10437000022400F480401190092000904FF4803016
:1043800001900120CDE905048005079004200890E4
:10439000A820CDE9090407200B906846FDF754FBDF
:1043A00008B172B6FEE70CA90F2081E831004FF486
:1043B000A0500F904FF48050109005210CA8FDF7ED
:1043C00059FA002801D072B6FEE713B030BD0000E4
:1043D00040380240007000400548016841F4700117
:1043E000016003494FF000608039086070470000A9
:1043F00088ED00E00148FEF7ECBD0000B4020020AB
:10440000F0B50268254C264D264E274F274B4FF01E
:10441000804CA04209D0604507D0A84205D0B042E8
:1044200003D0B84201D0984204D122F0700E4A68FD
:1044300042EA0E02A0421BD0604519D0A84217D014
:10444000B04215D0B84213D0984211D0184DA842AE
:104450000ED0184DA8420BD0174DA84208D0174DCA
:10446000A84205D0164DA84202D0164DA84203D14D
:1044700022F44075CA682A434D6922F080022A431B
:1044800002608A68C2620A688262A04201D09842D1
:1044900001D10969016301214161F0BD00000140C2
:1044A0000004004000080040000C004000040140EF
:1044B0000040014000440140004801400018004015
:1044C000001C00400020004010B5846842EA03222E
:1044D00024F47F440A432243826010BD826822F0A4
:1044E00070020A4342F007018160704710B5036A09
:1044F000046A24F001040462846924F0F00444EAAC
:10450000021423F00A020A438461026210BD10B54E
:10451000036A23F0100303628369046A23F470437F
:1045200043EA023224F0A00343EA011182610162EE
:1045300010BD10B5806B0021C185C184FEF736FE29
:1045400010BD01680C3151E8002F22F4907241E84F
:104550000023002BF5D10168143151E8002F22F01F
:10456000010241E80023002BF5D1016B012909D19B
:1045700001680C3151E8002F22F0100241E80023BD
:10458000002BF5D1202180F83E10002101637047F7
:1045900008B590F83E10222901D0022008BD82689B
:1045A0004FF480539A4201D1016921B1816A9A4244
:1045B0001BD04AB10AE00268816A5268C2F308025D
:1045C0000A80816A891C08E0026972B10268526837
:1045D00002F07F020A70816A491C8162C18D491E06
:1045E0000904090CC18503D019E002685268F1E79B
:1045F0000168CA6822F02002CA600168CA6822F411
:104600008072CA6001684A6922F001024A61202171
:1046100080F83E10016B012903D0FEF780FF0020D7
:1046200008BD0021016301680C3151E8002F22F020
:10463000100241E80023002BF5D101680A68D20678
:1046400002D50A6849680091818DFEF7AEFDE6E764
:1046500070B5044600680169E26821F440511143D5
:1046600001612169A068E269084361691143084357
:104670002168CA6849F20C639A430243CA60206801
:104680004169A26921F440711143416131492068B7
:10469000884202D03049884202D1FDF795F901E005
:1046A000FDF782F9E2690023192164253226B2F56B
:1046B000004F626828D0A0FB0101930F9200FBF726
:1046C000D7FD0146B0FBF5F06FF01802504301EB47
:1046D000800006EB0010B0FBF5F000F0F002B1FB3B
:1046E000F5F002EB0012B1FBF5F06FF01803584340
:1046F00001EB800006EB0010B0FBF5F000F00F00BE
:1047000021681044886070BDA0FB010192185B41D4
:10471000FBF7AEFD0146B0FBF5F00201B1FBF5F091
:104720006FF01803584301EB800006EBC000B0FBAC
:10473000F5F000F0F80002EB4002B1FBF5F0584351
:1047400001EB800006EBC000B0FBF5F000F00700C5
:10475000D6E700000010014000140140816282850C
:10476000C28500210164222280F83E2080F83C109E
:104770000168CA6842F48072CA6001684A6942F0FE
:1047800001024A610068C16841F02001C160002057
:104790007047000010B50548FEF70AFDBDE810405F
:1047A000052203490148FEF7A5BE0000FC020020D7
:1047B0001F000020FEE70907090E002804DB00F1B6
:1047C000E02080F80014704700F00F0000F1E020B6
:1047D00080F8141D704730380A2801D20120704734
:1047E0000020704710B504460020E070401E206392
:1047F000204601F022F808B1042010BD04F2322056
:1048000000F0AAFFA0F52A41553901D0032010BDC0
:1048100094F83400E92805D0EB2814D194F8360038
:10482000902810D104F16A0000F08BFF0749B1EB2A
:10483000002F06D004F1860000F083FF044988426F
:1048400001D1002010BD022010BD000000464154DF
:1048500046415433F0B50022144D134605EB0214C3
:1048600026685EB10768BE4209D166688768BE42A5
:1048700005D1A4684669B44204D000E00123521C6B
:10488000022AEBD3022A01D069B904E04BB902290C
:1048900007D01220F0BD05EB02108089B0F5807FB3
:1048A00001D00020F0BD1020F0BD0000A4230020A6
:1048B00030B50021054B0C4603EB0112156885420B
:1048C00000D11460491C0229F6D330BDA423002076
:1048D0000268C06A938952895343B1FBF3F1001D0A
:1048E00004C81AB1914203D3891AF8E7002070472F
:1048F0000068084470478269891E921E8A4201D866
:1049000000207047C26A408901FB002070472DE9F2
:10491000F04105680F00804606D000F02AFE02280C
:1049200009D20120BDE8F0812E6916B1A869B04214
:1049300007D8012605E0411CF4D0A9698142F1D8CD
:104940003E463446A869641CA04202D80224022EC6
:104950000AD32146404600F00CFE38B10128E1D0D0
:10496000411CDFD0B442EDD10020DBE74FF0FF3631
:1049700032462146284600F079FF30B957B1224629
:104980003946284600F072FF20B101280FD00124DB
:104990002046C7E72C61D5E90501891E884201D868
:1049A000401E6861287940F001002871F0E7344624
:1049B000EEE700002DE9F0410E4624300D68044674
:1049C0000B22202100F032FF0020014608272A5C3C
:1049D000401C202A12D92F2A0BD05C2A09D02E2A5B
:1049E00001D0B94214D30B2F22D02E2A20D10CE0B3
:1049F000401C2B5C2F2BFBD05C2BF9D02844306063
:104A0000B1B12078E5281FD020E008210B27DEE790
:104A1000802A03D3114B1A4412F8802C10A300E013
:104A20005B1C93F800C0BCF1000F04D09445F7D193
:104A30000620BDE8F081A2F16103192B01D8203ACC
:104A4000D2B26254491CC2E705202070202A01D846
:104A5000042000E00020E0720020EAE7905B0008FC
:104A6000222A2B2C3A3B3C3D3E3F5B5D7C7F000085
:104A7000401E022812D20A4901EB00118889B0F5C4
:104A8000807F05D008B1401E80B2888110B103E05C
:104A90000020FAE7002008600020704702207047DD
:104AA000A42300202DE9F04104460021056800F010
:104AB000DFF8002826D12846E16900F0BEFE02009A
:104AC0001FD1206A017899B1C17A01F03F01A1712B
:104AD000C17A09070FD404F124010B2610F8013B19
:104AE00011F8017BDB1B761E04D0002BF6D002E010
:104AF000042206E02BB10021204600F005F8020058
:104B0000D9D01046BDE8F0812DE9F0470546476948
:104B10000468C0698946203710B1B7F5001F02D379
:104B20000420BDE8F087A189B7FBF1F201FB127107
:104B300000295FD1401CE861A9694FF0000819B352
:104B4000A0896289B7FBF0F0521E104252D128466C
:104B500000F00FFD064601281FD9701C36D0A06951
:104B6000B04241D8B9F1000F12D02846A969FFF729
:104B7000CEFE06000FD0012E0FD0701C26D020468E
:104B800000F0A4FF10BB0AE02089B0EB571F31D81A
:104B9000C5F81C80C4E70720C3E70220C1E7A2894B
:104BA000002104F1340000F041FE4FF000083146CE
:104BB0002046FFF7A0FE4FF0010920630DE000BF83
:104BC00084F80390204600F081FF08B10120A8E797
:104BD000206B08F10108401C206361894145EFD832
:104BE000216BA1EB0800206331462046AE61FFF740
:104BF00082FEE8616F61A089B7FBF0F100FB1170E4
:104C000020443430286200208BE770B50446002130
:104C1000066800F02DF80DE03046E16900F00DFE69
:104C200050B9206A0078E52809D040B1012120461A
:104C3000FFF76AFF0028EFD0042807D007E03046CE
:104C4000E16900F0FAFD050003D00FE007200546FA
:104C50000CE020220021206A00F0E8FD0B2204F184
:104C60002401206A00F0D8FD0120F070284670BDB4
:104C70002DE9F04104680F460646B1F5001F3CD20D
:104C8000F8063AD17761B56825B92078032806D3AC
:104C9000A56A25B16089A18900FB01F812E020898D
:104CA000B0EB571F29D9A06A12E0304600F061FC32
:104CB0000546401C1FD0022D1FD3A069A8421CD955
:104CC000A7EB080747452946EFD22046FFF713FE1A
:104CD000C6E9065088B1A189B7FBF1F10844F0613B
:104CE000A089B7FBF0F100FB117020443430306232
:104CF0000020BDE8F0810120FBE70220F9E7000079
:104D0000084910B50B5C002253B901220A540A1855
:104D100001EB8000127A406801681046884702461D
:104D2000104610BDC423002030B4054C231804EBFA
:104D300080001B7A406804691846A44630BC60476E
:104D4000C423002030B4054D2C1805EB8000247AD4
:104D5000406885682046AC4630BC6047C4230020CC
:104D6000044A111802EB8000097A4068426808463C
:104D700010470000C423002030B4054D2C1805EB6B
:104D80008000247A4068C5682046AC4630BC604745
:104D9000C423002038B5044600F04AF900280CD19D
:104DA0006946204600F0BBFE002806D12069FFF7C7
:104DB0005FFE002801D10021216038BD2DE9F741B7
:104DC00081B0904602980090684600F048FC0400CC
:104DD00003D50B2004B0BDE8F0810D4E002756F836
:104DE00024501DB12846FFF763FD2F70019800285D
:104DF00000D0077046F8240002D0B8F1010F01D0AE
:104E00000020E7E7002201A902A800F031FAE1E75B
:104E1000680000202DE9F74394B005000BD002F0A4
:104E20003F063246694615A800F022FA04004FF00A
:104E3000000804D0F3E0092017B0BDE8F083009823
:104E4000049004A8159900F057FB04000ED19DF8BA
:104E50003F00000601D5062408E0700801D00121BA
:104E600000E0002104A8FFF7F5FC044616F01C0F33
:104E70005DD04FF00109C4B1042C10D100206B4962
:104E800002E0401C022804D201EB00121268002A42
:104E9000F7D1022807D004A8FFF7B7FE044646F072
:104EA00008065CB1BBE01224B9E09DF8160010F0D2
:104EB000110F47D1700701D50824B0E0300747D55E
:104EC00000F0CBFB07460C9839460E3000F0AEFDE3
:104ED0000C983946163000F0A9FD0C982021C172BB
:104EE0000C99009800F01AFC074600220C990098D3
:104EF00000F088FD0C9800211C3000F097FD00990F
:104F000081F8039017B3D1F830900022394604A8F5
:104F100000F03EFD040009D14946009800F08DFCE8
:104F200004000098A7F1010707610DD077E0ECBB02
:104F30009DF81600C10601D5042470E0B10703D521
:104F4000C00701D007246AE0300701D546F04006CB
:104F50000098006B68620C98A862700801D001216B
:104F600000E0002104A800F099FB2861C0B30C996F
:104F7000009800F0D3FBA8600C981C3000F0E1FB17
:104F8000C5F82C80E86000992960009905F130008F
:104F90004FF48052C988A9802E7585F81580C5F810
:104FA000208000218146C5F8188000E037E000F03D
:104FB0003DFCB00635D5EE689EB3AE610098A96899
:104FC0004789808947430FE0284600F0D2FA01461E
:104FD000012800D80224481C03D0F61B24B105E0A8
:104FE00021E00124F61B01E0BE42EDD8E961B4B92D
:104FF00000988289B6FBF2F302FB13628AB1FFF7D5
:105000007AFC80B1009901238A89B6FBF2F202444E
:105010002A6248784946FFF795FE10B10124C5F889
:105020000080204608E70224F9E70000A4230020BE
:10503000F8B50446694600F072FD00280ED1217DC6
:105040004A060BD508060ED50098226A012340783F
:1050500004F13001FFF790FE08B10120F8BD207D7A
:1050600000F07F00207500F0F8FA0646616A0098AB
:1050700000F0E3FB0028F1D1A56A2946E87A40F068
:105080002000E872A268206800F0BCFC05F11C005A
:10509000E16800F0CBFC314605F1160000F0C6FCDB
:1050A000002105F1120000F0C9FC00980121C17037
:1050B00000F0C8FC217D01F0BF012175F8BD2DE98C
:1050C000F04F884689B0002119609946154604467C
:1050D00004A900F024FD002806D1607D002803D13A
:1050E000207D800703D4072009B0BDE8F08FA069B8
:1050F000012742194FF0020A04F1300B824200D21C
:10510000C543ACE00498A1698289B1FBF2F302FBCC
:105110001313002B79D1B1FBF2F64089401E0640F3
:1051200018D129B1E06A38B12046FFF7D1FB07E07A
:10513000A06838B9002100E0E1692046FFF7E7FBED
:1051400000287ED001282FD0411C58D0E061A168F2
:1051500001B9A060207D00060BD50498226A0123C6
:1051600040785946FFF708FEC0BB207D00F07F0065
:105170002075E1690498FFF7BEFBA8B130440090A8
:1051800004988189B5FBF1F1029141B3721841890C
:105190008A4201D9891B029140784146029B009ABC
:1051A000FFF7EAFDD0B903E084F815A002209BE7E1
:1051B000216A0098081A029988420AD204998A89B9
:1051C00000FB0281584600F027FB207D00F07F00A5
:1051D000207504988689029846432FE00FE0FFE788
:1051E000226A00998A420ED0E268A16991420AD2ED
:1051F000407801235946009AFFF7A4FD18B167755E
:10520000012071E701E0009820620498A16980897B
:10521000B1FBF0F200FB1212861AAE4200D92E4604
:10522000B1FBF0F200FB1210204432464146303010
:1052300000F0F2FA207D40F080002075B044A069B3
:1052400000E00FE03044A061E168884200D80846E1
:10525000E060D9F800008119AD1BC9F80010002DDD
:105260007FF450AF207D40F04000207500203BE7E8
:105270002DE9FF41002790460E460F6000F0EFF940
:10528000050003D50B2004B0BDE8F081974850F825
:1052900025409CB13460207808F0FE0620B160788B
:1052A000FFF75EFDC1070BD02770E8B2B84660700B
:1052B000FFF726FDC10708D00320E4E70C20E2E752
:1052C0000EB1400704D40020DDE71EB1400701D530
:1052D0000A20D8E7607804F10C020221FFF724FDD0
:1052E000F0BBA089A0F50071B1F5606F3FD8411EF9
:1052F00008423CD1002631462046FFF773FA0228C7
:1053000022D100254FEA0D0704EB051090F8F611A5
:1053100000F5F97019B1083000F013FA00E0002030
:1053200047F825006D1C042DEED3002557F82560A5
:1053300036B131462046FFF755FA022801D203E084
:1053400003206D1C042DF1D3042810D0022878D23C
:1053500004F13F0000F000FAA189884271D100E019
:1053600005E004F14A0000F0F7F910B105E0012072
:1053700089E704F1580000F0E4F9E06194F8445042
:10538000A570012D01D0022D5BD1454394F8410059
:105390006081E8B3411E084253D104F1450000F09A
:1053A000DBF92081A1894909B0FBF1F201FB120070
:1053B00070BB04F1470000F0CFF9070004D104F1FD
:1053C000540000F0BEF9074604F1420000F0C4F9B1
:1053D000010036D0A08923894009B3FBF0F04A19B7
:1053E000024497422DD3B81A6789B0FBF7F078B121
:1053F00003274FF6F57C604500D8022740F6F57C80
:10540000604500D801273244801C3144E26200E04C
:1054100017E0A061C4E90861032F14D08BB12944BF
:10542000A162022F20D000F0010100EB400001EB4F
:105430005000A189401E0844B0FBF1F0E1698842A8
:1054400014D90D201FE704F15E0000F085F9002853
:10545000F7D120890028F4D104F1600000F071F93F
:10546000A062A0698000E4E74000E2E74FF0FF306F
:105470006061206180202071032F2CD104F1640031
:1054800000F06AF9012826D1711C204600F0D5F9F8
:1054900008BB84F8048004F2322000F05DF9A0F526
:1054A0002A41553917D104F1340000F04AF9104966
:1054B000884210D104F5067000F043F90D49884286
:1054C00009D104F5077000F03CF9606104F508703B
:1054D00000F037F9206105482770001F0188491C3A
:1054E0000180E1802046FFF7E3F9ECE66800002048
:1054F000525261417272416173B504460568019868
:1055000001E0401C019001782F29FAD05C29F8D0E5
:105510000021A16001980078202806D2802084F81C
:105520002F002046FFF7A4FB7CBD01A92046FFF712
:1055300041FA0028F8D12046FFF7B4FA94F82F106A
:1055400028B10428F0D14907EED405207CBD4907D5
:10555000FCD4A079C006F8D5A9896069B0FBF1F246
:1055600001FB120041192846343100F0D7F8A06041
:10557000DBE72DE9F04104680D4602290BD3A06951
:10558000A84208D920784FF0FF36012807D002281A
:1055900034D0032849D001263046BDE8F081A089E7
:1055A00005EB5507B7FBF0F0616A0144204600F0B7
:1055B00044F90028F0D1A089B7FBF0F100FB11718C
:1055C0007F1CB7FBF0F0214491F83480616A0144FC
:1055D000204600F032F90028DED1A089B7FBF0F1B7
:1055E00000FB1170204490F8341048EA0120E907CC
:1055F00001D00609D0E7C0F30B06CDE7A089616AA8
:105600004008B5FBF0F00144204600F016F90028F0
:10561000C2D1A1896800B0FBF1F201FB1200204465
:10562000343000F099F80646B6E7A089616A800830
:10563000B5FBF0F00144204600F0FFF80028ABD1A4
:10564000A189A800B0FBF1F201FB12002044343024
:1056500000F077F820F070469EE70020704710B504
:1056600004464FF0FF302268002A13D0114600E0B4
:10567000491C0B78212B0ED33A2BF9D112F8013BA0
:10568000303B0A2B06D28A4204D1002B02D1491C9E
:105690001846216010BD002010BD0000F0B5024684
:1056A0001D4BD2F80050002003EB00142668AE42D8
:1056B00007D166689768BE4203D1A4685669B442B0
:1056C00002D0401C0228EFD3022814D1002002E0AF
:1056D000401C022804D203EB00142468002CF7D1EC
:1056E00002280ED003EB00142560956865605269AE
:1056F000A2600022A281002903EB0011898902D057
:1057000019B10020F0BD491C01E04FF4807103EB9A
:105710000012401C9181F0BDA423002070B5064604
:105720000D4601F11A0000F017F8044630780328FE
:1057300005D105F1140000F00FF844EA00442046BA
:1057400070BDC178827842EA01214278007842EA4D
:10575000012140EA012070474178007840EA0120A9
:1057600070470000FBF756FFFEF7E8FDFDF728FF46
:10577000FDF7FAFEFDF796FFFDF7B4FFFEF712F80E
:10578000FEF754F8FDF70EFFFEF71CF8FDF7CAFE12
:105790001B48FDF76FFB00221A491B48FFF70EFB61
:1057A0001A4C0B2204F14001E0701948FFF732FB5C
:1057B000E0701748FFF7EEFA607816A180F001005C
:1057C000607012481530FAF7CBFD10493322403192
:1057D0000F48FFF71FFBE0700C481530FAF7D4FEB6
:1057E0000A4B02460C3303F109010948FFF767FC35
:1057F000E0700748FFF7CEFAFA20FBF78BFCDBE7F7
:10580000B40200204E0000204003002000000020D1
:105810007413002031323300002A05D011F8013B07
:1058200000F8013B521EF9D1704700005FFA81F188
:1058300000F8011B521EFBD1704770B50446006B87
:105840000D460026A8420FD0204600F03FF9060082
:105850000AD1607801232A4604F13401FFF772FA75
:1058600008B1751E01262563304670BD2DE9F0474D
:10587000022617460D46044602297DD3A069A84298
:105880007AD920784FF00109012804D0022840D0AD
:1058900003287AD154E0A18905EB5508B8FBF1F053
:1058A000616A01442046FFF7C8FF06006DD1A18957
:1058B000B8FBF1F201FB12802044343008F10108FA
:1058C000E90704D00178FAB262F31F1100E039460B
:1058D000017084F80390A189B8FBF1F0616A01447A
:1058E0002046FFF7AAFF06004FD1A189B8FBF1F2CD
:1058F00001FB128020443430E90702D0C7F30711BE
:1059000005E00178C7F3032201F0F00111430170B3
:1059100039E0A089616A4008B5FBF0F001442046F7
:10592000FFF78BFF060030D1A1896800B0FBF1F2D0
:1059300001FB12002044B9B2343000F07FF822E0BD
:10594000A089616A8008B5FBF0F001442046FFF7AA
:1059500074FF060019D1A089AD00B5FBF0F100FB82
:10596000115020443430FFF7ECFE67F31B00014672
:10597000A089B5FBF0F200E007E000FB12502044E4
:10598000343000F053F884F803903046BDE8F087D7
:105990002DE9F041056813460E46074602292DD32E
:1059A000A869B0422AD93BB14FF0FF3219462846C8
:1059B000FFF75CFF00281FD131463846FFF7D9FDBD
:1059C000040018D0012C19D0601C19D000223146D7
:1059D0002846FFF74BFF00280ED1D5E90510821E9F
:1059E000914205D2491C6961297941F0010129716F
:1059F0002646B042E0D80020BDE8F0810220FBE757
:105A00000120F9E770B50C460646154691B204F13F
:105A10001A0000F013F83078032806D1290C04F19D
:105A20001400BDE8704000F009B870BD0170090AAB
:105A30004170090A8170090AC17070470170090A32
:105A40004170704770B5044600F040F8050036D14B
:105A5000207803282CD12079012829D104F13400A1
:105A6000A28900210646FFF7E1FE4AF6552104F21D
:105A70003220FFF7E3FF13493046FFF7D7FF124903
:105A800004F50670FFF7D2FF04F507706169FFF7B0
:105A9000CDFF04F508702169FFF7C8FF226A0123D2
:105AA000521C226360783146FFF766F900202071AE
:105AB000002260781146FFF737F900B1012528462A
:105AC00070BD000052526141727241612DE9F04196
:105AD0000446C0780027F8B1256B04F134016078E2
