:020000040800F2
:10000000C0280020310200089B2400083B23000880
:100010009924000827080008FF30000800000000AD
:100020000000000000000000000000000B2F00088E
:10003000BD080008000000009D2400080D2F0008E6
:100040004B0200084B0200084B0200084B0200085C
:100050004B0200084B0200084B0200084B0200084C
:100060004B0200084B0200084B0200084B0200083C
:100070004B0200084B0200084B0200084B0200082C
:100080004B0200084B0200084B0200084B0200081C
:100090004B0200084B0200084B0200084B0200080C
:1000A0004B0200084B0200084B0200084B020008FC
:1000B000C12F00084B0200084B0200084B02000849
:1000C0004B0200084B0200084B0200084B020008DC
:1000D0004B0200084B0200084B0200084B020008CC
:1000E0004B0200084B0200084B0200084B020008BC
:1000F0004B0200084B0200084B0200084B020008AC
:100100004B020008D12400084B0200084B020008F3
:100110004B0200084B0200084B0200084B0200088B
:100120004B0200084B0200084B0200082908000897
:100130004B0200084B0200084B0200084B0200086B
:100140004B0200084B0200084B0200084B0200085B
:100150004B020008350800084B0200084B0200085B
:100160004B0200084B0200084B0200084B0200083B
:100170004B0200084B0200084B0200080000000080
:100180004B0200084B02000800F002F800F041F8B2
:100190000AA090E8000C82448344AAF10107DA45E2
:1001A00001D100F036F8AFF2090EBAE80F0013F0F3
:1001B000010F18BFFB1A43F001031847B8430000B2
:1001C000D8430000103A24BF78C878C1FAD8520743
:1001D00024BF30C830C144BF04680C6070470000C1
:1001E0000023002400250026103A28BF78C1FBD840
:1001F000520728BF30C148BF0B607047642900F028
:10020000EB80002070471FB504F041F91FBD10B509
:1002100010BD00F078FA1146FFF7F5FF03F048FF34
:1002200000F096FA03B4FFF7F2FF03BC00F09EFA69
:100230000948804709480047FEE7FEE7FEE7FEE77A
:10024000FEE7FEE7FEE7FEE7FEE7FEE704480549B6
:10025000054A064B70470000A52F000889010008D9
:10026000C0220020C0280020C0240020C02400207C
:1002700053EA020C00F069802DE9F04B4FF00006C4
:10028000002B1FBFB3FA83F503FA05F424FA05F631
:100290005E4012BF1643B2FA82F502FA05F4C5F1C8
:1002A00020051EBF22FA05FC44EA0C04203556EA5C
:1002B000044C4FEA144418BF641C4FF000084FF080
:1002C0000009904271EB030C39D3002919BFB1FA30
:1002D00081F701FA07F6B0FA80F700FA07F6C7F1DE
:1002E00020071EBF20FA07FC46EA0C062037B6FBA3
:1002F000F4FCA7EB0507103F07F01F0BCBF120061E
:100300000CFA0BFB2CFA06F644BFB3460026202F4E
:10031000A4BF5E464FF0000B5BEA060C08BF4FF02F
:10032000010B19EB0B09ABFB027C48EB0608C01B69
:1003300006FB02CC0BFB03CC71EB0C01C1E70B46B7
:10034000024641464846BDE8F08B13B54FF0000029
:100350004FF00001AFF30080BDE81C407047000083
:100360000FB41CB5074B06AA7B446946009005985C
:1003700000F0B1F90020694600F0C0F91CBC5DF83E
:1003800014FB00009103000070B504468569006805
:10039000C10601D5302600E02026C00707D070BD79
:1003A000D4E9012130469047206A401C20626D1E2E
:1003B000F6D570BD70B5044685690078C00707D1D1
:1003C00070BDD4E9012120209047206A401C2062A2
:1003D0006D1EF6D570BD00002DE9F04106460024E3
:1003E00010687529314616A510D0AFF3008000289B
:1003F00002DA404213A507E031688A0701D512A549
:1004000002E0490704D511A5012401E0AFF3008003
:1004100000210A2206F1240709E0B0FBF2FCB0FB40
:10042000F2F302FB1C00303078541846491C0028B7
:10043000F3D123462A463046BDE8F04100F0EDB83E
:10044000000000002D0000002B0000002000000034
:100450002DE9F05F894604464FF0000ADFF824B129
:10046000FB44C0F820A02046E168884700287DD0E2
:10047000252806D0D4E901219047206A401C20623B
:10048000F1E700255F462046E168884720280646B8
:1004900007DB312E05D2B81910F8200C08B105433E
:1004A000F1E7A80701D525F00405C4F81CA0002732
:1004B000C4F818A02A2E09D0304602F031FE38B315
:1004C00004EB8708303EC8F8186019E059F8041B9F
:1004D000204604EB87029161E1688847012F0646B8
:1004E00018D1E069002820DA25F020051DE0D8F8B1
:1004F000180000EB800006EB40003038C8F8180008
:100500002046E1688847064602F00AFE0028EED140
:10051000012F0AD02E2E08D12046E16888477F1C83
:100520000646022F45F02005C4DBA069002803DA47
:10053000404245F00105A061E80701D025F0100513
:10054000A6B1A6F14100192802D8203645F400656D
:100550004A463146204625604D46FFF74FFE60B1C2
:10056000012807D0ED1D25F0070000E007E000F1AD
:10057000080978E705F1040975E730467AE7206A4B
:10058000BDE8F09FFC40000010B5431C02E010F8ED
:10059000011B71B18107FAD14FF0013202C88C1AE8
:1005A0008C4314EAC211F9D0C01A0A0603D0C01E47
:1005B00010BDC01A10BD0A0401D0801E10BD090272
:1005C000FCD0401E10BD4FF0000200B5134694460B
:1005D0009646203922BFA0E80C50A0E80C50B1F19B
:1005E0002001BFF4F7AF090728BFA0E80C5048BFAF
:1005F0000CC05DF804EB890028BF40F8042B08BF4D
:10060000704748BF20F8022B11F0804F18BF00F848
:10061000012B70477047704770472DE9F0470D4632
:1006200099469246044600F124080168880604D5DC
:10063000E06921F01001216000E00120A84201DD05
:10064000471B00E00027A1697A1902EB0900081A8C
:10065000A0612078C00602D42046FFF795FE002650
:1006600008E0D4E901211AF806009047206A401CEE
:10067000761C20624E45F4DB2078C0060AD5204661
:10068000FFF782FE06E0D4E9012130209047206A7E
:10069000401C2062381EA7F10107F4DC07E0D4E912
:1006A000012118F805009047206A401C2062281E8E
:1006B000A5F10105F3DC2046FFF77CFE207800065B
:1006C00002D50220BDE8F0870120FBE701694A1C42
:1006D00002610878704700B58FB0CDE90131002183
:1006E000059105497944CDE9031011466846FFF7A5
:1006F000AFFE0FB000BD0000E5FFFFFF0A6802F883
:10070000010B0A607047754600F02CF8AE460500F4
:100710006946534620F00700854618B020B5FFF71C
:1007200095FDBDE820404FF000064FF000074FF068
:1007300000084FF0000B21F00701AC46ACE8C009FF
:10074000ACE8C009ACE8C009ACE8C0098D46704708
:1007500010B50446AFF300802046BDE81040FFF717
:1007600061BD0000004870475C220020014918204C
:10077000ABBEFEE726000200704770470146014805
:1007800000F09CBF4000002010B5044800F0A8FF16
:10079000042801D0012010BD002010BD4000002021
:1007A00010B500F015F8012801D0012010BD074850
:1007B00001F0B0F8040006D14FF40061034800F0E6
:1007C00023FE00B10124204610BD0000400000209F
:1007D00008B501208DF800009DF8000008BD00005C
:1007E00038B50024009313460A460146034801F039
:1007F00099F900B10124204638BD000040000020D6
:100800007047000038B50024009313460A4601469D
:10081000034801F07BFA00B10124204638BD0000F6
:10082000400000207047FEE7014800F07FB800005C
:10083000C4000020014800F079B800002401002025
:1008400001681823CAB2103AB2FBF3F2054B6FF3FA
:100850000901032A9B5CC36500D9091D816508460F
:1008600070470000AC44000810B5014600208B69B9
:100870008A6A4FF0C07453B1B3F5005F15D072B1FE
:10088000012A0CD0022A0AD0032A09D104E01AB1A5
:10089000012A06D0022A03D1C96AC90100D5012064
:1008A00010BDC96AA142FAD010BD002AF7D0012AB2
:1008B000F2D0022AF3D0032AF3D010BD704772B6EB
:1008C000FEE70022AFF3008030B50E4B0546012055
:1008D0005C7A002C14D1587A1C54587A03EB8000AF
:1008E00045605D7A03F108002A54587A421C5A7216
:1008F000303008703A2048702F208870CC7000206B
:1009000030BD00005022002090F83510022903D09D
:100910008021416501207047052180F8351000686D
:10092000016821F001010160002070472DE9F843C2
:1009300004464FF00009CDF8009063484FF416517B
:10094000A56D0068B0FBF1F72E6894F85C100820E4
:1009500000FA01F131420FD021680A6852070BD525
:100960000A6822F004020A6094F85C108840A860CB
:10097000606D40F00100606594F85C104FF0010874
:1009800008FA01F0304208D021684969090604D507
:10099000A860606D40F00200606594F85C1004206F
:1009A0008840304208D021680968890704D5A860CA
:1009B000606D40F00400606594F85C101020884081
:1009C000304218D021680968090714D5A86020684A
:1009D0000168490304D50068000308D5A16C07E04D
:1009E0000168C90503D4016821F008010160216C88
:1009F00009B12046884794F85C1020208840304296
:100A000031D021680968C9062DD5A86094F8350051
:100A100005282068016806D0490347D5006800030F
:100A20001DD4616C1CE021F0160101602068416951
:100A300021F080014161206C08B9A06C20B12068D0
:100A4000016821F00801016094F85C103F208840A3
:100A5000A86084F8358084F83490216D1FE0E16B44
:100A600009B120468847606D00282BD0606DC00713
:100A700014D0052084F835002068016821F00101B8
:100A800001600098401C0090B84203D820680068BC
:100A9000C007F6D184F8358084F83490E16C0029E1
:100AA00010D001B02046BDE8F04308470168C905F1
:100AB000D5D4016821F01001016084F8358084F8F4
:100AC0003490CCE7BDE8F883340000202DE9F041F4
:100AD000044600F075F906465CB1022084F8350042
:100AE000002584F834502068016821F0010101607C
:100AF0000DE00120BDE8F08100F062F9801B0528BF
:100B000005D920206065032084F83500F2E72068CD
:100B10000068C007F0D12268116820480140D4E97C
:100B200001031843D4E90336334318436369184378
:100B3000A3691843E3691843236A18430843616AA9
:100B4000042903D1D4E90B1319430843106020682A
:100B50004069666A20F0070130460E4301270428E9
:100B60000CD1A06A0643E06A40B12046FFF77CFE44
:100B700020B14020606584F83570BAE7206846618E
:100B80002046FFF75DFE94F85C203F219140816094
:100B9000656584F835700020ACE700003F8010F0F8
:100BA00070B5044600F00CF90546601C02D00448FC
:100BB0000078044400F004F9401BA042FAD370BD51
:100BC000280000202DE9F84FDFF8BCA10022012504
:100BD0000AF1040B03264FF00F090BF1040E00BFBE
:100BE0000B6805FA02F42340A34270D10F7907F095
:100BF0000307012F01D0022F16D187684FEA420860
:100C000006FA08FC27EA0C07D1F80CC00CFA08FC1D
:100C10004CEA070CC0F808C04768A7430C79C4F336
:100C2000001494403C4344600C79E443A4070AD088
:100C3000C4684FEA420C06FA0CF7BC438F6807FA07
:100C40000CF72743C7600C7904F00304022C12D17F
:100C5000D40800EB840CDCF820405707FF0E09FA9B
:100C600007F824EA0804D1F8108008FA07F848EADF
:100C70000408CCF8208004684FEA420C06FA0CF70E
:100C8000BC430F7907F0030707FA0CF72743076007
:100C90004C6814F4403F70D03C4C276847F48047C0
:100CA0002760246822F0030704F480440094384C41
:100CB00007EB040CDCF8084897074FEA177809FAA5
:100CC00008F7BC43334FB84202D1002724E054E078
:100CD000314FB84201D101271EE0304FB84201D157
:100CE000022719E02E4FB84201D1032714E02D4FFF
:100CF000B84201D104270FE02B4FB84201D105279C
:100D00000AE02A4FB84201D1062705E0284FB84231
:100D100001D1072700E0082707FA08F72743CCF896
:100D20000878DAF800405746D1F804C09C435FEADF
:100D3000CC3C00D51C433C60DBF800405F46D1F85A
:100D400004C09C435FEA8C3C00D51C433C60DEF849
:100D500000407746D1F804C09C435FEACC2C00D514
:100D60001C433C60084F0C373C68D1F804C09C43DE
:100D70005FEA8C2C00D51C433C60521C102AFFF407
:100D80002FAFBDE8F88F0000003C0140443802401E
:100D90000030014000000240000402400008024010
:100DA000000C0240001002400014024000180240F3
:100DB000001C02400AB1816170470904FBE7000092
:100DC00001488068704700002800002002488168C0
:100DD0000278114481607047280000200B4810B54C
:100DE000016841F400710160016841F480610160B3
:100DF000016841F480710160032000F06FF8002069
:100E000000F006F800F024F8002010BD003C02407D
:100E100070B50D4D04464FF47A712878B1FBF0F0AF
:100E20000A490968B1FBF0F001F046F848B9102C06
:100E300007D200222146501E00F030F800206C60DE
:100E400070BD012070BD000028000020340000208B
:100E50000A4808B5016841F480410160006800F467
:100E6000804000900548001F016841F080510160FA
:100E7000006800F08050009008BD00004438024037
:100E8000002809DB00F01F02012191404009800089
:100E900000F1E020C0F8001170470000F0B40E4BE4
:100EA0001B680C46C3F30223C3F10705042D00D9C8
:100EB0000425191D072901D2002300E0DB1E0126AD
:100EC00006FA05F1491E214099409E40761E1640C3
:100ED0003143F0BC02F014B90CED00E0064900F01B
:100EE000070208684FF6FF03184040EA0220034A51
:100EF00010430860704700000CED00E00000FA05A8
:100F00002DE9F0470E46050065D0DFF81481D8F8CA
:100F10000000F7B200F00700B04207D288F8007076
:100F2000D8F8000000F00700B04254D128683D4CCA
:100F3000810712D5400703D5206840F4E0502060B7
:100F40002878000703D5206840F4604020602068BE
:100F5000A96820F0F000084320602878C0072DD051
:100F6000304968680839012812D0022813D00328B4
:100F700011D00968890700292DDA216821F00301C1
:100F800001432160FFF71CFF814641F2883A0EE0E1
:100F900009688903EFE709688901ECE7FFF710FFAB
:100FA000A0EB0901514502D90320BDE8F087206874
:100FB000696800F00C00B0EB810FEFD1D8F8001099
:100FC000404601F00701B14207D90770006800F000
:100FD0000700B04201D00120E7E72878400705D597
:100FE0002068E96820F4E050084320602878000772
:100FF00006D52068296920F4604040EAC1002060DD
:1010000000F018F82168084AC1F30311515CC84088
:101010000649086006480068FFF7FAFE0020C4E7AA
:10102000003C024008380240B4440008340000206C
:101030002C000020154810B5006810F00C02144870
:1010400013D04110042A0FD0082A0ED10F4C241FB0
:101050002268236802F03F025B0207D52068C0F3D4
:101060008810A0FB010106E0084610BD2168C1F30D
:101070008811A1FB00010023FFF7FAF82168C1F3F2
:101080000141491C4900B0FBF1F010BD0838024095
:101090000024F4002DE9F84F04006ED02078DFF82A
:1010A0004C93C007A9F104054AD009F10400016876
:1010B000C1F38101012908D00068C0F38100022832
:1010C0000AD1D9F80000400206D52868800337D538
:1010D00060680028E1D033E06068B0F5803F10D050
:1010E000B0F5A02F286810D020F480302860286840
:1010F00020F4802028606068A8B1FFF761FE0646F2
:101100000DE0286840F48030F4E740F48020286047
:10111000F7E700BFFFF754FE801B642873D82868E8
:101120008003F7D50CE0FFF74BFE064605E000BF55
:10113000FFF746FE801B6428F0D828688003F7D4A8
:101140002078DFF8AC8280074FF0000A3ED5A74830
:10115000001D016811F00C0F08D00068C0F3810079
:1011600002280BD1D9F80000400207D42868800774
:1011700016D5E068012800D112E033E1E068B8B18B
:101180000120C8F80000FFF71BFE064605E000BF7F
:10119000FFF716FE801B0228C0D828688007F7D505
:1011A0002868216920F0F80040EAC10028600DE0BD
:1011B000C8F800A0FFF704FE064604E0FFF700FEB3
:1011C000801B02281FD828688007F7D420780007E2
:1011D00022D5864F87486169703771B1012101605E
:1011E000FFF7EEFD064604E0FFF7EAFD801B02284C
:1011F00009D838688007F7D50EE0C0F800A0FFF7DF
:10120000DFFD064605E082E0FFF7DAFD801B0228DD
:101210007DD838688007F7D42078400768D5DFF894
:10122000CCB100270BF13C0BDBF80000C0000BD465
:10123000DBF8001041F08051CBF80010DBF8000023
:10124000012700F0805000906B4E3068C00510D42C
:10125000306840F480703060FFF7B2FD009005E028
:10126000FFF7AEFD0099401A022850D83068C0053B
:10127000F6D55E4EA0686C3601280FD00528306880
:1012800010D020F001003060306820F004003060A1
:10129000A068B8B1FFF794FD00900FE0306840F00F
:1012A0000100F4E740F004003060F7E7FFF788FD45
:1012B0000099411A41F28830814266D8306880072F
:1012C000F4D50EE0FFF77CFD009007E0FFF778FD16
:1012D0000099411A41F28830814256D8306880071F
:1012E000F4D42FB1DBF8001021F08051CBF80010BE
:1012F000A069C8B33D49091D0968C1F381010229EC
:101300004AD00228504607D0C8F8600000E03CE010
:10131000FFF756FD04463BE04746C8F86000FFF77C
:101320004FFD064605E000BFFFF74AFD801B02287F
:101330002BD828688001F7D4D4E907010843A16AB3
:101340002E4A490802EB0141626A41EA82110843D0
:1013500094F82C1040EA0161C9F8001001203866A9
:10136000FFF72EFD044606E03EE000BFFFF728FD34
:10137000001B022809D828688001F7D534E000BF97
:10138000FFF71EFD001B022802D90320BDE8F88FDD
:1013900028688001F4D427E00128F7D0D9F80000AC
:1013A000E26900F4800191421CD1226A00F03F0101
:1013B000914217D147F6C071626A0140B1EB821FBA
:1013C00010D1A26A4FF0FF3300F4403103EB520218
:1013D000B1EB024F06D194F82C1000F07060B0EB26
:1013E000016F01D00120D1E70020CFE7043802408F
:1013F00000004742800E4742007000400000FFFF9F
:1014000010B5FFF7BAF910BD2DE9FE4304460026DA
:1014100003200D4684F83400606C03285ED0B5F5D7
:10142000805F5BD04FF4006700204FF08068BD42C2
:101430001FD18146009001900021206801F045F8FD
:10144000800113D46946204601F0C0FB07000DD18E
:101450000198400334D5B4F850000104206801F02D
:101460006FF8070002D10221206823E0A06B384307
:1014700028E01DB1A06B40F0006023E081460090A1
:1014800001900021206801F020F88001EED4694627
:10149000204601F09BFB0700E8D10198C0030FD55F
:1014A000B4F850000104206801F04AF80700DDD1CB
:1014B0000021206801F091F80700D7D14F46D5E709
:1014C0004746D3E7A063A06B144F4FF0010848B123
:1014D0002068876384F8348001260EE0A06B40F01A
:1014E0008050EFE7211DD4E9050C0EC9CDE900506D
:1014F000CDF808C0206800F0F1FF4FF400712068BB
:1015000001F052F828B121688F63A16B0143A163F8
:10151000012684F834803046BDE8FE83FF05400094
:1015200070470000F0B5426E920F0A70426EC2F32F
:1015300083624A70426EC2F301628A70426E120C7C
:10154000CA70B0F86420120A0A7190F864204A71D7
:10155000826E120DCA80826EC2F303420A72B0F824
:101560006820C2F3C0324A72B0F86820C2F38032F9
:101570008A72B0F86820C2F34032CA72B0F86820AC
:10158000C2F300320A7300264E73426C4FF40075AA
:10159000012462B1012A3AD0026847499163816B04
:1015A00041F08051816380F834400120F0BDB0F8F3
:1015B0006820C36E9205120D42EA93720A61C26EF0
:1015C000C2F3C2620A75C26EC2F302624A75C26E8B
:1015D000C2F342528A75C26EC2F38242CA75C26EAB
:1015E000C2F3C2320A760A69521C42650B7E03F0CE
:1015F00007039B1C9A4042650B7A03F00F0704FA1D
:1016000007F383655B0A5A43C0E917250EE090F89B
:101610006820C36E9206920A42EA13420A610A697E
:10162000521C92024265C0E91652056630F86C2FD2
:10163000C2F3803201F8192F0288C2F3C6124A7031
:10164000027802F07F028A704268D20FCA70426844
:10165000C2F341720A714268C2F382624A714268FF
:10166000C2F383528A714268C2F34052CA710E7249
:101670004268C2F300424A728288C2F3C0328A7260
:101680008288C2F38032CA728288C2F340320A73FF
:101690008288C2F300324A738288C2F381228A733D
:1016A0008288C2F30122CA730079C0F3460008742D
:1016B0004C740020F0BD0000FF054000426C0A6041
:1016C000826C4A60C26C8A60026DCA60426D0A61B7
:1016D000826D4A61C26D8A61006EC86100207047E8
:1016E00070B50446B0F8500000250104206801F0F0
:1016F0007EF818B1A16B0143A16304E000212068CA
:1017000000F0E3FE0546C5F3432070BDF8B5056B58
:1017100004460068416B09041BD5290719D5D4E993
:101720000A56002E14D00027206800F0F1FE05F8BC
:10173000010B010A05F8011B010C05F8021B000E44
:10174000361F7F1C05F8010C082FEDD3C4E90A569B
:10175000F8BD416B4FF00006C9054FF0010744D5B5
:10176000390281632068C16B4CF23A329143C16304
:101770002068C16A21F00101C16228071DD515F05A
:10178000220F09D0206801F063F828B1A16B014352
:10179000A1632046FFF7C4FE216840F23A508863F7
:1017A00084F834702663A80703D0204600F0A6FA18
:1017B000F8BD204600F0A6FAF8BD2806FCD5A8061C
:1017C00009D5206801F044F828B1A16B0143A16359
:1017D0002046FFF7A5FEA807EED12068C16A21F0D8
:1017E0000801C16284F83470E3E7416B490424D5F1
:1017F000290722D5D4E90856002EDDD05FF0000776
:1018000015F8010B009015F8011B361F40EA012066
:10181000009015F8021B40EA0140009015F8011CE9
:1018200040EA016000906946206800F084FE7F1C59
:10183000082FE5D3C4E90856F8BD416B40F23A22BF
:101840001142F9D0416B890703D5A16B41F0020128
:10185000A163416B090703D5A16B41F00801A163A6
:10186000416B890603D5A16B41F02001A163416B57
:10187000C90603D5A16B41F01001A163416B890535
:1018800003D5A16B41F00801A16340F23A71816375
:101890002068C16B40F23A329143C163206800F086
:1018A000D7FFA16B0843A063280706D584F83470DE
:1018B00026632046FFF734FEF8BD2806FCD515F058
:1018C000300F0CD0E16B11480865E06BFFF71CF896
:1018D0000028F1D0E06BBDE8F84001F055B9A80749
:1018E0000CD0216C0A480865206CFFF70DF8002821
:1018F000E2D0206CBDE8F84001F024B9A66384F87A
:10190000347026632046FFF77BFDF8BD892B000865
:10191000452B000870B504000ED094F83400002563
:1019200018B92577204600F04BF8032084F83400DE
:10193000204600F00BF808B1012070BDA5632563B7
:10194000012084F83400002070BD0000FEB50025A1
:10195000044676200095CDE9015029460B460A46FB
:10196000206800F0BBFD28BB134E46F8A05F20683E
:1019700000F0C6FD01253560204601F00BFA28B1C4
:1019800084F83450A16B0143A16313E0204601F0B9
:101990008AF90028F4D14FF40071206800F004FEA9
:1019A000002808D0226805499163A16B0143A16317
:1019B00084F834500120FEBD00802542FF05400020
:1019C0002DE9F04F87B0054614216846FEF7FBFD70
:1019D0004E49286888427DD14D4800684C4940F402
:1019E00000600860086800F40060059048481438FA
:1019F0000068474940F0040014390860086800F0A6
:101A000004000590086840F0080008600868012498
:101A100000F0080005904FF4706000900220CDE9BE
:101A20000104032003900C203A4F04906946384685
:101A3000FFF7C8F826030220CDE9006000200290DD
:101A4000032003900C20049069463846FFF7BAF84B
:101A5000042702200097CDE90104032003900C2005
:101A6000049069462C48FFF7ADF82D4C2B484FF0F9
:101A70000068C4E9000800204FF4806AA060C4E94F
:101A8000030AC4E9080704F114014FF480494FF038
:101A9000200B81E8400AF60214310320B71081E8D8
:101AA000C1002046FFF712F808B1FEF708FF2C64CA
:101AB0001A48A5631A4C483060344FF48051C4E989
:101AC00000084020A0600020C4E9030AC4E907B070
:101AD000042000E017E0606204F12802032082E89D
:101AE000C100C4E905192046FEF7F0FF08B1FEF772
:101AF000E6FEEC63002211463120A563FFF7CEF924
:101B00003120FFF7BDF907B0BDE8F08F002C014090
:101B10004438024000080240000C02405864024071
:101B2000C40000202DE9F04F87B09B4616460D46B5
:101B30000446FFF745F900903DB194F834000128C0
:101B400007D0A06B40F000500DE0A06B40F00060AB
:101B500009E00020A063E26D06EB0B01914204D97D
:101B6000A06B40F00070A06386E0032184F834107D
:101B70002168C862616C012900D076024FF0FF3104
:101B800001914FEA4B2102914FF0010803AA9021E5
:101B900002278146CDF8188082E8820201A92068D8
:101BA00000F07DFCBBF1010F05D9276331462068A9
:101BB00000F08EFD05E0C4F830803146206800F06A
:101BC000A0FDDFF834A130B12268C2F838A0A16BC3
:101BD0000143A1634CE0029E1EE0406B000413D55C
:101BE00096B10027206800F093FC05F8010B010A6C
:101BF00005F8011B010C05F8021B000E361F7F1CA7
:101C000005F8010C082FEDD3FFF7DAF80099411A17
:101C1000109881421DD2E0B12068426B40F22A3117
:101C20000A42DAD0416BC90509D5BBF1010F06D9CB
:101C3000616C032903D000F00BFE0028C4D120689A
:101C4000416B09071AD5C0F838A0A06B40F0080016
:101C500050E02168C1F838A0A06B40F00040A063BC
:101C600084F83480C4F83090032007B0BDE8F08FCA
:101C700084F83480C4F830900120F6E7416B89077E
:101C800005D5C0F838A0A06B40F0020032E0416BEF
:101C900089061BD5C0F838A0A06B40F0200029E0D1
:101CA00000F036FC05F8010B010A05F8011B010CD8
:101CB00005F8021B000E05F8010C361FFFF780F82F
:101CC0000099411A109881420ED268B12068416B88
:101CD000890201D5002EE3D1216840F23A50886391
:101CE00084F834800020C0E72168C1F838A0A06BD8
:101CF00040F00040A063BBE7FF05400010B5FEF7D1
:101D00007FFD10BD10B5FEF78DFD10BD2DE9F04F24
:101D10008DB09B4616460D460446FFF751F80A90D3
:101D20003DB194F83400012807D0A06B40F000507A
:101D30000DE0A06B40F0006009E00020A063E26DC0
:101D400006EB0B01914204D9A06B40F00070A06338
:101D50007AE0032184F834102168C862616C01299B
:101D600000D076024FF0FF3103914FEA4B210491EE
:101D70009021CDE905104FF00109CDE90709824610
:101D800003A9206800F08BFBBBF1010F06D92020CE
:101D900020633146206800F075FD05E010202063C7
:101DA0003146206800F087FD5FEA000806D0216810
:101DB00040488863A06B40EA080071E0049E27E079
:101DC000406B40041CD5DEB15FF0000715F8010B35
:101DD000009015F8011B361F40EA0120009015F80D
:101DE000021B40EA0140009015F8011C40EA016026
:101DF00000906946206800F09EFB7F1C082FE5D309
:101E0000FEF7DEFF0A99411A1698814220D2F8B1F6
:101E10002068416B40F21A321142D1D0416BC905A2
:101E200023D5BBF1010F20D9616C03291DD000F02F
:101E30000FFDD0B122681F499163A16B0143A163DB
:101E400084F83490C4F830A001200DB0BDE8F08FC4
:101E5000216818488863A06B40EA0800A06384F8F2
:101E60003490C4F830A00320EFE72068416B0907E5
:101E700005D510498163A06B40F0080010E0416B6C
:101E8000890705D50B498163A06B40F0020007E08C
:101E9000416BC90606D507498163A06B40F010006D
:101EA000A063CDE740F23A51816384F8349000207A
:101EB000CBE70000FF05400010B5401EB0F1807F69
:101EC00001D3012010BD4FF0E02460610F216017A5
:101ED00001F016F90020A06107202061002010BD4C
:101EE0007047704770B590F83C20012A32D0012429
:101EF00080F83C40022280F83D2003685A689D68C3
:101F000022F070060A6832435A60134B02689A4204
:101F100014D0B2F1804F11D0104B9A420ED0104B1A
:101F20009A420BD00F4B9A4208D00F4B9A4205D0E1
:101F30000E4B9A4202D00E4B9A4204D1496825F0CA
:101F400080031943916080F83D40002180F83C10E7
:101F5000084670BD022070BD000001400004004032
:101F600000080040000C0040000401400040014017
:101F70000018004010B5040003D094F83D0010B1E3
:101F800007E0012010BD002084F83C00204600F04E
:101F90001FF8022084F83D00211D206801F016F88A
:101FA000012084F8460084F83E0084F83F0084F85D
:101FB000400084F8410084F8420084F8430084F82B
:101FC000440084F8450084F83D00002010BD000066
:101FD00008B50068B0F1804F12D10A48016841F09D
:101FE000010101600068002200F00100009011462C
:101FF0001C20FEF753FFBDE808401C20FEF740BF41
:1020000008BD00004038024090F83D10012901D081
:1020100001207047022180F83D100168CA6842F033
:102020000102CA6000681149884214D0B0F1804FA3
:1020300011D00F4988420ED00E4988420BD00E496C
:10204000884208D00D49884205D00D49884202D007
:102050000C49884204D1816801F00701062903D0A8
:10206000016841F00101016000207047000001405B
:102070000004004000080040000C00400004014043
:10208000004001400018004070B5044690F83C0044
:102090000025012817D0012684F83C60022084F82E
:1020A0003D002068826822F0770222F47F4282603D
:1020B0000868502838D00DDC20284FD005DC90B3BC
:1020C000102811D14AE0022070BD302846D04028A7
:1020D0000AD13BE060282FD070280DD0B0F5805F8A
:1020E00003D0B0F5005F12D0012584F83D600020D8
:1020F00084F83C00284670BDCB68D1E901212068F6
:1021000000F0C8FF2068816841F0770109E0CB68E2
:10211000D1E90121206800F0BDFF2068816841F409
:1021200080418160E1E719E0CA684968206800F0F1
:10213000C3FF5021206806E0CA684968206800F0A3
:10214000CCFF6021206800F0AFFFCEE7CA68496885
:10215000206800F0B1FF40212068F4E722680146C2
:102160001046F0E7704770B50446006801694FF00B
:102170000005C943890715D4C168C943890711D42B
:10218000E91E0161012020772068806980072046D0
:1021900002D0FFF7E7FF04E000F098F8204600F0D7
:1021A00096F8257720680169C943490717D4C168A3
:1021B000C943490713D46FF004010161022020775D
:1021C0002068806910F4407F204602D0FFF7CAFFE4
:1021D00004E000F07BF8204600F079F825772068CD
:1021E0000169C943090716D4C168C943090712D454
:1021F0006FF008010161042020772068C069800722
:10220000204602D0FFF7AEFF04E000F05FF8204662
:1022100000F05DF8257720680169C943C90617D425
:10222000C168C943C90613D46FF0100101610820C9
:1022300020772068C06910F4407F204602D0FFF765
:1022400091FF04E000F042F8204600F040F82577C6
:1022500020680169C943C90708D1C168C943C907D2
:1022600004D1891E0161204600F032F8206801691E
:10227000C943090609D4C168C943090605D46FF0EA
:10228000800101612046FFF72BFE20680169C943E8
:10229000490609D4C168C943490605D46FF0400115
:1022A0000161204600F048F820680169C9438906A9
:1022B0000BD4C168C943890607D46FF020010161BE
:1022C0002046BDE87040FFF70CBE70BD70477047F8
:1022D00038B5134C207880F00100207004F10D0017
:1022E00081780091437802780EA1401FFEF738F8FC
:1022F000332204F113010F4801F032FA607004F147
:102300000800FEF741F90246231D191D094801F096
:102310007CFB6070BDE83840064801F0E1B9000080
:1023200000000020253032643A253032643A2530EE
:1023300032640A00001200207047FEE70D4808B51D
:10234000016841F4800101600068002200F480000F
:10235000009011463B20FEF7A1FD3B20FEF790FDCB
:10236000002211464520FEF799FDBDE808404520B2
:10237000FEF786BD3038024010B504490448FEF728
:10238000A0FA0249491E087010BD0000210000207B
:102390009844000830B587B014216846FEF713F959
:1023A00019480024016841F004010160016801F04E
:1023B00004010591016841F080010160016801F0AC
:1023C00080010591016841F001010160016801F09F
:1023D00001010591016841F00801016000680B4DA1
:1023E00000F008000590002202212846FEF7E2FCDA
:1023F000022000900120CDE901046946284603949B
:10240000FEF7E0FB07B030BD30380240000002406C
:10241000064805490160002141608160C160016199
:102420004161816170470000002C014040000020A4
:1024300010B586B0002417480094019402940394C8
:1024400004944FF08041059401604AF21041C0E9C4
:1024500001144FF47A71C0E903148461FFF78AFD17
:1024600008B1FEF72CFA4FF48050009069460948F5
:10247000FFF70AFE08B1FEF722FA2020CDE9040496
:1024800004A90448FFF72EFD002801D0FEF717FA33
:1024900006B010BD84010020FEE7FEE770470A6821
:1024A00042624A688262D1E902231A43D1E90431C7
:1024B0000B43C16A1A4321F0F7011143C1620020A6
:1024C0007047006800F00300704708444069704797
:1024D0000148FFF71BB900004000002070B50DF166
:1024E000100C11439CE870002343194329434268B0
:1024F000314347F6FF639A430A434260002070BDB0
:1025000010B5032101600220FEF74AFB002010BD38
:10251000D0F8800070470A688260D1E901231A432D
:10252000D1E903310B43C1681A436FF30B01114327
:10253000C160002070470968C0F880100020704713
:1025400010B586B004463720CDE900104020029037
:10255000002003904FF48060049069462046FFF706
:10256000DAFF41F288323721204600F0BDF906B08B
:1025700010BD000010B504460A4886B0014329206A
:10258000CDE9001040200290002003904FF48060BD
:10259000049069462046FFF7BEFF204600F05CFA33
:1025A00006B010BD0000108010B586B004461020A3
:1025B000CDE9001040200290002003904FF480608D
:1025C000049069462046FFF7A6FF41F288321021A9
:1025D000204600F089F906B010BD10B586B004465B
:1025E0000620CDE9001040200290002003904FF417
:1025F0008060049069462046FFF78DFF41F28832E3
:102600000621204600F070F906B010BD30B585B047
:1026100000240546009401944FF480600294CDE9B3
:10262000034069462846FFF776FF0B484FF4FA51FE
:102630000068B0FBF1F041F288314843401E03D2FC
:102640004FF0004005B030BD696B0906F6D5C520D6
:10265000A8632046F6E700003400002070B585B07E
:1026600004464FF4D570009001A9082040250026AB
:1026700081E86100C001049069462046FFF74BFFE6
:1026800012484FF4FA510068B0FBF1F041F2883182
:102690004843401E03D24FF0004005B070BD616B4F
:1026A00011F0450FF5D00905F3D4606B400701D553
:1026B000042003E0606BC00702D00120A063ECE7B8
:1026C000606B400600D5A5633046E6E73400002085
:1026D00010B586B004461220CDE9001040200290CB
:1026E000002003904FF48060049069462046FFF775
:1026F00012FF41F288321221204600F0F5F806B0B0
:1027000010BD10B586B004461120CDE90010402060
:102710000290002003904FF48060049069462046A8
:10272000FFF7F9FE41F288321121204600F0DCF873
:1027300006B010BD10B586B004460720CDE90020D4
:1027400040200290002003904FF48060049069467E
:102750002046FFF7E0FE41F288320721204600F0D4
:10276000C3F806B010BD10B586B0044600210220A3
:10277000CDE90010C020CDE902014FF48060049043
:1027800069462046FFF7C7FE204600F03DF906B037
:1027900010BD10B586B004460920CDE90010C02058
:1027A0000290002003904FF4806004906946204618
:1027B000FFF7B1FE204600F027F906B010BD10B5B6
:1027C00086B0044600213320CDE900104020CDE939
:1027D00002010001049069462046FFF79CFE41F289
:1027E00088323321204600F07FF806B010BD10B5C6
:1027F00086B004460D20CDE9001040200290002054
:1028000003904FF48060049069462046FFF783FEF2
:1028100041F288320D21204600F066F806B010BD66
:1028200030B585B00C46054600210320CDE90010E7
:102830004020CDE902010001049069462846FFF7D7
:102840006AFE22460321284600F028F905B030BD73
:1028500010B586B0044600210C20CDE900104020C0
:10286000CDE902010001049069462046FFF753FEBE
:10287000034A0C21204600F037F806B010BD0000D6
:1028800000E1F50510B586B004461920CDE9001029
:1028900040200290002003904FF48060049069462D
:1028A0002046FFF738FE41F288321921204600F019
:1028B0001BF806B010BD10B586B004461820CDE94F
:1028C000001040200290002003904FF4806004909C
:1028D00069462046FFF71FFE41F288321821204644
:1028E00000F002F806B010BD454B10B51B684FF460
:1028F000FA54B3FBF4F353435B1E02D24FF0004093
:1029000010BD426B12F0450FF6D01205F4D4426BA5
:10291000520703D504218163084610BD426BD207DC
:1029200002D00121816305E0C52282630269D2B22F
:102930008A4201D0012010BD0021FFF7C6FD3149B8
:10294000084201D1002010BD002802DA4FF00070CB
:1029500010BD410001D5402010BD810001D580206F
:1029600010BDC10002D54FF4807010BD010102D529
:102970004FF4007010BD410102D54FF4806010BDCE
:10298000C10102D54FF4006010BD010202D54FF421
:10299000805010BD410202D54FF4005010BD81029D
:1029A00002D54FF4804010BDC10202D54FF4004063
:1029B00010BD410302D54FF4003010BD810302D594
:1029C0004FF4802010BDC10302D54FF4002010BD8C
:1029D000010402D54FF4801010BD410402D54FF41C
:1029E000001010BD810402D54FF4800010BD000717
:1029F00002D54FF4000010BD4FF4803010BD000030
:102A00003400002008E0FFFD12494FF4FA52096833
:102A1000B1FBF2F141F288325143491E02D24FF02C
:102A200000407047426B12F0450FF6D01205F4D407
:102A3000416B490703D50421816308467047416B08
:102A4000C90703D00121816308467047C52181630E
:102A500000207047340000200F494FF4FA520968F3
:102A6000B1FBF2F141F288325143491E02D24FF0DC
:102A700000407047426B12F0450FF6D01205F4D4B7
:102A8000416B490703D50421816308467047C5217E
:102A900081630020704700003400002030B5204BD7
:102AA0004FF4FA541B68B3FBF4F341F288346343E8
:102AB0005B1E02D24FF0004030BD446B14F0450F56
:102AC000F6D02405F4D4436B5B0703D5042181635E
:102AD000084630BD436BDB0702D00121816303E070
:102AE0000369DBB28B4201D0012030BDC521816377
:102AF0000021FFF7EAFC10F4604F04D0410406D532
:102B00004FF4005030BD000C1080002030BD000498
:102B100002D54FF4805030BD4FF4803030BD0000FE
:102B20003400002010B5064C01202070FDF72CFE6B
:102B300018B9207820F001002070207810BD000026
:102B40001F00002010B5846B40F23A502168886362
:102B50002046FEF7C5FD012184F8341000212163D1
:102B6000062801D0052805D12068FFF771FEA16B6A
:102B70000843A063A06B0028204602D0FEF7D0FCDB
:102B800010BDFEF73DFC10BD10B5846B40F23A500D
:102B9000216888632046FEF7A3FD012184F83410E4
:102BA00000212163062801D0052805D12068FFF700
:102BB0004FFEA16B0843A063A06B0028204602D003
:102BC000FEF7AEFC10BDFEF71BFC10BD2DE9F04773
:102BD00088B00D460446FEF7F3F8002682460096BC
:102BE0000196374608212068FFF7DEFC002829D12E
:102BF000B4F8500001042068FFF7A2FC002821D19E
:102C0000401E4FF00808CDE9020830204FF00209BD
:102C1000CDE904090120CDE9067002A92068FFF77B
:102C20003EFC2068FFF7CBFD00280BD16F462068E3
:102C3000416B11F02A0F08D0416B09071AD5C0F873
:102C40003880082008B0BDE8F087416B890205D5BF
:102C5000FFF75EFC47F82600761C02E0416B890412
:102C6000EAD5FEF7ADF8A0EB0A00401CDFD14FF02B
:102C70000040E7E7416B890703D5C0F83890022090
:102C8000E0E7416B890603D5202181630846D9E737
:102C900040F23A518163019800BA2860009800BA66
:102CA00068600020CEE710B590B004460120ADF872
:102CB00038002068FFF705FC002854D0606C03281A
:102CC00042D02068FFF74FFD00284AD1002120683C
:102CD000FFF7FBFB606704212068FFF7F6FBA067A6
:102CE00008212068FFF7F1FBE0670C212068FFF75F
:102CF000ECFBC4F88000606C032825D00EA9206886
:102D0000FFF78EFD00282CD1606C03281CD0BDF885
:102D10003800206501042068FFF73BFD002820D122
:102D200000212068FFF7D1FB606604212068FFF7CF
:102D3000CCFBA06608212068FFF7C7FBE0660C21EA
:102D40002068FFF7C2FB206704212068FFF7BDFB66
:102D5000000DE06403A92046FEF7E4FB30B14FF01C
:102D6000805010B010BD4FF08060FAE7B4F850000A
:102D7000002302042068FFF7DDFC0028F1D104F1F4
:102D8000100007C88DE8070094E80F00FFF7A6FBC6
:102D90000020E6E72DE9F84F002604460096354668
:102DA000B0460068FFF732FC002827D12068FFF703
:102DB00055FC4FF0805B4FF001094FF6FF7748B1AB
:102DC000A6642068FFF722FC002817D1A06C012818
:102DD00002D020E0C4F8489000212068FFF7B0FB43
:102DE00058B918E000212068FFF7AAFB002805D198
:102DF00051462068FFF7BEFB10B15846BDE8F88F7A
:102E000000212068FFF761FB05464FEAD078009863
:102E1000401C009002E0DFF82CA00098B84202D2DB
:102E2000B8F1000FDED00098B84202D34FF08070A6
:102E3000E4E7680002D5C4F8449000E0666400202E
:102E4000DCE70000000010C170B5064C054601200B
:102E50002070FDF7A5FC18B92846FFF763FE207027
:102E6000207870BD1F00002010B5124888B01446AD
:102E70000078C00702D0032008B010BDC1B10129FD
:102E800005D0022908D003290CD00420F4E76846B5
:102E9000FDF774FC06980AE06846FDF76FFC07989A
:102EA000208005E06846FDF769FC0798400A20602D
:102EB0000020E1E71F00002070B51D4616460846B9
:102EC0000124A31E2A463146FDF78AFC28B900BF1B
:102ED000FDF75AFC0028FBD10024204670BDFFF707
:102EE00021BE000070B51D46164608460124A31EEB
:102EF0002A463146FDF786FC28B900BFFDF744FCA1
:102F00000028FBD10024204670BD7047FDF75EBF4E
:102F100030B593B030216846FDF755FB14210CA85D
:102F2000FDF751FB1D480025016841F0805101600B
:102F3000006800F0805011901948016841F4804108
:102F400001600068022400F480401190012000908C
:102F5000000401908001CDE9064004200890A820DB
:102F6000CDE9090407200B906846FEF793F808B1F5
:102F700072B6FEE70CA90F2081E831004FF4A05093
:102F80000F904FF48050109005210CA8FDF7B8FF6A
:102F9000002801D072B6FEE713B030BD40380240C1
:102FA000007000400548016841F470010160034968
:102FB0004FF00060803908607047000088ED00E045
:102FC0000148FFF7D0B8000084010020F0B5026886
:102FD000254C264D264E274F274B4FF0804CA042C4
:102FE00009D0604507D0A84205D0B04203D0B8420E
:102FF00001D0984204D122F0700E4A6842EA0E02D3
:10300000A0421BD0604519D0A84217D0B04215D0BD
:10301000B84213D0984211D0184DA8420ED0184D86
:10302000A8420BD0174DA84208D0174DA84205D092
:10303000164DA84202D0164DA84203D122F4407585
:10304000CA682A434D6922F080022A4302608A68D6
:10305000C2620A688262A04201D0984201D1096925
:10306000016301214161F0BD000001400004004006
:1030700000080040000C00400004014000400140F6
:10308000004401400048014000180040001C00407E
:103090000020004010B5846842EA032224F47F44F3
:1030A0000A432243826010BD826822F070020A4304
:1030B00042F007018160704710B5036A046A24F08A
:1030C00001040462846924F0F00444EA021423F049
:1030D0000A020A438461026210BD10B5036A23F03C
:1030E000100303628369046A23F4704343EA0232E3
:1030F00024F0A00343EA01118261016210BDFEE7E2
:103100000907090E002804DB00F1E02080F8001414
:10311000704700F00F0000F1E02080F8141D7047A8
:1031200030380A2801D20120704700207047000083
:1031300010B504460020E070401E2063204601F0D8
:103140001AF808B1042010BD04F2322000F0AAFFE2
:10315000A0F52A41553901D0032010BD94F8340060
:10316000E92805D0EB2814D194F83600902810D126
:1031700004F16A0000F08BFF0749B1EB002F06D085
:1031800004F1860000F083FF0449884201D1002049
:1031900010BD022010BD000000464154464154338A
:1031A000F0B50022144D134605EB021426685EB1FB
:1031B0000768BE4209D166688768BE4205D1A46827
:1031C0004669B44204D000E00123521C022AEBD32A
:1031D000022A01D069B904E04BB9022907D01220B4
:1031E000F0BD05EB02108089B0F5807F01D0002092
:1031F000F0BD1020F0BD00003022002030B50021CD
:10320000054B0C4603EB01121568854200D1146092
:10321000491C0229F6D330BD302200200268C06A62
:10322000938952895343B1FBF3F1001D04C81AB1CD
:10323000914203D3891AF8E70020704700680844D8
:1032400070478269891E921E8A4201D80020704709
:10325000C26A408901FB002070472DE9F0410568F2
:103260000F00804606D000F02AFE022809D2012075
:10327000BDE8F0812E6916B1A869B04207D80126D1
:1032800005E0411CF4D0A9698142F1D83E4634469C
:10329000A869641CA04202D80224022E0AD3214647
:1032A000404600F00CFE38B10128E1D0411CDFD0CF
:1032B000B442EDD10020DBE74FF0FF363246214625
:1032C000284600F071FF30B957B1224639462846EA
:1032D00000F06AFF20B101280FD001242046C7E783
:1032E0002C61D5E90501891E884201D8401E68611C
:1032F000287940F001002871F0E73446EEE700003D
:103300002DE9F0410E4624300D6804460B222021A1
:1033100000F02AFF0020014608272A5C401C202AD2
:1033200012D92F2A0BD05C2A09D02E2A01D0B942FB
:1033300014D30B2F22D02E2A20D10CE0401C2B5C62
:103340002F2BFBD05C2BF9D028443060B1B1207812
:10335000E5281FD020E008210B27DEE7802A03D3D1
:10336000114B1A4412F8802C10A300E05B1C93F858
:1033700000C0BCF1000F04D09445F7D10620BDE891
:10338000F081A2F16103192B01D8203AD2B2625424
:10339000491CC2E705202070202A01D8042000E043
:1033A0000020E0720020EAE7C4440008222A2B2C07
:1033B0003A3B3C3D3E3F5B5D7C7F0000401E022867
:1033C00012D20A4901EB00118889B0F5807F05D03F
:1033D00008B1401E80B2888110B103E00020FAE7F6
:1033E0000020086000207047022070473022002033
:1033F0002DE9F04104460021056800F0DFF80028BF
:1034000026D12846E16900F0B6FE02001FD1206AED
:10341000017899B1C17A01F03F01A171C17A090720
:103420000FD404F124010B2610F8013B11F8017BA5
:10343000DB1B761E04D0002BF6D002E0042206E04F
:103440002BB10021204600F005F80200D9D010462B
:10345000BDE8F0812DE9F047054647690468C06979
:103460008946203710B1B7F5001F02D30420BDE80C
:10347000F087A189B7FBF1F201FB127100295FD13E
:10348000401CE861A9694FF0000819B3A08962895E
:10349000B7FBF0F0521E104252D1284600F00FFD4B
:1034A000064601281FD9701C36D0A069B04241D809
:1034B000B9F1000F12D02846A969FFF7CEFE060029
:1034C0000FD0012E0FD0701C26D0204600F09CFF9C
:1034D00010BB0AE02089B0EB571F31D8C5F81C801B
:1034E000C4E70720C3E70220C1E7A289002104F155
:1034F000340000F039FE4FF0000831462046FFF757
:10350000A0FE4FF0010920630DE000BF84F8039096
:10351000204600F079FF08B10120A8E7206B08F1F0
:103520000108401C206361894145EFD8216BA1EB64
:103530000800206331462046AE61FFF782FEE86155
:103540006F61A089B7FBF0F100FB117020443430AB
:10355000286200208BE770B504460021066800F061
:103560002DF80DE03046E16900F005FE50B9206A03
:103570000078E52809D040B101212046FFF76AFF15
:103580000028EFD0042807D007E03046E16900F0BA
:10359000F2FD050003D00FE0072005460CE02022D5
:1035A0000021206A00F0E0FD0B2204F12401206AD2
:1035B00000F0D0FD0120F070284670BD2DE9F041EB
:1035C00004680F460646B1F5001F3CD2F8063AD112
:1035D0007761B56825B92078032806D3A56A25B197
:1035E0006089A18900FB01F812E02089B0EB571F28
:1035F00029D9A06A12E0304600F061FC0546401C63
:103600001FD0022D1FD3A069A8421CD9A7EB080721
:1036100047452946EFD22046FFF713FEC6E906507C
:1036200088B1A189B7FBF1F10844F061A089B7FB2B
:10363000F0F100FB11702044343030620020BDE80E
:10364000F0810120FBE70220F9E70000084910B5EE
:103650000B5C002253B901220A540A1801EB8000C6
:10366000127A40680168104688470246104610BD2D
:103670005022002030B4054C231804EB80001B7A44
:10368000406804691846A44630BC604750220020B8
:1036900030B4054D2C1805EB8000247A406885680D
:1036A0002046AC4630BC604750220020044A111826
:1036B00002EB8000097A4068426808461047000023
:1036C0005022002030B4054D2C1805EB8000247AE0
:1036D0004068C5682046AC4630BC60475022002098
:1036E00038B5044600F04AF900280CD16946204656
:1036F00000F0B3FE002806D12069FFF75FFE002826
:1037000001D10021216038BD2DE9F74181B09046FB
:1037100002980090684600F048FC040003D50B2096
:1037200004B0BDE8F0810D4E002756F824501DB1BD
:103730002846FFF763FD2F700198002800D007701E
:1037400046F8240002D0B8F1010F01D00020E7E7CD
:10375000002201A902A800F031FAE1E73C000020B4
:103760002DE9F74394B005000BD002F03F06324636
:10377000694615A800F022FA04004FF0000804D0B2
:10378000F3E0092017B0BDE8F0830098049004A886
:10379000159900F057FB04000ED19DF83F0000067C
:1037A00001D5062408E0700801D0012100E00021C5
:1037B00004A8FFF7F5FC044616F01C0F5DD04FF08F
:1037C0000109C4B1042C10D100206B4902E0401C57
:1037D000022804D201EB00121268002AF7D1022855
:1037E00007D004A8FFF7B7FE044646F008065CB110
:1037F000BBE01224B9E09DF8160010F0110F47D17C
:10380000700701D50824B0E0300747D500F0CBFBA6
:1038100007460C9839460E3000F0A6FD0C98394644
:10382000163000F0A1FD0C982021C1720C9900986F
:1038300000F01AFC074600220C99009800F080FD69
:103840000C9800211C3000F08FFD009981F8039046
:1038500017B3D1F830900022394604A800F036FDA5
:10386000040009D14946009800F085FC0400009846
:10387000A7F1010707610DD077E0ECBB9DF81600BA
:10388000C10601D5042470E0B10703D5C00701D0FB
:1038900007246AE0300701D546F040060098006B27
:1038A00068620C98A862700801D0012100E0002134
:1038B00004A800F099FB2861C0B30C99009800F0AF
:1038C000D3FBA8600C981C3000F0E1FBC5F82C80FD
:1038D000E86000992960009905F130004FF48052AA
:1038E000C988A9802E7585F81580C5F8208000212B
:1038F0008146C5F8188000E037E000F035FCB006DE
:1039000035D5EE689EB3AE610098A9684789808975
:1039100047430FE0284600F0D2FA0146012800D8BC
:103920000224481C03D0F61B24B105E021E0012449
:10393000F61B01E0BE42EDD8E961B4B90098828976
:10394000B6FBF2F302FB13628AB1FFF77AFC80B197
:10395000009901238A89B6FBF2F202442A62487870
:103960004946FFF795FE10B10124C5F800802046B6
:1039700008E70224F9E7000030220020F8B50446E9
:10398000694600F06AFD00280ED1217D4A060BD55C
:1039900008060ED50098226A0123407804F1300110
:1039A000FFF790FE08B10120F8BD207D00F07F00F8
:1039B000207500F0F8FA0646616A009800F0DBFB1B
:1039C0000028F1D1A56A2946E87A40F02000E87283
:1039D000A268206800F0B4FC05F11C00E16800F06A
:1039E000C3FC314605F1160000F0BEFC002105F1D4
:1039F000120000F0C1FC00980121C17000F0C0FC71
:103A0000217D01F0BF012175F8BD2DE9F04F8846F9
:103A100089B00021196099461546044604A900F0B2
:103A20001CFD002806D1607D002803D1207D800781
:103A300003D4072009B0BDE8F08FA069012742191F
:103A40004FF0020A04F1300B824200D2C543ACE0D1
:103A50000498A1698289B1FBF2F302FB1313002BD6
:103A600079D1B1FBF2F64089401E064018D129B148
:103A7000E06A38B12046FFF7D1FB07E0A06838B90B
:103A8000002100E0E1692046FFF7E7FB00287ED037
:103A900001282FD0411C58D0E061A16801B9A06075
:103AA000207D00060BD50498226A012340785946F0
:103AB000FFF708FEC0BB207D00F07F002075E169A4
:103AC0000498FFF7BEFBA8B13044009004988189A8
:103AD000B5FBF1F1029141B3721841898A4201D9D3
:103AE000891B029140784146029B009AFFF7EAFD4C
:103AF000D0B903E084F815A002209BE7216A009862
:103B0000081A029988420AD204998A8900FB028124
:103B1000584600F01FFB207D00F07F0020750498C0
:103B20008689029846432FE00FE0FFE7226A00995A
:103B30008A420ED0E268A16991420AD240780123FC
:103B40005946009AFFF7A4FD18B16775012071E787
:103B500001E0009820620498A1698089B1FBF0F22D
:103B600000FB1212861AAE4200D92E46B1FBF0F2CB
:103B700000FB1210204432464146303000F0EAFA91
:103B8000207D40F080002075B044A06900E00FE087
:103B90003044A061E168884200D80846E060D9F866
:103BA00000008119AD1BC9F80010002D7FF450AF43
:103BB000207D40F04000207500203BE72DE9FF41CB
:103BC000002790460E460F6000F0EFF9050003D580
:103BD0000B2004B0BDE8F081974850F825409CB117
:103BE0003460207808F0FE0620B16078FFF75EFDB3
:103BF000C1070BD02770E8B2B8466070FFF726FD0A
:103C0000C10708D00320E4E70C20E2E70EB140072B
:103C100004D40020DDE71EB1400701D50A20D8E713
:103C2000607804F10C020221FFF724FDF0BBA089AB
:103C3000A0F50071B1F5606F3FD8411E08423CD13C
:103C4000002631462046FFF773FA022822D10025CC
:103C50004FEA0D0704EB051090F8F61100F5F97026
:103C600019B1083000F013FA00E0002047F82500F1
:103C70006D1C042DEED3002557F8256036B1314672
:103C80002046FFF755FA022801D203E003206D1CFD
:103C9000042DF1D3042810D0022878D204F13F007B
:103CA00000F000FAA189884271D100E005E004F13A
:103CB0004A0000F0F7F910B105E0012089E704F1AE
:103CC000580000F0E4F9E06194F84450A570012D2B
:103CD00001D0022D5BD1454394F841006081E8B3E7
:103CE000411E084253D104F1450000F0DBF9208168
:103CF000A1894909B0FBF1F201FB120070BB04F18C
:103D0000470000F0CFF9070004D104F1540000F09F
:103D1000BEF9074604F1420000F0C4F9010036D0B4
:103D2000A08923894009B3FBF0F04A190244974265
:103D30002DD3B81A6789B0FBF7F078B103274FF697
:103D4000F57C604500D8022740F6F57C604500D838
:103D500001273244801C3144E26200E017E0A06198
:103D6000C4E90861032F14D08BB12944A162022F4A
:103D700020D000F0010100EB400001EB5000A189D0
:103D8000401E0844B0FBF1F0E169884214D90D20CF
:103D90001FE704F15E0000F085F90028F7D12089C3
:103DA0000028F4D104F1600000F071F9A062A0696C
:103DB0008000E4E74000E2E74FF0FF3060612061FF
:103DC00080202071032F2CD104F1640000F06AF9E7
:103DD000012826D1711C204600F0CDF908BB84F8DB
:103DE000048004F2322000F05DF9A0F52A41553933
:103DF00017D104F1340000F04AF91049884210D17B
:103E000004F5067000F043F90D49884209D104F524
:103E1000077000F03CF9606104F5087000F037F9B4
:103E2000206105482770001F0188491C0180E1803E
:103E30002046FFF7E3F9ECE63C00002052526141D6
:103E40007272416173B504460568019801E0401C37
:103E5000019001782F29FAD05C29F8D00021A160C7
:103E600001980078202806D2802084F82F00204670
:103E7000FFF7A4FB7CBD01A92046FFF741FA00280B
:103E8000F8D12046FFF7B4FA94F82F1028B104288F
:103E9000F0D14907EED405207CBD4907FCD4A079B8
:103EA000C006F8D5A9896069B0FBF1F201FB1200E8
:103EB00041192846343100F0D7F8A060DBE72DE93E
:103EC000F04104680D4602290BD3A069A84208D925
:103ED00020784FF0FF36012807D0022834D003287D
:103EE00049D001263046BDE8F081A08905EB550791
:103EF000B7FBF0F0616A0144204600F03CF900286D
:103F0000F0D1A089B7FBF0F100FB11717F1CB7FB6A
:103F1000F0F0214491F83480616A0144204600F0B9
:103F20002AF90028DED1A089B7FBF0F100FB11705F
:103F3000204490F8341048EA0120E90701D006092E
:103F4000D0E7C0F30B06CDE7A089616A4008B5FB56
:103F5000F0F00144204600F00EF90028C2D1A189FA
:103F60006800B0FBF1F201FB12002044343000F095
:103F700099F80646B6E7A089616A8008B5FBF0F0BB
:103F80000144204600F0F7F80028ABD1A189A80031
:103F9000B0FBF1F201FB12002044343000F077F85E
:103FA00020F070469EE70020704710B504464FF0A1
:103FB000FF302268002A13D0114600E0491C0B781C
:103FC000212B0ED33A2BF9D112F8013B303B0A2BAF
:103FD00006D28A4204D1002B02D1491C1846216026
:103FE00010BD002010BD0000F0B502461D4BD2F8F8
:103FF0000050002003EB00142668AE4207D166682B
:104000009768BE4203D1A4685669B44202D0401CEE
:104010000228EFD3022814D1002002E0401C02281D
:1040200004D203EB00142468002CF7D102280ED030
:1040300003EB00142560956865605269A260002258
:10404000A281002903EB0011898902D019B1002057
:10405000F0BD491C01E04FF4807103EB0012401CDD
:104060009181F0BD3022002070B506460D4601F169
:104070001A0000F017F804463078032805D105F13E
:10408000140000F00FF844EA0044204670BDC178E7
:10409000827842EA01214278007842EA012140EA2E
:1040A000012070474178007840EA01207047000005
:1040B000FCF794FEFEF72CFFFEF76CF9FEF73EF9D5
:1040C000FEF7A6F9FEF758F9FEF7B2F91B48FDF71F
:1040D0009BFF00221A491B48FFF716FB1A4C0B22C4
:1040E00004F1130160701948FFF73AFB607017483C
:1040F000FFF7F6FA207816A180F001002070124830
:104100000830FCF72DF91049332213310F48FFF71F
:1041100027FB60700C480830FCF736FA0A4B024661
:104120001B1D191D0948FFF770FC60700748FFF759
:10413000D7FAFA20FCF734FDDCE700008401002008
:1041400021000020CC0100200000002000120020EF
:1041500031323300002A05D011F8013B00F8013B51
:10416000521EF9D1704700005FFA81F100F8011B7F
:10417000521EFBD1704770B50446006B0D460026F9
:10418000A8420FD0204600F03FF906000AD160781F
:1041900001232A4604F13401FFF77AFA08B1751EAB
:1041A00001262563304670BD2DE9F04702261746EB
:1041B0000D46044602297DD3A069A8427AD9207809
:1041C0004FF00109012804D0022840D003287AD1F9
:1041D00054E0A18905EB5508B8FBF1F0616A014490
:1041E0002046FFF7C8FF06006DD1A189B8FBF1F2A8
:1041F00001FB12802044343008F10108E90704D0A3
:104200000178FAB262F31F1100E03946017084F8B8
:104210000390A189B8FBF1F0616A01442046FFF7E1
:10422000AAFF06004FD1A189B8FBF1F201FB128071
:1042300020443430E90702D0C7F3071105E00178C4
:10424000C7F3032201F0F0011143017039E0A089A6
:10425000616A4008B5FBF0F001442046FFF78BFF90
:10426000060030D1A1896800B0FBF1F201FB120019
:104270002044B9B2343000F07FF822E0A089616AAE
:104280008008B5FBF0F001442046FFF774FF0600FC
:1042900019D1A089AD00B5FBF0F100FB115020440D
:1042A0003430FFF7F4FE67F31B000146A089B5FB2D
:1042B000F0F200E007E000FB12502044343000F040
:1042C00053F884F803903046BDE8F0872DE9F041BB
:1042D000056813460E46074602292DD3A869B04249
:1042E0002AD93BB14FF0FF3219462846FFF75CFF51
:1042F00000281FD131463846FFF7E1FD040018D0F1
:10430000012C19D0601C19D0002231462846FFF735
:104310004BFF00280ED1D5E90510821E914205D22F
:10432000491C6961297941F0010129712646B04291
:10433000E0D80020BDE8F0810220FBE70120F9E78A
:1043400070B50C460646154691B204F11A0000F00D
:1043500013F83078032806D1290C04F11400BDE8C5
:10436000704000F009B870BD0170090A4170090A77
:104370008170090AC17070470170090A4170704765
:1043800070B5044600F040F8050036D120780328C7
:104390002CD12079012829D104F13400A2890021EF
:1043A0000646FFF7E1FE4AF6552104F23220FFF7F8
:1043B000E3FF13493046FFF7D7FF124904F50670B3
:1043C000FFF7D2FF04F507706169FFF7CDFF04F531
:1043D00008702169FFF7C8FF226A0123521C22637B
:1043E00060783146FFF76EF9002020710022607876
:1043F0001146FFF73FF900B10125284670BD0000C6
:1044000052526141727241612DE9F0410446C07817
:104410000027F8B1256B04F13401607801232A46A6
:104420008846FFF74FF908B1012713E00020E0703C
:10443000606AE169281A88420CD2A67808E0E0692F
:104440000123054460782A464146FFF73BF9761E72
:10445000022EF4D23846BDE8F08170B50E46040055
:104460004FF009050CD0206850B1017841B1A18806
:10447000C288914204D14078FFF718F9C00703D0F1
:1044800000203060284670BD00252068F9E74FF015
:104490004070E1EE100A7047492E0008DF2E000838
:1044A000B92E0008E52E0008692E00080006101637
:1044B00000061016000000000000000001020304C6
:1044C0000607080943554541414141434545454992
:1044D000494941414592924F4F4F5555594F554F7C
:1044E0009C4F9E9F41494F55A5A5A6A7A8A9AAAB39
:1044F000ACADAEAFB0B1B2B3B4414141B8B9BABBE3
:10450000BCBDBEBFC0C1C2C3C4C54141C8C9CACB7E
:10451000CCCDCECFD1D145454549494949D9DADB42
:10452000DCDD49DF4FE14F4F4F4FE6E8E855555589
:104530005959EEEFF0F1F2F3F4F5F6F7F8F9FAFB6A
:10454000FCFDFEFF0100040010004000000100021D
:10455000000001000200040008001000200000001C
:10456000040000080000000000000002000100003C
:1045700010000000944500080000002040000000EA
:10458000C4010008D4450008400000208028000035
:10459000E001000800000000000000000000000032
:1045A00000000000000000444154413435362E74B0
:1045B000787400010000000000000000010000000D
:1045C00010000000000000000024F40000000000C3
:0445D00000000000E7
:040000050800018965
:00000001FF
