:020000040800F2
:10000000480400209D010008470C0008E30B00088D
:10001000450C0008A9020008550D0008000000006A
:10002000000000000000000000000000970C000825
:10003000AB02000800000000490C0008990C000801
:10004000B7010008B7010008B7010008B7010008B0
:10005000B7010008B7010008B7010008B7010008A0
:10006000B7010008B7010008B7010008B701000890
:10007000B7010008B7010008B7010008B701000880
:10008000B7010008B7010008B7010008B701000870
:10009000B7010008B7010008B7010008B701000860
:1000A000B7010008B7010008B7010008B701000850
:1000B000B7010008B7010008B7010008B701000840
:1000C000B7010008B7010008B7010008B701000830
:1000D000B7010008B7010008B7010008B701000820
:1000E000B7010008B7010008B7010008B701000810
:1000F000B7010008B7010008B7010008B701000800
:10010000B7010008B7010008B7010008B7010008EF
:10011000B7010008B7010008B7010008B7010008DF
:10012000B7010008B7010008B7010008B7010008CF
:10013000B7010008B7010008B7010008B7010008BF
:10014000B7010008B7010008B7010008B7010008AF
:10015000B7010008B7010008B7010008B70100089F
:10016000B7010008B7010008B7010008B70100088F
:10017000B7010008B7010008B7010008000000003F
:10018000B7010008B7010008DFF80CD000F07AF8DA
:1001900000480047950D00084804002006488047A5
:1001A00006480047FEE7FEE7FEE7FEE7FEE7FEE75C
:1001B000FEE7FEE7FEE7FEE7390D000889010008CB
:1001C0002DE9F05F0546002092469B46884606468C
:1001D000814640241BE0284641464746224600F01F
:1001E00041F853465A46C01A914110D31146184659
:1001F000224600F028F82D1A67EB01084F462246E8
:100200000120002100F01FF817EB00094E41201ECD
:10021000A4F10104DFDC484631462A464346BDE8E6
:10022000F09FD2B201E000F8012B491EFBD27047CB
:100230000022F6E710B513460A4604461946FFF7B2
:10024000F0FF204610BD202A04DB203A00FA02F11C
:10025000002070479140C2F1200320FA03F31943B4
:1002600090407047202A04DB203A21FA02F0002156
:10027000704721FA02F3D040C2F1200291400843B6
:1002800019467047064C074D06E0E06840F0010350
:1002900094E8070098471034AC42F6D3FFF778FF94
:1002A000E00D0008000E0008FEE7704770470000F0
:1002B00070B5044600F00EF80546601C02D00448F4
:1002C0000078044400F006F8401BA042FAD370BD49
:1002D00004000020014880687047000004000020EE
:1002E0000248816802781144816070470400002050
:1002F0000B4810B5016841F400710160016841F4D8
:1003000080610160016841F480710160032000F0A8
:1003100061F8002000F006F800F024F8002010BD7D
:10032000003C024070B50D4D04464FF47A712878B8
:10033000B1FBF0F00A490968B1FBF0F000F03DFCB8
:1003400048B9102C07D200222146501E00F022F896
:1003500000206C6070BD012070BD00000400002012
:10036000100000200A4808B5016841F4804101608E
:10037000006800F4804000900548001F016841F0CB
:1003800080510160006800F08050009008BD0000BE
:1003900044380240F0B40E4B1B680C46C3F30223F2
:1003A000C3F10705042D00D90425191D072901D221
:1003B000002300E0DB1E012606FA05F1491E21405C
:1003C00099409E40761E16403143F0BC00F0C3BCFD
:1003D0000CED00E0064900F0070208684FF6FF0345
:1003E000184040EA0220034A1043086070470000AA
:1003F0000CED00E00000FA052DE9F8430546006821
:100400004FF00109C1074FF0000601D1400727D581
:10041000DFF80C81C8F86860FFF75CFF0746414CC5
:1004200005E000BFFFF756FFC01B022857D8206821
:100430000001F7D468688101287A41EA00703949DF
:1004400084310860C8F86890FFF744FF074604E06D
:10045000FFF740FFC01B022841D820680001F7D5F4
:100460002878800752D52F484030016841F08051EC
:10047000016000682C4C00F080500090206840F42F
:1004800080702060FFF726FF074604E0FFF722FF99
:10049000C01B022823D82068C005F7D5214C703432
:1004A000206810F4407020D0A98901F44071814285
:1004B0001BD020681D4920F44070C1F800900E60E8
:1004C00020602068C00710D0FFF704FF064641F205
:1004D000883707E0FFF7FEFE801BB84202D90320F1
:1004E000BDE8F88320688007F4D5E9680D48C1F3BA
:1004F00001220830032A0BD0016821F4F8110160B1
:100500002068A989C1F30B01084320600020E7E7B8
:100510000268074B22F4F81219400A430260EFE721
:10052000000047420038024000700040400E474241
:10053000FFFCFF0F2DE9F0470E46050065D0DFF800
:100540001481D8F80000F7B200F00F00B04207D2D3
:1005500088F80070D8F8000000F00F00B04254D1C5
:1005600028683D4C810712D5400703D5206840F428
:10057000E05020602878000703D5206840F46040F0
:1005800020602068A96820F0F000084320602878E7
:10059000C0072DD0304968680839012812D00228D8
:1005A00013D0032811D00968890700292DDA2168A2
:1005B00021F0030101432160FFF78CFE814641F2E7
:1005C000883A0EE009688903EFE709688901ECE7DA
:1005D000FFF780FEA0EB0901514502D90320BDE8D9
:1005E000F0872068696800F00C00B0EB810FEFD154
:1005F000D8F80010404601F00F01B14207D907704A
:10060000006800F00F00B04201D00120E7E7287831
:10061000400705D52068E96820F4E05008432060D1
:100620002878000706D52068296920F4604040EA50
:10063000C100206000F018F82168084AC1F30311D6
:10064000515CC8400649086006480068FFF76AFE2A
:100650000020C4E7003C024008380240D00D0008EA
:100660001000002008000020154810B5006810F0A8
:100670000C02144813D04110042A0FD0082A0ED1BE
:100680000F4C241F2268236802F03F025B0207D54B
:100690002068C0F38810A0FB010106E0084610BDE9
:1006A0002168C1F38811A1FB00010023FFF788FD39
:1006B0002168C1F30141491C4900B0FBF1F010BDB4
:1006C000083802400024F4002DE9F84F04006ED0F1
:1006D0002078DFF83C93C007A9F104054AD009F15E
:1006E00004000168C1F38101012908D00068C0F34A
:1006F000810002280AD1D9F80000400206D52868F6
:10070000800337D560680028E1D033E06068B0F539
:10071000803F10D0B0F5A02F286810D020F4803092
:100720002860286820F4802028606068A8B1FFF75E
:10073000D1FD06460DE0286840F48030F4E740F42F
:1007400080202860F7E700BFFFF7C4FD801B642806
:1007500073D828688003F7D50CE0FFF7BBFD064689
:1007600005E000BFFFF7B6FD801B6428F0D82868BD
:100770008003F7D42078DFF89C8280074FF0000ACE
:100780003ED5A348001D016811F00C0F08D0006889
:10079000C0F3810002280BD1D9F80000400207D431
:1007A0002868800716D5E068012800D112E02BE107
:1007B000E068B8B10120C8F80000FFF78BFD0646DD
:1007C00005E000BFFFF786FD801B0228C0D828681F
:1007D0008007F7D52868216920F0F80040EAC100B9
:1007E00028600DE0C8F800A0FFF774FD064604E09D
:1007F000FFF770FD801B02281FD828688007F7D4F8
:100800002078000722D5824E83486169703671B125
:1008100001210160FFF75EFD074604E0FFF75AFD86
:10082000C01B022809D830688007F7D50EE0C0F851
:1008300000A0FFF74FFD074605E082E0FFF74AFD05
:10084000C01B02287DD830688007F7D42078400785
:1008500068D5DFF8BCB100270BF13C0BDBF80000DA
:10086000C0000BD4DBF8001041F08051CBF8001031
:10087000DBF80000012700F080500090674E3068E0
:10088000C00510D4306840F480703060FFF722FD5E
:10089000009005E0FFF71EFD0099401A022850D88D
:1008A0003068C005F6D55A4EA0686C3601280FD0C6
:1008B0000528306810D020F001003060306820F04A
:1008C00004003060A068B8B1FFF704FD00900FE0AD
:1008D000306840F00100F4E740F004003060F7E7D2
:1008E000FFF7F8FC0099411A41F28830814266D83E
:1008F00030688007F4D50EE0FFF7ECFC009007E0CD
:10090000FFF7E8FC0099411A41F28830814256D83D
:1009100030688007F4D42FB1DBF8001021F080514B
:10092000CBF80010A069C8B33949091D0968C1F3A3
:10093000810102294AD00228504607D0C8F8600039
:1009400000E03CE0FFF7C6FC04463BE04746C8F841
:100950006000FFF7BFFC064605E000BFFFF7BAFCEA
:10096000801B02282BD828688001F7D4D4E907011E
:100970000843A16A2A4A490802EB0141626A41EA36
:100980008211084394F82C1040EA0161C9F8001064
:1009900001203866FFF79EFC044606E036E000BF03
:1009A000FFF798FC001B022809D828688001F7D5BA
:1009B0002CE000BFFFF78EFC001B022802D90320A9
:1009C000BDE8F88F28688001F4D41FE00128F7D033
:1009D000D9F80000E26900F48001914214D1226A42
:1009E00000F03F0191420FD147F6C071626A0140A9
:1009F000914209D1A26A00F44031914204D1E16AE6
:100A000000F07060884201D00120D9E70020D7E7CC
:100A10000438024000004742800E47420070004008
:100A20000000FFFF10B500680B4641680D4801400B
:100A3000080CD870C1F304245C7001F03F049C7072
:100A4000C1F34231197052B900F0FFF8D8705878EC
:100A500000F0FBF85870987800F0F7F898700020D4
:100A600010BD00003FFFFF0010B50B460168896A0A
:100A7000596001680969C1F30E0199600068016855
:100A80000E480140C1F305401870C1F306245C70A4
:100A900001F07F049C70402404EA1141D97052B9DE
:100AA00000F0D3F81870587800F0CFF858709878A4
:100AB00000F0CBF89870002010BD00007F7F7F0011
:100AC00070B5040002D0607F10B106E0012070BD57
:100AD00000202077204600F049F802206077216846
:100AE000CA204862216853204862204600F0B6F8C8
:100AF000FF25042618BB206881681B4A11408160CD
:100B00002168886862681043D4E904231A431043BB
:100B100088602168E068086120680169228941EAEB
:100B2000024101612068C16821F08001C160206834
:100B30008068800607D4204600F024F818B12068A9
:100B400045626677C2E72068016C21F48021016468
:100B50002068016CA269114301642068456201208C
:100B60006077002070BD0000BFFF8FFF0068034961
:100B7000884202D1024901200860704700280040E5
:100B80003C0E474270B504460068C16821F0A001E0
:100B9000C160FFF79FFB05464FF47A7607E000BF80
:100BA000FFF798FB401BB04201D9032070BD2068BD
:100BB000C0688006F4D5002070BD10B5401EB0F1AD
:100BC000807F01D3012010BD4FF0E02460610F2130
:100BD000601700F0C0F80020A0610720206100200D
:100BE00010BDFEE7094808B5016841F00401016045
:100BF000016801F004010091016841F08001016089
:100C0000006800F08000009008BD0000303802400D
:100C10000B4810B50949016000217F22C0E901128B
:100C2000FF22C0E9032141618161FFF749FF0028EC
:100C300003D0BDE81040FFF739BB10BD00280040CD
:100C400028000020FEE770477047010901EB810191
:100C500000F00F0000EB4100C0B2704770B50446D1
:100C60000068C168490614D44FF0FF31C160FFF736
:100C700031FB05464FF47A7607E000BFFFF72AFB09
:100C8000401BB04201D9032070BD2068C0684006F7
:100C9000F4D5002070BD7047FFF722BB30B597B088
:100CA00030216846FFF7C4FA14210CA8FFF7C0FAF8
:100CB00000251F481195129513951495016841F070
:100CC00080510160006800F080501590194801685B
:100CD00041F4804101600068022400F480401590D6
:100CE000052000904FF48030019001200290800593
:100CF000CDE9064008AA0420A82182E813000B9041
:100D00006846FFF7E1FC0CA90F2081E831004FF4A1
:100D1000A0500F90E002109005210CA8FFF70AFCEC
:100D2000E0011490119411A8FFF766FB17B030BDD5
:100D300040380240007000400548016841F47001ED
:100D4000016003494FF0006080390860704700007F
:100D500088ED00E0FEE70907090E002804DB00F13A
:100D6000E02080F80014704700F00F0000F1E02050
:100D700080F8141D704702E008C8121F08C1002A3D
:100D8000FAD170477047002001E001C1121F002A0C
:100D9000FBD17047FFF7ACFAFFF780FFFFF722FFA8
:100DA000FFF736FF4FF47A74002206490648FFF732
:100DB0005BFE002205490448FFF734FE2046FFF79A
:100DC00077FAF1E71400002028000020000000203E
:100DD00000000000000000000102030406070809EB
:100DE000000E00080000002014000000760D00082E
:100DF000140E00081400002034040000860D0008C2
:100E000000000000010000001000000000000000D1
:040E10000024F400C6
:040000050800018965
:00000001FF
